:100000000C94BC010C94ED010C94ED010C94ED01E9
:100010000C94ED010C94ED010C94ED010C94ED01A8
:100020000C94ED010C94ED010C94ED010C94ED0198
:100030000C94ED010C94ED010C9464060C94910663
:100040000C94BE060C94EB060C9418070C94450710
:100050000C9472070C949F070C94CC070C94F9072E
:100060000C94ED010C94201F0C94ED010C94ED0107
:100070000C94781F0C94ED010C94ED010C94ED019F
:100080000C94ED010C94ED010C94ED010C94ED0138
:100090000C94ED010C94ED010C94ED010C94ED0128
:1000A0000C94ED010C94ED010C94ED010C94ED0118
:1000B0000C94ED010C94ED010C94ED010C94E80905
:1000C0000C94150A0C94420A0C946F0A0C949C0A26
:1000D0000C94C90A0C94F60A0C94230B0C9483110B
:1000E0000C94500B0C94ED010C9480200C94ED01B9
:1000F0000C94ED010C94D8200C94ED010C94ED01BE
:100100000C94ED010C94ED010C94ED010C94ED01B7
:100110000C94ED010C94ED010C94ED010C94ED01A7
:100120000C94ED010C94ED010C94ED010C94ED0197
:100130000C94ED010C9426080C9453080C94800840
:100140000C94AD080C94DA080C9407090C9434094B
:100150000C9461090C948E090C94BB090C94ED016C
:100160000C94D01F0C94ED010C94ED010C942820FC
:100170000C94ED010C94ED010C94ED010C94ED0147
:100180000C94ED010C94ED010C94ED010C94ED0137
:100190000C94ED010C94ED010C94ED010C94ED0127
:1001A0000C94ED010C94ED010C94ED010C94ED0117
:1001B0000C947D0B0C94AA0B0C94D70B0C94040C90
:1001C0000C94310C0C945E0C0C94ED010C94ED012C
:1001D0000C94ED010C94ED010C94ED010C94302184
:1001E0000C94ED010C94ED010C94ED010C94ED01D7
:1001F0000C94ED010C94ED010C94ED01890D9C0D16
:10020000AF0DC20DD50DE80DFB0DC11CC41CC71CE4
:10021000CA1CCD1CD01CD21CE31CEB1CF51CF31C0F
:100220000C94641C0C94DA040C94E31C0C94EB1CEA
:100230000C94B31B0C94CA1C0C94C41C0C946B1C23
:100240000C94AF0D0C94D01C0C946C1C0C94751E6B
:100250000C940F140C94621E0C94661C0C94FB0DF1
:100260000C94F0210C949C0D0C94F51C0C94890DAD
:100270000C94CD1C0C94601B0C94B9010C94371B8E
:100280000C943C1E0C94D50D0C94C71C0C94A71A0E
:100290000C94C20D0C94551B0C94EF010C94181E79
:1002A0000C94691C0C94C11C0C94D21C0C94E80D89
:1002B0000C94F31C526573657474696E6700455243
:1002C000524F5220696E207461736B200045525268
:1002D0004F52206372656174696E67207461736B3D
:1002E00020002C20737461636B20617420307800CF
:1002F0002063726561746564005461736B2000094A
:1003000009002F0049444C45090930092D0900090D
:100310002D2D2D2D00092D2D2D2D2D2D2D2D2D2D5E
:10032000002D2D2D2D09092D2D2D2D092D2D2D2D96
:100330002D000952756E730009467265652F546F62
:1003400074616C004E616D6509095072692E095324
:10035000746174650009537461636B005461736B5D
:1003600009092020092000090009002F00090009BF
:1003700000000E94D119F02111241FBECFEFCDBF84
:10038000DFE3DEBF00E00CBF10E2A0E0B0E2E0EE91
:10039000F5E400E00BBF02C007900D92AE3EB1073E
:1003A000D9F721E3AEEEB0E201C01D92AA3EB2073A
:1003B000E1F711E0CCEBD1E000E006C021970109A4
:1003C000802FFE010E943722CB3BD10780E0080737
:1003D000A9F70E9488210C94EE220C940000CF9380
:1003E000DF9300D01F92CDB7DEB78C01DC015296AF
:1003F0001C920F2EF0E3EF2EF12CF02D0F2EF4E6D1
:10040000CF2EF02D0F2EF8ECDF2EF02DF801868187
:100410009781DC01ED91FC910480F581E02D199527
:10042000882349F1F8018289838B86819781DC01D9
:10043000ED91FC910680F781E02D1995F801828BF2
:1004400093899337C1F49701281B3109C901248B83
:10045000358BC89E9001C99E300D11242093F02049
:100460003093F120D89E9001D99E300D1124209315
:10047000EE203093EF200E94AE1569837A838B8340
:100480009C8345E050E060E070E0CE0101960E9460
:100490004717BCCF0F931F93CF93DF93EC010E94BC
:1004A000E0198AE090E288839983DF91CF911F91D0
:1004B0000F910895FC01618B728B438B548B258BBC
:1004C000368B0895FC01678B708F418F528F238F7D
:1004D000348F0895FC01658F768F08956536710518
:1004E00034F024E630E0FC0125AB36AB0895FC0186
:1004F00065AB76AB0895FC0125A936A92617370709
:100500001CF427AB30AF0895FC0167AB70AF0895C2
:10051000CF93DF93EC014E875F87688B613399F44B
:1005200024EF31E041E060E00E94760D24EF31E0FD
:1005300042E060E0CE0107960E94760D81E090E0F7
:100540008FA398A714C0623391F424EF31E043E005
:1005500060E00E94760D24EF31E044E060E0CE01DF
:1005600007960E94760D8FEF9FEF8FA398A71BA68B
:100570001CA61FA618AA198A1A8A1B8A1C8A1D8AF9
:100580001E8A1F8A188E198E1A8E1B8E1C8E1DAA0B
:100590001EAA60E070E0CE010E947B0219AE1AAE86
:1005A0001BAE1CAE1F8E18A21DA21EA219A21AA25B
:1005B0001BA21CA281E090E08D8F9E8FDF91CF91D6
:1005C0000895FC0161AF72AF0895FC0163AF74AF91
:1005D0000895FC01678F70A30895FC0165A376A3BD
:1005E0000895FC0161A372A30895FC0163A374A3A1
:1005F00008952F923F924F925F926F927F928F92C7
:100600009F92AF92BF92CF92DF92EF92FF920F93A1
:100610001F93CF93DF9300D0CDB7DEB78A839B8340
:100620000983DC015F968D919C91909791962D9115
:100630003C919297821B930B99968D939C939A97DA
:1006400095962D913C9196979396ED91FC91949768
:100650002E1B3F0B9D962D933C939E979B96ED9161
:10066000FC919C97E80FF91F9B96ED93FC939C9748
:10067000D9960D911C91DA970E171F072CF49B96B3
:100680000D931C939C970BC0AA27BB27A01BB10BF3
:10069000EA17FB0724F4EA81FB81A3A7B4A7AA8188
:1006A000BB819F96ED91FC91D097E20FF31F9F962F
:1006B000ED93FC93D097DB960D911C91DC970E1770
:1006C0001F072CF49F960D931C93D0970BC0AA275D
:1006D000BB27A01BB10BEA17FB0724F4EA81FB81BF
:1006E000A7A7B0ABAA81BB81D1961D921C92D297CD
:1006F000D3961D921C92D4975196ED91FC915297EE
:100700008E9F60018F9FD00C9E9FD00C11249B96D2
:100710000D911C919C9753968D919C915497089F95
:100720007001099FF00C189FF00C1124862E912C5B
:10073000A42EB12C5D966D907C905E97C89CA00114
:10074000C99C500DD89C500D1124EA9CC001EB9C13
:10075000900DFA9C900D1124840F951FB3010E94F7
:100760000122AA81BB81D796ED91FC91D897E6171B
:10077000F70754F0882799278E1B9F0B1B016817DA
:1007800079071CF41C0101C01F01AA81BB81979647
:100790004D905C90989759966D917C915A979F9641
:1007A0004D915C91D097649FC001659F900D749F9F
:1007B000900D11248A9DB0018B9D700D9A9D700D36
:1007C000112457968D919C915897289FA001299F9D
:1007D000500D389F500D1124489DC001499D900D2A
:1007E000589D900D1124860F971FB3010E9401227E
:1007F000649DC001659D900D749D900D1124AA818A
:10080000BB81D5962D913C91D697B9016E1B7F0B7C
:10081000681779073CF0E21BF30BBC018E179F07AA
:100820000CF4BF01620D731D649D5001659DB00CF9
:10083000749DB00C1124EA81FB81708886849784B2
:100840006EE070E2C4010E947B1CD401ED91FC912A
:100850000280F381E02D672DC401199565E170E2F6
:10086000C4010E947B1CB601C4010E94F91C6C01EA
:1008700060E270E20E947B1CB701C6010E94F91C75
:100880007C0164E270E20E947B1CB801C7010E94F7
:10089000F91C8C016BE270E20E947B1C60E070E04E
:1008A000C8010E94F91C8C016FE270E20E947B1C5F
:1008B000B501C8010E94F91C66E00E94B21CEA81E1
:1008C000FB8105A916A90A151B054CF08827992755
:1008D000801B910B8501A816B9060CF48C01F981D7
:1008E000FF2359F110161106A4F464E68A819B8156
:1008F0000E943F0EC801112324F488279927801BEA
:10090000910B64E6681B8A819B8107960E943F0ECB
:100910003AC0C801112324F488279927801B910B22
:1009200064E6681B8A819B810E943F0E64E68A818F
:100930009B8107960E943F0E26C01016110694F464
:10094000B801112324F466277727601B710B8A8175
:100950009B810E943F0E60E08A819B8107960E94E6
:100960003F0E11C060E08A819B810E943F0EB8015A
:10097000112324F466277727601B710B8A819B81E2
:1009800007960E943F0EC8012396CDBFDEBFDF91C0
:10099000CF911F910F91FF90EF90DF90CF90BF907C
:1009A000AF909F908F907F906F905F904F903F900F
:1009B0002F900895CF93DF93CDB7DEB7CE57D109EF
:1009C000CDBFDEBF3C01FC014681578161E3CE0112
:1009D00001960E948802F3014681578162E3CE01AD
:1009E000CE960E9488026AE070E0CE0101960E94D5
:1009F0006A026AE070E0CE01CE960E946A0220E0B0
:100A000030E041E050E061E070E0CE0101960E94EC
:100A10005A0220E030E041E050E061E070E0CE01B9
:100A2000CE960E945A0220E030E041E050E061E0C2
:100A300070E0CE0101960E94620220E030E041E0C9
:100A400050E061E070E0CE01CE960E94620264E662
:100A500070E0CE0101960E946E0264E670E0CE0165
:100A6000CE960E946E0260E570E0CE0101960E9473
:100A70007B0260E570E0CE01CE960E947B0260E2D0
:100A800073E0CE0101960E94E10260E273E0CE01C4
:100A9000CE960E94E10268EC70E0CE0101960E94C1
:100AA000E50268EC70E0CE01CE960E94E5020E945D
:100AB000AE15EF966CAF7DAF8EAF9FAFEF97F301A2
:100AC0000681178167E370E2C8010E947B1C66E023
:100AD000C8010E94B21C6091F4207091F520CE01F3
:100AE00001960E94F1026091F2207091F320CE01F4
:100AF000CE960E94F1026091F0207091F120CE011B
:100B000001960E94E9026091EE207091EF20CE01E3
:100B1000CE960E94E9026091F4207091F520CE01FA
:100B200001960E94F5026091F2207091F320CE01AF
:100B3000CE960E94F5026091F0207091F120CE01D6
:100B400001960E94ED026091EE207091EF20CE019F
:100B5000CE960E94ED0201E020E040E061E0CE018F
:100B600001960E94F9026C0120E040E061E0CE01B4
:100B7000CE960E94F9027C01EF968CAC9DACAEAC97
:100B8000BFACEF97F3010681178164E570E2C801FD
:100B90000E947B1CB601C8010E94F91C8C0165E60D
:100BA00070E20E947B1CB701C8010E94F91C8C01F5
:100BB0006CE670E20E947B1CB501A401C8010E9492
:100BC000561D66E00E94B21C0E94AE15EF966CAFF7
:100BD0007DAF8EAF9FAFEF9745E050E060E070E0F3
:100BE000CE0185589F4F0E94471775CF0F931F93D3
:100BF000CF93DF93EC010E94E01987E790E28883AE
:100C00009983DF91CF911F910F9108950F93CF9307
:100C1000DF931F92CDB7DEB72FB72983F8941BBEA1
:100C2000FC0108ED04BF608389818FBF0F90DF91C5
:100C3000CF910F910895CF93DF931F92CDB7DEB779
:100C40008FB78983F894E0E5F0E08BEC82838081B4
:100C500088608083818183FFFDCFE0E5F0E082EC56
:100C60008583808180618083818184FFFDCFE0E482
:100C7000F0E06081687F6460608388ED84BF80E419
:100C800090E00E940606E0E5F0E080818B7F8083A3
:100C900089818FBF0F90DF91CF910895CF93DF931C
:100CA0001F92CDB7DEB79FB79983F8949981E82F4B
:100CB000F0E0E059FF4F60958081682360839FBF1B
:100CC0000F90DF91CF9108951F920F920FB60F9260
:100CD00011240BB60F922F933F934F935F936F9313
:100CE0007F938F939F93AF93BF93EF93FF93E09185
:100CF0003A21F0913B21309709F01995FF91EF913E
:100D0000BF91AF919F918F917F916F915F914F9123
:100D10003F912F910F900BBE0F900FBE0F901F9021
:100D200018951F920F920FB60F9211240BB60F92C7
:100D30002F933F934F935F936F937F938F939F93E3
:100D4000AF93BF93EF93FF93E0913821F091392156
:100D5000309709F01995FF91EF91BF91AF919F9155
:100D60008F917F916F915F914F913F912F910F9054
:100D70000BBE0F900FBE0F901F9018951F920F92F1
:100D80000FB60F9211240BB60F922F933F934F93F0
:100D90005F936F937F938F939F93AF93BF93EF93E3
:100DA000FF93E0913621F0913721309709F01995A2
:100DB000FF91EF91BF91AF919F918F917F916F9133
:100DC0005F914F913F912F910F900BBE0F900FBEEF
:100DD0000F901F9018951F920F920FB60F9211242B
:100DE0000BB60F922F933F934F935F936F937F9325
:100DF0008F939F93AF93BF93EF93FF93E091342131
:100E0000F0913521309709F01995FF91EF91BF913D
:100E1000AF919F918F917F916F915F914F913F9192
:100E20002F910F900BBE0F900FBE0F901F90189533
:100E30001F920F920FB60F9211240BB60F922F93A1
:100E40003F934F935F936F937F938F939F93AF9352
:100E5000BF93EF93FF93E0913221F09133213097CC
:100E600009F01995FF91EF91BF91AF919F918F91EB
:100E70007F916F915F914F913F912F910F900BBE9A
:100E80000F900FBE0F901F9018951F920F920FB6E4
:100E90000F9211240BB60F922F933F934F935F93B2
:100EA0006F937F938F939F93AF93BF93EF93FF9332
:100EB000E0913021F0913121309709F01995FF919F
:100EC000EF91BF91AF919F918F917F916F915F91C2
:100ED0004F913F912F910F900BBE0F900FBE0F902F
:100EE0001F9018951F920F920FB60F9211240BB6F8
:100EF0000F922F933F934F935F936F937F938F93B3
:100F00009F93AF93BF93EF93FF93E0912E21F091C6
:100F10002F21309709F01995FF91EF91BF91AF9173
:100F20009F918F917F916F915F914F913F912F9101
:100F30000F900BBE0F900FBE0F901F9018951F9231
:100F40000F920FB60F9211240BB60F922F933F936F
:100F50004F935F936F937F938F939F93AF93BF93C1
:100F6000EF93FF93E0912C21F0912D21309709F020
:100F70001995FF91EF91BF91AF919F918F917F91C3
:100F80006F915F914F913F912F910F900BBE0F90FA
:100F90000FBE0F901F9018951F920F920FB60F92D1
:100FA00011240BB60F922F933F934F935F936F9340
:100FB0007F938F939F93AF93BF93EF93FF93E091B2
:100FC0002A21F0912B21309709F01995FF91EF918B
:100FD000BF91AF919F918F917F916F915F914F9151
:100FE0003F912F910F900BBE0F900FBE0F901F904F
:100FF00018951F920F920FB60F9211240BB60F92F5
:101000002F933F934F935F936F937F938F939F9310
:10101000AF93BF93EF93FF93E0912821F0912921A3
:10102000309709F01995FF91EF91BF91AF919F9182
:101030008F917F916F915F914F913F912F910F9081
:101040000BBE0F900FBE0F901F9018951F920F921E
:101050000FB60F9211240BB60F922F933F934F931D
:101060005F936F937F938F939F93AF93BF93EF9310
:10107000FF93E0912621F0912721309709F01995EF
:10108000FF91EF91BF91AF919F918F917F916F9160
:101090005F914F913F912F910F900BBE0F900FBE1C
:1010A0000F901F9018951F920F920FB60F92112458
:1010B0000BB60F922F933F934F935F936F937F9352
:1010C0008F939F93AF93BF93EF93FF93E09124216E
:1010D000F0912521309709F01995FF91EF91BF917B
:1010E000AF919F918F917F916F915F914F913F91C0
:1010F0002F910F900BBE0F900FBE0F901F90189561
:101100001F920F920FB60F9211240BB60F922F93CE
:101110003F934F935F936F937F938F939F93AF937F
:10112000BF93EF93FF93E0912221F0912321309719
:1011300009F01995FF91EF91BF91AF919F918F9118
:101140007F916F915F914F913F912F910F900BBEC7
:101150000F900FBE0F901F9018951F920F920FB611
:101160000F9211240BB60F922F933F934F935F93DF
:101170006F937F938F939F93AF93BF93EF93FF935F
:10118000E0912021F0912121309709F01995FF91EC
:10119000EF91BF91AF919F918F917F916F915F91EF
:1011A0004F913F912F910F900BBE0F900FBE0F905C
:1011B0001F9018951F920F920FB60F9211240BB625
:1011C0000F922F933F934F935F936F937F938F93E0
:1011D0009F93AF93BF93EF93FF93E0911E21F09104
:1011E0001F21309709F01995FF91EF91BF91AF91B1
:1011F0009F918F917F916F915F914F913F912F912F
:101200000F900BBE0F900FBE0F901F9018951F925E
:101210000F920FB60F9211240BB60F922F933F939C
:101220004F935F936F937F938F939F93AF93BF93EE
:10123000EF93FF93E0911C21F0911D21309709F06D
:101240001995FF91EF91BF91AF919F918F917F91F0
:101250006F915F914F913F912F910F900BBE0F9027
:101260000FBE0F901F9018951F920F920FB60F92FE
:1012700011240BB60F922F933F934F935F936F936D
:101280007F938F939F93AF93BF93EF93FF93E091DF
:101290001A21F0911B21309709F01995FF91EF91D8
:1012A000BF91AF919F918F917F916F915F914F917E
:1012B0003F912F910F900BBE0F900FBE0F901F907C
:1012C00018951F920F920FB60F9211240BB60F9222
:1012D0002F933F934F935F936F937F938F939F933E
:1012E000AF93BF93EF93FF93E0911821F0911921F1
:1012F000309709F01995FF91EF91BF91AF919F91B0
:101300008F917F916F915F914F913F912F910F90AE
:101310000BBE0F900FBE0F901F9018951F920F924B
:101320000FB60F9211240BB60F922F933F934F934A
:101330005F936F937F938F939F93AF93BF93EF933D
:10134000FF93E0911621F0911721309709F019953C
:10135000FF91EF91BF91AF919F918F917F916F918D
:101360005F914F913F912F910F900BBE0F900FBE49
:101370000F901F9018951F920F920FB60F92112485
:101380000BB60F922F933F934F935F936F937F937F
:101390008F939F93AF93BF93EF93FF93E0911421AB
:1013A000F0911521309709F01995FF91EF91BF91B8
:1013B000AF919F918F917F916F915F914F913F91ED
:1013C0002F910F900BBE0F900FBE0F901F9018958E
:1013D0001F920F920FB60F9211240BB60F922F93FC
:1013E0003F934F935F936F937F938F939F93AF93AD
:1013F000BF93EF93FF93E0911221F0911321309767
:1014000009F01995FF91EF91BF91AF919F918F9145
:101410007F916F915F914F913F912F910F900BBEF4
:101420000F900FBE0F901F9018951F920F920FB63E
:101430000F9211240BB60F922F933F934F935F930C
:101440006F937F938F939F93AF93BF93EF93FF938C
:10145000E0911021F0911121309709F01995FF9139
:10146000EF91BF91AF919F918F917F916F915F911C
:101470004F913F912F910F900BBE0F900FBE0F9089
:101480001F9018951F920F920FB60F9211240BB652
:101490000F922F933F934F935F936F937F938F930D
:1014A0009F93AF93BF93EF93FF93E0910E21F09141
:1014B0000F21309709F01995FF91EF91BF91AF91EE
:1014C0009F918F917F916F915F914F913F912F915C
:1014D0000F900BBE0F900FBE0F901F9018951F928C
:1014E0000F920FB60F9211240BB60F922F933F93CA
:1014F0004F935F936F937F938F939F93AF93BF931C
:10150000EF93FF93E0910C21F0910D21309709F0BA
:101510001995FF91EF91BF91AF919F918F917F911D
:101520006F915F914F913F912F910F900BBE0F9054
:101530000FBE0F901F9018951F920F920FB60F922B
:1015400011240BB60F922F933F934F935F936F939A
:101550007F938F939F93AF93BF93EF93FF93E0910C
:101560000A21F0910B21309709F01995FF91EF9125
:10157000BF91AF919F918F917F916F915F914F91AB
:101580003F912F910F900BBE0F900FBE0F901F90A9
:1015900018951F920F920FB60F9211240BB60F924F
:1015A0002F933F934F935F936F937F938F939F936B
:1015B000AF93BF93EF93FF93E0910821F09109213E
:1015C000309709F01995FF91EF91BF91AF919F91DD
:1015D0008F917F916F915F914F913F912F910F90DC
:1015E0000BBE0F900FBE0F901F9018951F920F9279
:1015F0000FB60F9211240BB60F922F933F934F9378
:101600005F936F937F938F939F93AF93BF93EF936A
:10161000FF93E0910621F0910721309709F0199589
:10162000FF91EF91BF91AF919F918F917F916F91BA
:101630005F914F913F912F910F900BBE0F900FBE76
:101640000F901F9018951F920F920FB60F921124B2
:101650000BB60F922F933F934F935F936F937F93AC
:101660008F939F93AF93BF93EF93FF93E0910421E8
:10167000F0910521309709F01995FF91EF91BF91F5
:10168000AF919F918F917F916F915F914F913F911A
:101690002F910F900BBE0F900FBE0F901F901895BB
:1016A0001F920F920FB60F9211240BB60F922F9329
:1016B0003F934F935F936F937F938F939F93AF93DA
:1016C000BF93EF93FF93E0910221F09103213097B4
:1016D00009F01995FF91EF91BF91AF919F918F9173
:1016E0007F916F915F914F913F912F910F900BBE22
:1016F0000F900FBE0F901F9018951F920F920FB66C
:101700000F9211240BB60F922F933F934F935F9339
:101710006F937F938F939F93AF93BF93EF93FF93B9
:10172000E0910021F0910121309709F01995FF9186
:10173000EF91BF91AF919F918F917F916F915F9149
:101740004F913F912F910F900BBE0F900FBE0F90B6
:101750001F9018951F920F920FB60F9211240BB67F
:101760000F922F933F934F935F936F937F938F933A
:101770009F93AF93BF93EF93FF93E091FE20F0917F
:10178000FF20309709F01995FF91EF91BF91AF912C
:101790009F918F917F916F915F914F913F912F9189
:1017A0000F900BBE0F900FBE0F901F9018951F92B9
:1017B0000F920FB60F9211240BB60F922F933F93F7
:1017C0004F935F936F937F938F939F93AF93BF9349
:1017D000EF93FF93E091FC20F091FD20309709F00A
:1017E0001995FF91EF91BF91AF919F918F917F914B
:1017F0006F915F914F913F912F910F900BBE0F9082
:101800000FBE0F901F9018951F920F920FB60F9258
:1018100011240BB60F922F933F934F935F936F93C7
:101820007F938F939F93AF93BF93EF93FF93E09139
:10183000FA20F091FB20309709F01995FF91EF9174
:10184000BF91AF919F918F917F916F915F914F91D8
:101850003F912F910F900BBE0F900FBE0F901F90D6
:1018600018951F920F920FB60F9211240BB60F927C
:101870002F933F934F935F936F937F938F939F9398
:10188000AF93BF93EF93FF93E091F820F091F9208D
:10189000309709F01995FF91EF91BF91AF919F910A
:1018A0008F917F916F915F914F913F912F910F9009
:1018B0000BBE0F900FBE0F901F9018951F920F92A6
:1018C0000FB60F9211240BB60F922F933F934F93A5
:1018D0005F936F937F938F939F93AF93BF93EF9398
:1018E000FF93E091F620F091F720309709F01995D9
:1018F000FF91EF91BF91AF919F918F917F916F91E8
:101900005F914F913F912F910F900BBE0F900FBEA3
:101910000F901F9018951F93CF93DF931F921F92E4
:10192000CDB7DEB72FB72A83F8941A81282F392F25
:10193000211588E0380749F461E083E00E944E06F3
:1019400064E083E00E944E064FC0203488E03807F0
:1019500049F462E083E00E944E0664E083E00E9466
:101960004E0642C0211589E0380749F461E084E061
:101970000E944E0664E084E00E944E0635C020348A
:1019800089E0380749F462E084E00E944E0664E092
:1019900084E00E944E0628C021158AE0380749F4E9
:1019A00061E085E00E944E0664E085E00E944E06FC
:1019B0001BC020348AE0380749F462E085E00E94C9
:1019C0004E0664E085E00E944E060EC021153B40A5
:1019D00049F461E086E00E944E0664E086E00E94E1
:1019E0004E0602C01FBF10C08091E3318F3F09F443
:1019F000FFCF8FB78983F8949981E2EEF1E381817B
:101A00008F5F81839FBF1FBF0F900F90DF91CF919A
:101A10001F910895CF92DF92EF92FF92CF93DF93C1
:101A2000EC016B01E12CF12C60E874E88EE190E0B0
:101A3000A70196010E941522CA01B9012FEF3FEFBD
:101A400040E050E00E9415222115310529F481E083
:101A50008C8321E030E02DC02230310528F482E073
:101A60008C8322E030E025C02430310528F483E067
:101A70008C8324E030E01DC02830310528F484E058
:101A80008C8328E030E015C02034310528F485E04F
:101A90008C8320E430E00DC02F3F310509F028F49D
:101AA00086E08C8320E031E004C087E08C8320E076
:101AB00034E040E050E060E874E88EE190E00E949D
:101AC0001522CA01B901A70196010E9415222D8392
:101AD0003E832436310518F41C821D821E82DF915C
:101AE000CF91FF90EF90DF90CF9008950F931F93C9
:101AF000CF93DF93EC018901862F90E08730910529
:101B000008F08BC0FC018827E250FF4F8F4F0C94E8
:101B1000372280E098E088839983E0E4F6E0308122
:101B200081E090E02FEF240F02C0880F991F2A95C3
:101B3000E2F7832B808371C080E498E088839983E7
:101B4000E0E4F6E0308181E090E023E0240F02C081
:101B5000880F991F2A95E2F7832B80835EC080E06F
:101B600099E088839983E0E6F6E0308181E090E0B7
:101B70002FEF240F02C0880F991F2A95E2F7832BBD
:101B800080834BC080E499E088839983E0E6F6E0A7
:101B9000308181E090E023E0240F02C0880F991F7C
:101BA0002A95E2F7832B808338C080E09AE088830F
:101BB0009983E0E8F6E0308181E090E02FEF240F98
:101BC00002C0880F991F2A95E2F7832B808325C0D6
:101BD00080E49AE088839983E0E8F6E0308181E050
:101BE00090E023E0240F02C0880F991F2A95E2F7A6
:101BF000832B808312C080E09BE088839983E0EA96
:101C0000F6E0308181E090E02FEF240F02C0880FD2
:101C1000991F2A95E2F7832B80834A83423061F033
:101C200018F4413031F010C0433049F0443051F0E5
:101C30000BC080E18B8308C080E28B8305C080E409
:101C40008B8302C080E88B83888199810E948B0CF2
:101C5000E881F9818181887F836081831D821E8272
:101C60001C82E881F9818081807F8083B801CE0168
:101C70000E940A0DDF91CF911F910F910895CF938C
:101C8000DF93EC012D813E81A62FB0E00E943F2220
:101C900024E630E040E050E00E9415228A81E8818D
:101CA000F981E6FD17C0823061F018F4813031F01F
:101CB0001BC0833049F0843051F016C020AF31AFE3
:101CC00013C022AF33AF10C024AF35AF0DC026AF65
:101CD00037AF0AC0813019F0823021F005C020AF43
:101CE00031AF02C022AF33AF8D819E81E881F9818F
:101CF00086A397A38B81E881F981E6FD04C09181D9
:101D0000892B818304C091818073892B8183E88131
:101D1000F9818081807F9C81892B8083DF91CF91A5
:101D200008950F931F93CF93DF93EC010E94A815A2
:101D300080913C2181111DC0A1E4B1E2E5E4F1E212
:101D4000ED93FC93119712961D921C921397ADE39D
:101D5000B1E28FEF9FE012968D939C9313971D92A3
:101D60001C92119782839383A083B18381E0809337
:101D70003C21209709F45FC09E012B5F3F4F2496C2
:101D8000CE3FDF4008F05AC0E0914121F09142215E
:101D9000A1E4B1E202C0DF01FC01828193818217DC
:101DA000930720F4808191810097A9F7C1E2ED3378
:101DB000FC0709F446C0CD91DC9111978E010B5FB1
:101DC0001F4F808191818D939C9382819381821B8F
:101DD000930B8B30910510F1BF01620F731FDB0174
:101DE00012968D939C9313972283338312964D9171
:101DF0005C91139781E491E201C0CD01EC01A881CF
:101E0000B98112962D913C91139724173507A8F3A9
:101E1000EB01A883B983DC016D937C938091002052
:101E20009091012022813381821B930B80930020AB
:101E30009093012008C000E010E005C000E010E031
:101E400002C000E010E00E94C516C801DF91CF91EA
:101E50001F910F9108950F931F93CF93DF930097D6
:101E600041F1EC018C01055011090E94A815F801FF
:101E700042815381A1E4B1E201C0DF01ED91FC9107
:101E800011972281338124173507B8F32597E8830A
:101E9000F9830D931C9320910020309101208A81B9
:101EA0009B81820F931F80930020909301200E94BA
:101EB000C516DF91CF911F910F910895FC010396F4
:101EC000818392834FEF5FEFBA014383548365832D
:101ED0007683878390878187928710820895FC019B
:101EE000128613860895CF93DF93FC01DB012181D5
:101EF0003281E9018C819D8114968D939C93159775
:101F00008181928116968D939C9317978C819D81E8
:101F1000EC016E837F83E9016C837D83618372832F
:101F20001A96ED93FC931B9780818F5F8083DF91DE
:101F3000CF9108950F931F93CF93DF93EB01088107
:101F400019812A813B810F3F4FEF14072407340783
:101F500031F4DC011996ED91FC911A971FC0FC0138
:101F60003396DC0117964D915C911897DA014D91EB
:101F70005D916D917C91041715072607370770F066
:101F80000480F581E02DA481B5814D915D916D9125
:101F90007C91041715072607370790F7A481B581B0
:101FA000AC83BD831696CD93DC931797EE83FF83A6
:101FB000C483D5838A879B87FC0120812F5F208380
:101FC000DF91CF911F910F910895FC01A481B581FC
:101FD0008681978116968D939C931797A681B781DA
:101FE0008481958114968D939C931597A285B385D2
:101FF00011968D919C911297E817F90731F486811B
:10200000978111968D939C931297128613868C91CB
:1020100081508C9308958093E8319093E93131E1B8
:10202000FC013083319722E220833197A3E3A08320
:102030003197608331977083319710823197108286
:10204000319760E860833197108231971082319721
:102050001082319762E06083319763E0608331974B
:1020600064E06083319765E06083319766E0608368
:10207000319767E06083319768E06083319769E06A
:102080006083319760E1608331973083319732E12B
:102090003083319733E13083319734E130833197A6
:1020A00035E13083319736E13083319737E1308342
:1020B000319738E13083319739E13083319730E21D
:1020C0003083319731E2308331972083319723E297
:1020D00020833197408331975083319726E22083C4
:1020E000319727E22083319728E22083319729E234
:1020F0002083319720E32083319721E32083899740
:1021000008958CE78093690A8FEF8093680A81E0D5
:102110008093400A90E19093410A8093470AA091EE
:10212000A431B091A531CD91CDBFDD91DEBFFF913E
:10213000EF91DF91CF91BF91AF919F918F917F915F
:102140006F915F914F913F912F911F910F91FF9050
:10215000EF90DF90CF90BF90AF909F908F907F9047
:102160006F905F904F903F902F901F900F900CBEFC
:102170000F900BBE0F900FBE0F90089508950F9211
:102180000FB6F8940F920BB60F920CB60F921F92E7
:1021900011242F923F924F925F926F927F928F9273
:1021A0009F92AF92BF92CF92DF92EF92FF920F93E6
:1021B0001F932F933F934F935F936F937F938F93CF
:1021C0009F93AF93BF93CF93DF93EF93FF93A09130
:1021D000A431B091A5310DB60D920EB60D920E94AC
:1021E000E217A091A431B091A531CD91CDBFDD9181
:1021F000DEBFFF91EF91DF91CF91BF91AF919F91A2
:102200008F917F916F915F914F913F912F911F918E
:102210000F91FF90EF90DF90CF90BF90AF909F9085
:102220008F907F906F905F904F903F902F901F9076
:102230000F900CBE0F900BBE0F900FBE0F90089525
:102240000F920FB6F8940F920BB60F920CB60F9236
:102250001F9211242F923F924F925F926F927F9222
:102260008F929F92AF92BF92CF92DF92EF92FF92A6
:102270000F931F932F933F934F935F936F937F938E
:102280008F939F93AF93BF93CF93DF93EF93FF937E
:10229000A091A431B091A5310DB60D920EB60D925C
:1022A0000E94C4150E94E217A091A431B091A531FB
:1022B000CD91CDBFDD91DEBFFF91EF91DF91CF9149
:1022C000BF91AF919F918F917F916F915F914F914E
:1022D0003F912F911F910F91FF90EF90DF90CF9042
:1022E000BF90AF909F908F907F906F905F904F9036
:1022F0003F902F901F900F900CBE0F900BBE0F9031
:102300000FBE0F900895E0E0F9E080A591A58150FF
:10231000934880A791A70E9420111895CF93DF932F
:10232000EC0188A181110BC088819981892BE1F58D
:102330008A819B810E949D191A821B8235C041119E
:1023400017C0482F50E08C819D810E94622228A1F5
:102350008C819D81820F911D8C839D832A813B817D
:102360008217930708F1888199818C839D831CC013
:10237000482F50E08E819F810E94622288A190E0C8
:102380009195819591092E813F81280F391F2E83C8
:102390003F83488159812417350730F42A813B81D6
:1023A000820F931F8E839F838E8D8F5F8E8FDF9121
:1023B000CF910895FC01808191810097A1F040A107
:1023C00050E026813781240F351F26833783A28171
:1023D000B3812A173B0710F086839783CB01668170
:1023E00077810E94622208950F931F93CF93DF930A
:1023F000EC010FB6F8940F928AA11816B4F48B89E9
:10240000811105C012C08B89811104C00EC08E01DC
:102410000D5E1F4FC8010E94691881110E94261984
:102420008AA181508AA3181674F38FEF8AA30F90A4
:102430000FBE0FB6F8940F9289A11816B4F48885D0
:10244000811105C012C08885811104C00EC08E01A3
:10245000085F1F4FC8010E94691881110E94261948
:1024600089A1815089A3181674F38FEF89A30F9067
:102470000FBEDF91CF911F910F9108951F93CF93BE
:10248000DF93613059F0FC012389308531112CC074
:1024900011E0211110E0211128C001C011E0EC0170
:1024A0004881598128A130E06F8D629FC001639FF0
:1024B000900D1124BA01680F791F6A837B831E8EE9
:1024C0004C835D83821B930B840F951F8E839F83A8
:1024D0008FEF89A38AA3CE0108960E945E0FCE01DA
:1024E00043960E945E0F01C010E0812FDF91CF91D3
:1024F0001F9108950F931F93CF93DF93882301F1CA
:10250000062F182F83E290E00E94910EEC01892B98
:10251000C9F0109FC001112401960E94910E88837A
:102520009983892B39F01F8F08A361E0CE010E94A7
:102530003E1208C0CE010E942B0FC0E0D0E002C0C6
:10254000C0E0D0E0CE01DF91CF911F910F910895AF
:10255000AF92BF92CF92DF92EF92FF920F931F93B1
:10256000CF93DF93CDB7DEB72997CDBFDEBF7C0118
:102570005B012E833F834887598710E06C0188E018
:10258000C80ED11C0FB6F8940F92F701968D878D67
:102590009817A8F4402FB501C7010E948E11F701CA
:1025A0008389882341F0C70143960E9469188130CE
:1025B00011F40E94BF100F900FBE81E056C08E81B3
:1025C0009F81A885B985892B8A2B8B2B21F40F90AD
:1025D0000FBE80E04AC0111105C0CE0101960E94D5
:1025E000A81811E00F900FBE0E94A8150FB6F8941E
:1025F0000F92F70181A18F3F09F411A2F70182A187
:102600008F3F09F412A20F900FBEBE016A5F7F4F89
:10261000CE0101960E94B918811121C00FB6F8941D
:102620000F92F701968D0F900FBE878D981311C0F2
:102630004E815F8168857985C6010E943F18C70178
:102640000E94F4110E94C51681119CCF0E94BF10F8
:1026500099CFC7010E94F4110E94C51693CFC701FC
:102660000E94F4110E94C51680E02996CDBFDEBFFE
:10267000DF91CF911F910F91FF90EF90DF90CF905E
:10268000BF90AF900895AF92BF92CF92DF92EF923A
:10269000FF920F931F93CF93DF93CDB7DEB72997A8
:1026A000CDBFDEBF7C015B012E833F834887598706
:1026B00010E06C0183E1C80ED11C0FB6F8940F92A4
:1026C000F701868D882399F1C680D780B501C701AF
:1026D0000E94DA1101111AC0F701868D8150868F90
:1026E00080819181892B29F40E944319F70182830B
:1026F0009383F70180858823B1F0C70108960E9473
:102700006918813081F40E94BF100DC0F701C682A4
:10271000D7828389882339F0C70143960E946918BC
:1027200081110E94BF100F900FBE81E062C08E81A8
:102730009F81A885B985892B8A2B8B2B21F40F903B
:102740000FBE80E056C0111105C0CE0101960E9457
:10275000A81811E00F900FBE0E94A8150FB6F894AC
:102760000F92F70181A18F3F09F411A2F70182A115
:102770008F3F09F412A20F900FBEBE016A5F7F4F18
:10278000CE0101960E94B91881112DC00FB6F894A0
:102790000F92F701868D0F900FBE81111EC08081B0
:1027A0009181892B49F40FB6F8940F92828193811D
:1027B0000E9448190F900FBE4E815F816885798510
:1027C000C6010E943F18C7010E94F4110E94C5165D
:1027D000811173CF0E94BF1070CFC7010E94F41106
:1027E0000E94C5166ACFC7010E94F4110E94C51647
:1027F00080E02996CDBFDEBFDF91CF911F910F9171
:10280000FF90EF90DF90CF90BF90AF9008950FB6FC
:10281000F8940F92FC01868D0F900FBE0895C8E7C3
:10282000D1E388818230E8F30E94BF10FACFCF92C3
:10283000DF92EF92FF926B017C01E091A431F09165
:10284000A531628373838483958380914C31909109
:102850004D31A0914E31B0914F31C816D906EA06DC
:10286000FB0668F46091A4317091A53180915E31CE
:1028700090915F316E5F7F4F0E949A0F21C06091EF
:10288000A4317091A53180916031909161316E5F7A
:102890007F4F0E949A0F8091022090910320A09177
:1028A0000420B0910520C816D906EA06FB0640F4BC
:1028B000C0920220D0920320E0920420F0920520E2
:1028C000FF90EF90DF90CF9008954F925F926F92BC
:1028D0007F928F929F92AF92BF92CF92DF92EF92B0
:1028E000FF920F931F93CF93DF935C014B013A014B
:1028F000290188E290E00E94910EEC01892B09F4F5
:10290000D4C0C114D10409F0CCC0C3010E94910EFF
:102910008B8F9C8F009721F4CE010E942B0FC5C096
:10292000A30161E170E00E946B2293012150310903
:102930008B8D9C8D3C01620E731E4AE050E0B40109
:10294000CE014D960E9472221EA2102F043008F074
:1029500013E01A8F1FA36E0122E0C20ED11CC60124
:102960000E946F0FCE010E960E946F0FCA87DB8701
:1029700084E090E0A0E0B0E0811B9109A109B109D9
:102980008E879F87A88BB98BCE8BDF8BA201B50179
:10299000C3010E940B1088839983E114F10419F09C
:1029A000F701C083D1830FB6F8940F928091503114
:1029B0008F5F809350318091A4319091A531892B04
:1029C00089F5C093A431D093A531809150318130E5
:1029D000C1F588E791E30E945E0F83E891E30E94CE
:1029E0005E0F8EE891E30E945E0F89E991E30E94F9
:1029F0005E0F8DE691E30E945E0F82E691E30E94F6
:102A00005E0F83E591E30E945E0F8DE691E3809374
:102A100060319093613182E691E380935E319093CF
:102A20005F310FC08091493181110BC0E091A43119
:102A3000F091A531828D081720F0C093A431D09376
:102A4000A5318A8D90914B31981710F480934B31BA
:102A5000909144319F5F9093443190914A319817FF
:102A600010F480934A31FBE08F9FC0011124B6011E
:102A700088589E4C0E94730F0F900FBE8091493171
:102A8000882359F0E091A431F091A531828D80170F
:102A900030F40E94BF1081E009C081E007C081E0EE
:102AA00005C0CB8EDC8EC6013BCF8FEFDF91CF917F
:102AB0001F910F91FF90EF90DF90CF90BF90AF905C
:102AC0009F908F907F906F905F904F9008950FB67A
:102AD000F8940F92009721F48091A4319091A53140
:102AE0000F900FBEFC01828D0895AF92BF92CF92DE
:102AF000DF92EF92FF920F93A12CB12CC12CD12C1D
:102B00000F2EF1E5EF2EF1E3FF2EF02D00E020E097
:102B100030E044E650E06BE770E28FE094E10E9421
:102B20006514813069F4F8948093493110924C31E6
:102B300010924D3110924E3110924F310E948110FF
:102B40000F91FF90EF90DF90CF90BF90AF900895DE
:102B5000809148318F5F8093483108950FB6F89483
:102B60000F9260914C3170914D3180914E31909126
:102B70004F310F900FBE0895009721F48091A4313A
:102B80009091A5314D960895FF920F931F93CF9387
:102B9000DF93809148318111EDC080914C3190914B
:102BA0004D31A0914E31B0914F310196A11DB11D13
:102BB00080934C3190934D31A0934E31B0934F316F
:102BC00080914C3190914D31A0914E31B0914F3167
:102BD000892B8A2B8B2BF1F580916031909161319B
:102BE00020915E3130915F312093603130936131BB
:102BF00080935E3190935F31809145318F5F8093F8
:102C00004531E0916031F0916131808181110CC0DA
:102C10008FEF9FEFDC018093022090930320A0931D
:102C20000420B093052016C0E0916031F09161312D
:102C30000780F085E02D0084F185E02D828193816D
:102C4000A481B5818093022090930320A093042057
:102C5000B093052040914C3150914D3160914E31EF
:102C600070914F318091022090910320A091042017
:102C7000B0910520481759076A077B0708F47FC001
:102C8000E0916031F091613180818823F9F0E09129
:102C90006031F09161310780F085E02DC085D185EC
:102CA0008A819B81AC81BD8140914C3150914D31E5
:102CB00060914E3170914F31481759076A077B0771
:102CC00058F10F2EFBE0FF2EF02D2FC08FEF9FEF5E
:102CD000DC018093022090930320A0930420B09302
:102CE00005204DC0E0916031F09161310780F085A1
:102CF000E02DC085D1858A819B81AC81BD814091C9
:102D00004C3150914D3160914E3170914F31481797
:102D100059076A077B0748F48093022090930320A9
:102D2000A0930420B09305202AC08E010E5F1F4F90
:102D3000C8010E94E50F888D998D892B21F0CE0165
:102D40000E960E94E50F8A8D90914A31981710F4E3
:102D500080934A31F89EC0011124B80188589E4CD6
:102D60000E94730FE0916031F09161318081811197
:102D7000B9CFACCF809147318F5F80934731DF91DE
:102D8000CF911F910F91FF900895CF92DF92EF9214
:102D9000FF920F931F93CF93DF930FB6F8940F9288
:102DA0008091483181508093483180914831811120
:102DB00060C08091503181112CC05EC0D701179640
:102DC000ED91FC911897C085D185CE010E960E9499
:102DD000E50F8E010E5F1F4FC8010E94E50F8A8D1F
:102DE00090914A31981710F480934A31D89EC001CF
:102DF0001124B80188589E4C0E94730FE091A431B1
:102E0000F091A5319A8D828D981770F0CC24C394DF
:102E10000BC0C12C0F2EF3E5EF2EF1E3FF2EF02DAA
:102E20000F2EFBE0DF2EF02DF70180818111C6CF40
:102E300080914731882381F080914731882399F030
:102E40000E94C41580914731815080934731809111
:102E500047318111F5CF07C0F1E0CF1621F0809105
:102E60004631813041F4109246310E94BF1081E01A
:102E700003C080E001C080E00F900FBEDF91CF91D2
:102E80001F910F91FF90EF90DF90CF900895CF9218
:102E9000DF92EF92FF92CF93DF93EC016A017B0107
:102EA0000E94A81588819981AA81BB81C80ED91E6C
:102EB000EA1EFB1E40914C3150914D3160914E31D4
:102EC00070914F31481759076A077B07B8F4C81645
:102ED000D906EA06FB06E0F580914C3190914D3120
:102EE000A0914E31B0914F31C882D982EA82FB82E3
:102EF0008C159D05AE05BF05F8F413C0C816D9069C
:102F0000EA06FB0600F180914C3190914D31A09181
:102F10004E31B0914F318C159D05AE05BF0598F02F
:102F200017C08091A4319091A53102960E94E50FBF
:102F3000C701B6010E9417140E94C51681110DC069
:102F40000E94BF100AC0C882D982EA82FB82E9CF00
:102F5000C882D982EA82FB82EFCFDF91CF91FF90C6
:102F6000EF90DF90CF900895CF92DF92EF92FF9293
:102F70006B017C01672B682B692BE9F00E94A81577
:102F800080914C3190914D31A0914E31B0914F31A3
:102F9000C80ED91EEA1EFB1E8091A4319091A53166
:102FA00002960E94E50FC701B6010E9417140E9405
:102FB000C516811102C00E94BF10FF90EF90DF90F4
:102FC000CF9008958091483181110CC0E0914A3131
:102FD0004BE0E49FF0011124E858FE4C80818823E7
:102FE00029F014C081E08093463108959BE08091E0
:102FF0004A31815080934A31E0914A319E9FF001DD
:103000001124E858FE4C8081882389F380914A314D
:10301000282F30E04BE0849FC0011124DC01A85828
:10302000BE4C1196ED91FC9112970480F581E02D34
:103030001196ED93FC93129785589E4CE817F9076B
:1030400061F4848195814BE0429FF001439FF00D34
:103050001124E858FE4C818392838BE0829FF0011B
:10306000839FF00D1124E858FE4C0180F281E02D81
:10307000808591858093A4319093A5310895CF9256
:10308000DF92EF92FF926A017B016091A43170910F
:10309000A531625F7F4F0E949A0F8091A431909179
:1030A000A53102960E94E50F80914C3190914D31EF
:1030B000A0914E31B0914F31BC01CD016C0D7D1D01
:1030C0008E1D9F1D0E941714FF90EF90DF90CF90F0
:1030D00008950F931F93CF93DF93DC011796ED9123
:1030E000FC911897C085D1858E01025F1F4FC801E2
:1030F0000E94E50F80914831811116C00C501109D2
:10310000C8010E94E50F8A8D90914A31981710F4FA
:1031100080934A31BBE08B9FC0011124B8018858CD
:103120009E4C0E94730F05C0B80183E591E30E9495
:10313000730FE091A431F091A53181E02A8D928D39
:10314000291708F480E0DF91CF911F910F91089526
:1031500020914531FC01208340914C3150914D31FB
:1031600060914E3170914F314183528363837483F8
:1031700008958F929F92AF92BF92CF92DF92EF927B
:10318000FF920F931F93CF93DF93FC010FB6F89438
:103190000F92809145319081981789F080914C3140
:1031A00090914D31A0914E31B0914F3101811281FA
:1031B0002381348180179107A207B307A8F5809176
:1031C0004C3190914D31A0914E31B0914F31C18031
:1031D000D280E380F480EB01088119812A813B8150
:1031E0008C199D09AE09BF0980179107A207B30783
:1031F000E8F4CF0180904C3190904D31A0904E3149
:10320000B0904F31B501A4014C195D096E097F09D9
:10321000041B150B260B370B088319832A833B836A
:103220000E94A81880E003C081E001C081E00F90F7
:103230000FBEDF91CF911F910F91FF90EF90DF9024
:10324000CF90BF90AF909F908F90089581E0809332
:1032500046310895009721F48091A4319091A531D1
:10326000DC015B96ED91FC915C978081813141F4AA
:10327000319680E090E0019621912131E1F30895AB
:1032800080E090E008958091A4319091A531089557
:103290000F931F93CF93DF93FC01228DA091A43154
:1032A000B091A5315A968C91281708F041C0A09191
:1032B000A431B091A5315A963C9184E090E0A0E011
:1032C000B0E0831B9109A109B10986879787A08B7C
:1032D000B18B8BE0289F9001112428583E4C8485A7
:1032E000958582179307E9F48F01EF012296CE01AD
:1032F0000E94E50FE091A431F091A531828DF80193
:10330000828F90914A31981710F480934A31FBE0F4
:103310008F9FC0011124BE0188589E4C0E94730FDC
:1033200007C0A091A431B091A5315A968C91828F9B
:10333000DF91CF911F910F9108950F931F93CF931A
:10334000DF93009749F1FC01328D27A1321721F15B
:10335000EC018C010E5F1F4FC8010E94E50F8FA189
:103360008A8F44E050E060E070E0481B5109610939
:1033700071094E875F87688B798B90914A319817D6
:1033800010F480934A31FBE08F9FC0011124B801F3
:1033900088589E4C0E94730FDF91CF911F910F911F
:1033A0000895EC01E881F9810190F081E02D1995F3
:1033B0001A821B826FEF7FEFCB010E94B417FACF06
:1033C0004F925F926F927F928F929F92AF92BF9235
:1033D000CF92DF92EF92FF920F931F93CF93DF93E1
:1033E000CDB7DEB72A97CDBFDEBF4C01290138012A
:1033F00084E890E2F40180839183FB01808188233B
:1034000069F0DE011196319690E002C0993039F0F2
:103410009F5F8D9381918111F9CF01C090E0E1E030
:10342000F0E0EC0FFD1FE90FF11D10827401F2E0D6
:10343000EF0EF11CA12CB12CC12CD12C042F940126
:10344000A201BE016F5F7F4F89EB91E00E9465147E
:10345000F40166827782408651862091A6313091B0
:10346000A731248335838092A6319092A7311486A8
:1034700015864090E8315090E931FFEF4F1A5F0A0E
:103480004092E8315092E931F40142865386168623
:103490001786108A118A6114710409F444C08130BE
:1034A00079F56AE0C3010E94B21C7C0169EF72E009
:1034B0000E947B1CBE016F5F7F4FC7010E947B1C77
:1034C0006AE0C7010E94B21C7C0160EF72E00E94BA
:1034D0007B1C6AE0C7010E94B21C7C0162EE72E0B4
:1034E0000E947B1C63E0C7010E94B21CB2010E94D3
:1034F000221D62E00E94B21C66E00E94B21C13C052
:103500006AE0C3010E94B21C4C016DEC72E00E94A3
:103510007B1CBE016F5F7F4FC4010E947B1C66E075
:10352000C4010E94B21C2A96CDBFDEBFDF91CF91AD
:103530001F910F91FF90EF90DF90CF90BF90AF90D1
:103540009F908F907F906F905F904F9008958F9293
:103550009F92AF92BF92CF92DF92EF92FF920F9322
:103560001F93CF93DF93EC018B018A819B810E9493
:10357000BC15BC01C8010E947B1CD801ED91FC91D7
:103580000280F381E02D69E0C80119958A819B8151
:103590000E94BC15FC0101900020E9F73197E81B5F
:1035A000F90B389748F4D801ED91FC910280F38132
:1035B000E02D69E0C8011995CE84DF84E888F98898
:1035C000A884B9848A819B810E942A19982E8C84B0
:1035D0008A819B810E946715682FC8010E94981DEF
:1035E0006AE00E94B21CEC016FE673E00E947B1C53
:1035F000682DCE010E94981D6AE00E94B21CEC0169
:103600006DE673E00E947B1C692DCE010E94981D1F
:103610006AE00E94B21CEC016BE673E00E947B1C26
:10362000B501CE010E94221D6AE00E94B21CEC018D
:1036300069E673E00E947B1C6AE0CE010E94B21C26
:10364000EC0167E673E00E947B1CB701A601CE0186
:103650000E94561DDF91CF911F910F91FF90EF9027
:10366000DF90CF90BF90AF909F908F9008950F9371
:10367000CF93DF931F92CDB7DEB700E02FEF3FEF80
:10368000A901BE016F5F7F4FFC01808591850E947B
:103690004313813019F4898190E002C08FEF9FEFCE
:1036A0000F90DF91CF910F910895FC018085918556
:1036B0000E94071491E0811101C090E0892F0895C4
:1036C0000F93CF93DF931F92CDB7DEB76983FC01D1
:1036D000228533854485558500E0BE016F5F7F4FAD
:1036E000808591850E94A81291E0811101C090E02F
:1036F000892F0F90DF91CF910F9108958F929F9214
:10370000BF92CF92DF92EF92FF920F931F93CF93CE
:10371000DF93EC01B62E4A01680179010E946D1C0D
:103720008CE890E2888399838E869F8640E061E0F2
:103730008B2D0E947A1288879987CA86DB86EC8651
:10374000FD86DF91CF911F910F91FF90EF90DF9059
:10375000CF90BF909F908F9008950E94910E0895F2
:103760000E94910E08950895CF93DF93FC01DA0132
:10377000403A68E0560749F480E496E082839383F8
:1037800082E0848383E085834CC0403B78E0570728
:1037900049F480E496E08283938386E0848387E023
:1037A00085833FC0403A89E0580749F480E696E0B7
:1037B0008283938382E0848383E0858332C0403BAD
:1037C00069E0560749F480E696E08283938386E0B9
:1037D000848387E0858325C0403A7AE0570749F41F
:1037E00080E896E08283938382E0848383E085830C
:1037F00018C0403B8AE0580749F480E896E082838D
:10380000938386E0848387E085830BC0403A5B40E6
:1038100041F480EA96E08283938382E0848383E0AC
:103820008583A683B783CD01019680879187039610
:10383000828793872581C281D3814C8181E090E08A
:10384000BC0102C0660F771F2A95E2F79B01242B6B
:103850002C832581C281D3814881BC0102C0660FBF
:10386000771F2A95E2F79B01242B28833481C2819C
:10387000D381288102C0880F991F3A95E2F780957D
:1038800090958223888380E113968C93139783E02D
:1038900015968C93159780EF17968C93179781E266
:1038A00016968C93169788E114968C9380E88587FA
:1038B00080E4868780E284870680F781E02D80811E
:1038C0008081DF91CF91089581E0089580E090E0BC
:1038D000089580E0089508950895FC018CE990E230
:1038E000808391838AE08283138283E085831482BC
:1038F0001682178208950F931F93CF93DF938C0145
:10390000FB01DC0114968C91811104C0608161116E
:1039100017C023C0D80114961C92EB012196649124
:103920006623D9F0D801ED91FC910280F381E02D5E
:10393000C8011995FE01649121966111F3CF0DC064
:10394000EF012196D801ED91FC910280F381E02DE9
:10395000C801199569916111F5CFDF91CF911F9140
:103960000F910895CF93DF93EC01862F90E08B3079
:103970009105D8F5FC018827EB5FFE4F8F4F0C9423
:10398000372282E08A8331C088E08A832EC08AE0B1
:103990008A832BC080E18A8328C081E08B8325C085
:1039A0001B8223C0E881F9810280F381E02D6DE064
:1039B000CE011995E881F9810280F381E02D6AE05A
:1039C000CE01199512C0E881F9810284F385E02DBA
:1039D000CE0119950AC0E881F9810084F185E02DB6
:1039E000CE01199502C081E08C83CE01DF91CF9189
:1039F00008950F931F93CF93DF93CDB7DEB76197F1
:103A0000CDBFDEBF8C019B01FC0192819A3021F079
:103A1000C8010E94221D0DC04AE0BE016F5F7F4FAA
:103A2000C9010E948122BE016F5F7F4FC8010E94C1
:103A30007B1CC8016196CDBFDEBFDF91CF911F9186
:103A40000F910895FF920F931F93CF93DF93CDB7FC
:103A5000DEB76197CDBFDEBF8C01F62E972FF80140
:103A60004281403121F0483011F0423041F4692F59
:103A7000C8010E94981D6F2D0E94981D0DC050E036
:103A8000BE016F5F7F4F8F2D0E94B922BE016F5F15
:103A90007F4FC8010E947B1CC8016196CDBFDEBF6D
:103AA000DF91CF911F910F91FF900895DF92EF92D8
:103AB000FF920F931F93CF93DF93CDB7DEB7A197FC
:103AC000CDBFDEBF8C01D42EE52EF62E972FF80148
:103AD0002281203121F0283011F0223071F4692F39
:103AE000C8010E94981D6F2D0E94981D6E2D0E9486
:103AF000981D6D2D0E94981D0FC030E0AE014F5FE4
:103B00005F4F6D2D7E2D8F2D0E948C22BE016F5F29
:103B10007F4FC8010E947B1CC801A196CDBFDEBFAC
:103B2000DF91CF911F910F91FF90EF90DF9008955B
:103B3000CF92DF92EF92FF920F931F93CF93DF9379
:103B4000CDB7DEB72997CDBFDEBF8C01E62EDC01F5
:103B500013968C911397882341F0ED91FC9102808C
:103B6000F381E02DC801199556C0F8014281423019
:103B700019F56894CC24C3F8D12C6894FF24F7F885
:103B80008E2D8F2151F0D801ED91FC910280F381AF
:103B9000E02D61E3C801199509C0D801ED91FC91B0
:103BA0000280F381E02D60E3C8011995F694B1E03D
:103BB000CB1AD10829F72FC04031F9F462956F7004
:103BC0000190F081E02D0280F381E02D6A3010F049
:103BD000695C01C0605DC80119956E2D6F70D801D8
:103BE000ED91FC910280F381E02D6A3010F0695C68
:103BF00001C0605DC80119950EC050E0BE016F5F45
:103C00007F4F8E2D90E00E94B922BE016F5F7F4FE3
:103C1000C8010E947B1CC8012996CDBFDEBFDF9181
:103C2000CF911F910F91FF90EF90DF90CF9008956B
:103C3000DC015096ED91FC915197808154964C9106
:103C40005497842329F009C02150310919F412C076
:103C500021E23EE490819423B9F3908156968C91B1
:103C60005697892B80831E96ED91FC911F97608358
:103C700081E0089580E00895CF93DF93FC01C18D2A
:103C8000D28D28813981A38DB48D4D915C912417FB
:103C90003507E9F3A789B08D0D90BC91A02DA20F37
:103CA000B31F8C912F5F3F4F288339832436310512
:103CB00028F0018CF28DE02D1082118290E0DF91CE
:103CC000CF910895CF93DF93EC01A98DBA8DEB8D41
:103CD000FC8D81E04D915C91208131814217530729
:103CE00009F480E0DF91CF910895DC01ED91FC9122
:103CF0000280F381E02D6CE019950895EF92FF9218
:103D00000F931F93CF93DF93EC017B018A010E94F5
:103D10006D1CA801B701CE0108960E94B41B8CEA65
:103D200090E288839983003A88E0180769F480ED6F
:103D300091E38F8B988F82EC91E3898F9A8F84EB3C
:103D400091E38B8F9C8F64C0003BE8E01E0769F411
:103D50008EEC91E38F8B988F80EC91E3898F9A8F13
:103D600082EB91E38B8F9C8F53C0003AF9E01F07E1
:103D700069F48CEC91E38F8B988F8EEB91E3898FB4
:103D80009A8F80EB91E38B8F9C8F42C0003B89E040
:103D9000180769F48AEC91E38F8B988F8CEB91E391
:103DA000898F9A8F8EEA91E38B8F9C8F31C0003A76
:103DB000EAE01E0769F488EC91E38F8B988F8AEB19
:103DC00091E3898F9A8F8CEA91E38B8F9C8F20C02F
:103DD000003BFAE01F0769F486EC91E38F8B988F24
:103DE00088EB91E3898F9A8F8AEA91E38B8F9C8F7E
:103DF0000FC0003A1B4061F484EC91E38F8B988FE5
:103E000086EB91E3898F9A8F88EA91E38B8F9C8F61
:103E10000F89188D84E690E00E94B01BF801808322
:103E20009183E98DFA8D10821182EB8DFC8D1082C9
:103E30001182DF91CF911F910F91FF90EF90089524
:103E40001F920F920FB60F9211240BB60F922F9361
:103E50003F938F939F93EF93FF932091A008E0915E
:103E6000D031F091D1318091B4319091B531E80FDA
:103E7000F91F20838091B4319091B5310196843639
:103E8000910560F48093B4319093B5312091C231A3
:103E90003091C33182179307F1F40CC01092B43102
:103EA0001092B5318091C2319091C3311816190624
:103EB00091F40EC001968436910528F48093C231A6
:103EC0009093C33108C01092C2311092C33103C025
:103ED00081E090E0F3CFFF91EF919F918F913F911F
:103EE0002F910F900BBE0F900FBE0F901F90189543
:103EF0001F920F920FB60F9211240BB60F922F93B1
:103F00003F938F939F93EF93FF932091B008E0919D
:103F1000CE31F091CF318091B2319091B331E80F31
:103F2000F91F20838091B2319091B331019684368C
:103F3000910560F48093B2319093B3312091C031F8
:103F40003091C13182179307F1F40CC01092B23155
:103F50001092B3318091C0319091C1311816190679
:103F600091F40EC001968436910528F48093C031F7
:103F70009093C13108C01092C0311092C13103C07A
:103F800081E090E0F3CFFF91EF919F918F913F916E
:103F90002F910F900BBE0F900FBE0F901F90189592
:103FA0001F920F920FB60F9211240BB60F922F9300
:103FB0003F938F939F93EF93FF932091A009E091FC
:103FC000CC31F091CD318091B0319091B131E80F89
:103FD000F91F20838091B0319091B13101968436E0
:103FE000910560F48093B0319093B1312091BE314E
:103FF0003091BF3182179307F1F40CC01092B031A9
:104000001092B1318091BE319091BF3118161906CE
:1040100091F40EC001968436910528F48093BE3148
:104020009093BF3108C01092BE311092BF3103C0CF
:1040300081E090E0F3CFFF91EF919F918F913F91BD
:104040002F910F900BBE0F900FBE0F901F901895E1
:104050001F920F920FB60F9211240BB60F922F934F
:104060003F938F939F93EF93FF932091B009E0913B
:10407000CA31F091CB318091AE319091AF31E80FE0
:10408000F91F20838091AE319091AF310196843633
:10409000910560F48093AE319093AF312091BC31A3
:1040A0003091BD3182179307F1F40CC01092AE31FC
:1040B0001092AF318091BC319091BD311816190624
:1040C00091F40EC001968436910528F48093BC319A
:1040D0009093BD3108C01092BC311092BD3103C025
:1040E00081E090E0F3CFFF91EF919F918F913F910D
:1040F0002F910F900BBE0F900FBE0F901F90189531
:104100001F920F920FB60F9211240BB60F922F939E
:104110003F938F939F93EF93FF932091A00AE09199
:10412000C831F091C9318091AC319091AD31E80F37
:10413000F91F20838091AC319091AD310196843686
:10414000910560F48093AC319093AD312091BA31F8
:104150003091BB3182179307F1F40CC01092AC314F
:104160001092AD318091BA319091BB311816190679
:1041700091F40EC001968436910528F48093BA31EB
:104180009093BB3108C01092BA311092BB3103C07A
:1041900081E090E0F3CFFF91EF919F918F913F915C
:1041A0002F910F900BBE0F900FBE0F901F90189580
:1041B0001F920F920FB60F9211240BB60F922F93EE
:1041C0003F938F939F93EF93FF932091B00AE091D9
:1041D000C631F091C7318091AA319091AB31E80F8F
:1041E000F91F20838091AA319091AB3101968436DA
:1041F000910560F48093AA319093AB312091B8314E
:104200003091B93182179307F1F40CC01092AA31A2
:104210001092AB318091B8319091B93118161906CE
:1042200091F40EC001968436910528F48093B8313C
:104230009093B93108C01092B8311092B93103C0CF
:1042400081E090E0F3CFFF91EF919F918F913F91AB
:104250002F910F900BBE0F900FBE0F901F901895CF
:104260001F920F920FB60F9211240BB60F922F933D
:104270003F938F939F93EF93FF932091A00BE09137
:10428000C431F091C5318091A8319091A931E80FE6
:10429000F91F20838091A8319091A931019684362D
:1042A000910560F48093A8319093A9312091B631A3
:1042B0003091B73182179307F1F40CC01092A831F6
:1042C0001092A9318091B6319091B7311816190624
:1042D00091F40EC001968436910528F48093B6318E
:1042E0009093B73108C01092B6311092B73103C025
:1042F00081E090E0F3CFFF91EF919F918F913F91FB
:104300002F910F900BBE0F900FBE0F901F9018951E
:104310000F931F93CF93DF93CDB7DEB7EA97CDBF4F
:10432000DEBFF8940E941B06E0E6F6E080E8868394
:10433000818382E08093B4009DEF88ED08B618BEBB
:1043400084BF9093800008BE40EA59E060E070E0CE
:10435000CE0101960E947E1E40EB58E061E070E0C5
:10436000CE014E960E947E1E67E0CE0101960E940D
:10437000B21C8C0168EB70E20E947B1C66E0C801F5
:104380000E94B21C66E00E94B21C82E190E00E9492
:10439000AD1B8E010F5F1F4F28EE33E041E067ED4C
:1043A00070E20E94F60586E190E00E94AD1B035E7C
:1043B0001F4F28EC30E044E062EE70E20E944A02B7
:1043C00087E08093A20078940E94751580E090E0C9
:1043D000EA96CDBFDEBFDF91CF911F910F91089577
:1043E0000F931F930AE010E020E030E040E050E03F
:1043F00060E270E082ED91E30E947E1B1F910F91BD
:10440000089597FB072E16F4009407D077FD09D086
:104410000E944E2207FC05D03EF4909581959F4F57
:104420000895709561957F4F0895A1E21A2EAA1BF9
:10443000BB1BFD010DC0AA1FBB1FEE1FFF1FA21754
:10444000B307E407F50720F0A21BB30BE40BF50B51
:10445000661F771F881F991F1A9469F760957095DA
:10446000809590959B01AC01BD01CF010895EE0FA1
:10447000FF1F881F8BBF0790F691E02D1994A29F14
:10448000B001B39FC001A39F700D811D1124911D28
:10449000B29F700D811D1124911D0895AA1BBB1B95
:1044A00051E107C0AA1FBB1FA617B70710F0A61B34
:1044B000B70B881F991F5A95A9F780959095BC0155
:1044C000CD010895FB01DC0102C001900D92415025
:1044D0005040D8F70895DC0101C06D934150504021
:1044E000E0F70895FB01DC014150504048F0019095
:1044F0000D920020C9F701C01D9241505040E0F7D5
:104500000895BB274A3031F4992322F4BDE29095F7
:1045100081959F4F0C94C5222532310520F422301D
:1045200010F00C949722FA011082CA010895BB275B
:10453000FA01A62F6217710581059105330B30FB37
:1045400066F0AA27660F771F881F991FAA1FA21758
:1045500010F0A21B63953850A9F7A05DAA3308F0AC
:10456000A95DA19336F7B111B1931082CA010C94E1
:10457000DE224532510520F4423010F00C94C42262
:10458000FB011082CB010895BB27FB015527AA2709
:10459000880F991FAA1FA41710F0A41B83955051D0
:1045A000B9F7A05DAA3308F0A95DA193009779F748
:1045B000B111B1931192CB010C94DE22DC01FC010C
:1045C000672F71917723E1F7329704C07C916D9347
:1045D00070836291AE17BF07C8F30895F894FFCFB8
:1045E000FF0FFFFFFFFF00000000EF01A71A4D6F54
:1045F000746F722000205369676E616C2050200038
:1046000020492000206573756D2000204420002083
:1046100050574D20252000746869732073686F75AA
:104620006C64206F6E6C7920617070656172206FB0
:104630006E63650050574D2073657474696E672012
:10464000284D31290020284D322920002074696D21
:1046500065200000000000DA04A71A49444C450018
:1046600000000000B31BA71A00000000641C601BC0
:10467000551B371B6B1C6C1C00000000641CB31B1B
:10468000691C661C6B1C6C1C00000000641C181E5E
:10469000621E3C1E6B1C751E4672656552544F535C
:1046A00020586D6567612054657374696E6720508A
:1046B000726F6772616D004D4F544F5220544153D9
:0E46C0004B00464F4C4C4F5720494E53540070
:00000001FF
