S01600004652454552544F535F5348454C4C2E73726563CD
S11300000C94E2010C9413020C9413020C9413024A
S11300100C9413020C9413020C9413020C94130208
S11300200C9413020C9413020C9413020C941302F8
S11300300C9413020C9413020C9428090C94550983
S11300400C9482090C94AF090C94DC090C94090AF1
S11300500C94360A0C94630A0C94900A0C94BD0A0E
S11300600C9413020C94E8210C9413020C941302C4
S11300700C9440220C9413020C9413020C9413025B
S11300800C9413020C9413020C9413020C94130298
S11300900C9413020C9413020C9413020C94130288
S11300A00C9413020C9413020C9413020C94130278
S11300B00C9413020C9413020C9413020C94AC0CC5
S11300C00C94D90C0C94060D0C94330D0C94600D07
S11300D00C948D0D0C94BA0D0C94E70D0C944714EC
S11300E00C94140E0C9413020C9448230C941302D5
S11300F00C9413020C94A0230C9413020C9413027A
S11301000C9413020C9413020C9413020C94130217
S11301100C9413020C9413020C9413020C94130207
S11301200C9413020C9413020C9413020C941302F7
S11301300C9413020C94EA0A0C94170B0C94440BC1
S11301400C94710B0C949E0B0C94CB0B0C94F80B2D
S11301500C94250C0C94520C0C947F0C0C941302EC
S11301600C9498220C9413020C9413020C94F02215
S11301700C9413020C9413020C9413020C941302A7
S11301800C9413020C9413020C9413020C94130297
S11301900C9413020C9413020C9413020C94130287
S11301A00C9413020C9413020C9413020C94130277
S11301B00C94410E0C946E0E0C949B0E0C94C80E71
S11301C00C94F50E0C94220F0C9413020C9413024D
S11301D00C9413020C9413020C9413020C94F82341
S11301E00C9413020C9413020C9413020C94130237
S11301F00C9413020C9413020C9413024D1060100F
S1130200731086109910AC10BF10891F8C1F8F1F9C
S1130210921F951F981F9A1FAB1FB31FBD1FBB1FB3
S1130220084AD73B3BCE016E84BCBFFDC12F3D6C59
S113023074319ABD56833DDA3D00C77F11BED9E4BF
S1130240BB4C3E916BAAAABE000000803F05A84C9F
S1130250CDB2D44EB93836A9020C50B9918688086B
S11302603CA6AAAA2ABE000000803F000C94D31624
S11302700C94981F0C94281E0C94DF010C94FB041E
S11302800C946F1D0C948F1F0C941D1E0C94951FC1
S11302900C94AB1F0C94E0200C94BB1F0C942C1FEB
S11302A00C943D210C94FF1D0C94BD1F0C949910CB
S11302B00C94311F0C94891F0C947B1E0C94331FD7
S11302C00C94921F0C942E1F0C94AE240C94861044
S11302D00C9460100C9404210C944D100C948C1FFD
S11302E00C942A210C9473100C94AC100C94B31F2E
S11302F00C949A1F0C94BF100C94D7060C94341FC2
S1130300526573657474696E67004552524F52208A
S1130310696E207461736B20004552524F52206302
S113032072656174696E67207461736B20002C20A0
S1130330737461636B20617420307800206372658C
S113034061746564005461736B20000909002F0017
S113035049444C45090930092D0900092D2D2D2D3D
S113036000092D2D2D2D2D2D2D2D2D2D002D2D2D37
S11303702D09092D2D2D2D092D2D2D2D2D00095241
S1130380756E730009467265652F546F74616C0055
S11303904E616D6509095072692E09537461746563
S11303A00009537461636B005461736B0909202065
S11303B0092000090009002F0009000900000E941B
S11303C0951CAE2411241FBECFEFCDBFDFE3DEBFEB
S11303D000E00CBF11E2A0E0B0E2ECE3F2E500E0E3
S11303E00BBF02C007900D92A430B107D9F722E3E6
S11303F0A4E0B1E201C01D92A631B207E1F711E019
S1130400C2EED1E000E006C021970109802FFE0171
S11304100E946528C13ED10780E00807A9F70E9421
S113042050240C941C290C940000FC01618B728BE9
S1130430438B548B258B368B0895FC01678B708F0F
S1130440418F528F238F348F0895FC01658F768FEF
S113045008956536710534F024E630E0FC0125ABDF
S113046036AB0895FC0165AB76AB0895FC0125A974
S113047036A9261737071CF427AB30AF0895FC01C3
S113048067AB70AF0895CF93DF93EC014E875F871E
S1130490688B613399F424EF31E041E060E00E941D
S11304A03A1024EF31E042E060E0CE0107960E946A
S11304B03A1081E090E08FA398A714C0623391F4BE
S11304C024EF31E043E060E00E943A1024EF31E091
S11304D044E060E0CE0107960E943A108FEF9FEF50
S11304E08FA398A71BA61CA619AA1AAA198A1A8A46
S11304F01B8A1C8A1D8A1E8A1F8A188E198E1A8EC0
S11305001B8E1C8E1DAA1EAA60E070E0CE010E9404
S1130510360219AE1AAE1BAE1CAE1F8E18A21DA257
S11305201EA219A21AA21BA21CA281E090E08D8F28
S11305309E8FDF91CF910895FC0161AF72AF089552
S1130540FC0163AF74AF0895FC01678F70A3089535
S1130550FC0165A376A30895FC0161A372A3089529
S1130560FC0163A374A308955F926F927F928F92AC
S11305709F92AF92BF92CF92DF92EF92FF920F932E
S11305801F93CF93DF938C01EB015E2C6F8D78A1C9
S113059089A19AA1681B790B69A77AA7EDA1FEA18D
S11305A08BA19CA1E81BF90BEFA7F8AB8BA59CA52D
S11305B0860F971F8BA79CA7A9ADBAADA817B9073B
S11305C01CF4ABA7BCA708C0B195A195B1098A17C3
S11305D09B0714F4ABA7BCA789A99AA98E0F9F1FE8
S11305E089AB9AABABADBCADA817B9071CF4A9ABEA
S11305F0BAAB08C0B195A195B1098A179B0714F449
S1130600A9ABBAAB1DA61EA61BAA1CAAC42ED12C2C
S113061030E0AD8CBE8CAB89BC898BA59CA5A89F12
S1130620A001A99F500DB89F500D1124429FC001F5
S1130630439F900D529F900D1124A989BA896A9FF6
S1130640A0016B9F500D7A9F500D11244C9DB00159
S11306504D9D700D5C9D700D1124860F971FB50183
S11306600E942F28EFA8F8ACE616F70654F0882766
S113067099278E199F093B01681779071CF43C01DF
S113068001C037018FA098A4698D7A8D49A95AA910
S1130690649FC001659F900D749F900D1124829FEB
S11306A0A001839F500D929F500D11242F89388DE6
S11306B0E29FC001E39F900DF29F900D11248C9D49
S11306C090018D9D300D9C9D300D1124420F531FC0
S11306D0489DC001499D900D589D900D1124B50170
S11306E00E942F28CDA8DEA85601AE18BF08A61672
S11306F0B7063CF0EC18FD085B016E157F050CF4A1
S1130700570193012A0D3B1D289DC001299D900D81
S1130710389D900D1124C816D9064CF02227332792
S11307202C193D096C01821793070CF469015520BB
S113073039F11C141D0494F464E6CE010E940311E3
S1130740C601DD2024F4882799278C199D0964E6C5
S1130750681BCE0107960E94031134C0C601DD2038
S113076024F4882799278C199D0964E6681BCE0117
S11307700E94031164E6CE0107960E94031122C071
S11307801C141D0484F4B601DD2024F466277727A5
S11307906C197D09CE010E94031160E0CE01079619
S11307A00E9403110FC060E0CE010E940311B60144
S11307B0DD2024F4662777276C197D09CE0107967E
S11307C00E940311F801C082D18262827382A482E2
S11307D0B58289A99AA9868397838BA59CA58087CE
S11307E09187C801DF91CF911F910F91FF90EF90F6
S11307F0DF90CF90BF90AF909F908F907F906F903D
S11308005F900895FC014423F9F06630E8F587E031
S113081090E0062E02C0880F991F0A94E2F78283A3
S113082084E090E0062E02C0880F991F0A94E2F734
S11308308093B0008089887F211102C090E001C0BC
S113084090E4892B808B0BC0673000F583E090E047
S1130850062E02C0880F991F0A94E2F7828383E070
S113086090E002C0880F991F6A95E2F78093B00068
S11308709089987F9360211102C080E001C080E4D8
S1130880982B908B81E0089580E0089580E008958E
S11308908230A9F0843021F1811133C0E0E8F1E025
S11308A0608389E08087442371F16E5F618381E016
S11308B0818780858061282B208781E00895E0E886
S11308C0F1E0628389E082874423F9F06E5F6383F9
S11308D081E0838782858061282B228781E00895C7
S11308E0E0E8F1E0648389E08487442381F06E5F6B
S11308F0658381E0858784858061282B248781E056
S1130900089580E0089581E0089581E0089581E0EC
S113091008958F92AF92BF92CF92DF92EF92FF929F
S11309200F931F93CF93DF93CDB7DEB7122FDF84DE
S1130930F888242F4E2D0E940204882381F02C2D48
S11309404E2D602F812F0E944804882341F0982D5A
S11309509066F5019383D6A2F7A291E09083DF918C
S1130960CF911F910F91FF90EF90DF90CF90BF90A8
S1130970AF908F9008958F92AF92BF92CF92DF92F3
S1130980EF92FF920F931F93CF93DF93CDB7DEB710
S1130990122FDF84F888242F4E2D0E94020488230E
S11309A081F02C2D4E2D602F812F0E944804882326
S11309B041F0982D9066F5019383D6A2F7A291E0B9
S11309C09083DF91CF911F910F91FF90EF90DF9073
S11309D0CF90BF90AF908F900895FC0190A121A17A
S11309E0892F90E0922B0895FC0190A121A1892FD9
S11309F090E0922B0895CF93DF93CDB7DEB7C6591D
S1130A00D109CDBFDEBF8C01FC014681578161E372
S1130A10CE0101960E944302F8014681578162E3A8
S1130A20CE01CE960E94430264E670E0CE010196A8
S1130A300E94250264E670E0CE01CE960E94250253
S1130A4020E030E041E050E06EE170E0CE0101963C
S1130A500E94150220E030E041E050E06EE170E0D9
S1130A60CE01CE960E94150220E030E04AE050E02C
S1130A706CE370E0CE0101960E941D0220E030E09C
S1130A804AE050E06CE370E0CE01CE960E941D0275
S1130A9062E370E0CE0101960E94290262E370E0F5
S1130AA0CE01CE960E9429026EE170E0CE0101963D
S1130AB00E9436026EE170E0CE01CE960E943602AC
S1130AC064EF71E0CE0101960E949C0264EF71E034
S1130AD0CE01CE960E949C0260ED77E0CE01019695
S1130AE00E94A00260ED77E0CE01CE960E94A002A3
S1130AF00E947218C157DF4F688379838A839B836E
S1130B00CF58D040F801068117816AE070E2C8012D
S1130B100E94431F66E0C8010E947A1F6091002072
S1130B207091012080911E2190911F21681B790BE7
S1130B30072E000C880B990B0E944D266B017C013B
S1130B400091022010910320809120219091212175
S1130B50081B190BB801012E000C880B990B0E947D
S1130B604D264B015C01A7019601C701B6010E9405
S1130B7047272B013C01A5019401C501B4010E9442
S1130B804727CD56DF4F688379838A839B83C35974
S1130B90D040CD56DF4F288139814A815B81C359CA
S1130BA0D040C301B2010E94C0240E94C2270E9407
S1130BB015262B013C016093062170930721A501A2
S1130BC09401C701B6010E943F250E9415266B01BE
S1130BD07C01CB018419950980930421909305210C
S1130BE0101611063CF0519441945108409206218C
S1130BF05092072160E070E0CE0101960E94AC02A1
S1130C0060E070E0CE01CE960E94AC0260910621B5
S1130C1070910721CE0101960E94A40260910621E1
S1130C2070910721CE01CE960E94A40280911C21CE
S1130C3090911D21B601681B790BCE0101960E948B
S1130C40B00280911C2190911D21B601681B790B83
S1130C50CE01CE960E94B0026091042170910521CC
S1130C60CE0101960E94A802609104217091052191
S1130C70CE01CE960E94A802EE24E39400E021E087
S1130C8041E0BE016F5F7F4FCE0185589F4F0E94A8
S1130C90B40221E041E0BE01625C7F4FCE018B577C
S1130CA09F4F0E94B402ED968EAD9FADED97809359
S1130CB01A2190931B21CB57DF4F88819981C55806
S1130CC0D0408093182190931921EF968EAD9FAD5B
S1130CD0EF9780930E2190930F21C957DF4F88819E
S1130CE09981C758D04080930C2190930D21C1580D
S1130CF0DF4F88819981CF57D04080930A21909308
S1130D000B21C757DF4F88819981C958D040809300
S1130D10082190930921CD57DF4F88819981C358C9
S1130D20D0408093162190931721C357DF4F8881B9
S1130D309981CD58D0408093142190931521CF5799
S1130D40DF4F88819981C158D040809312219093BC
S1130D501321C557DF4F88819981CB58D0408093A8
S1130D601021909311210E947218C157DF4F68839C
S1130D7079838A839B83CF58D0404AE050E060E077
S1130D8070E0CE0181579F4F0E940B1AC7CE0F937C
S1130D901F93CF93DF93EC010E94A81C8BE290E297
S1130DA088839983DF91CF911F910F910895CF93F9
S1130DB0DF93CDB7DEB72897CDBFDEBF3C010E94DD
S1130DC0721869837A838B839C836AE070E080E085
S1130DD090E00E94781A55245A940F2EF4E12F2E95
S1130DE0312CF02D0F2EF4E14F2EF02DF3018485DC
S1130DF0882321F0813009F446C0A7C15F925F9235
S1130E006894882483F80F2EF0E4AF2EF9E0BF2E07
S1130E10F02DC12CE12C0CE620E040E064E080E6FB
S1130E2096E00E94BB045F925F920F2EFAE08F2E31
S1130E30F02D0F2EA12CFBE0BF2EF02D04E722E0B5
S1130E4040E064E080E896E00E94890480E499E050
S1130E500E94F404F301878B908F80E09BE00E9452
S1130E60ED04F301818F928F13A614A615AA16AA76
S1130E7017AA10AE61E0C3010E94A41C0F900F904A
S1130E800F900F9062C180E499E00E94F404919560
S1130E9081959109F301838B948B80E09BE00E9400
S1130EA0ED04F301858B968BE388F4882789308DD4
S1130EB0E21AF30AEE0CFF1CEE0CFF1CE38EF48E18
S1130EC0218D328D821B930B8C01000F111F000F9B
S1130ED0111F058F168FC8018E199F09878F90A344
S1130EE0C680D7806FE270E2C6010E94431FB7013B
S1130EF0C6010E94C11F7C0167E770E20E94431F84
S1130F00B801C7010E94C11F66E00E947A1FF30165
S1130F10838D948DB1010E942F287B0161A372A35C
S1130F20858D968DB1010E942F288B0163A374A334
S1130F30C680D7806BE470E2C6010E94431F63E061
S1130F40C6010E947A1FB7010E94C11F6C0167E7A6
S1130F5070E20E94431FB70175956795C6010E9410
S1130F60C11F7C0163E570E20E94431FB801C70101
S1130F700E94C11F7C0167E770E20E94431FB80111
S1130F8075956795C7010E94C11F66E00E947A1F8C
S1130F90F30123A134A181A192A18901080F191F92
S1130FA0112314F4095F1F4F15950795159507959F
S1130FB015950795F30105A316A3409E5001419E84
S1130FC0B00C1124A1A6B2A6281B390BC9016CE4EC
S1130FD078E00E942F286B0167A370A7429EC0018E
S1130FE0439E900D11246CE478E00E942F287B012D
S1130FF063A774A7868097806AE570E2C4010E94A3
S1131000431F63E0C4010E947A1FB8010E94C11FFC
S11310108C0163E670E20E94431FB501C8010E947F
S1131020C11F8C0160E770E20E94431FB601C80132
S11310300E94C11F8C0169E770E20E94431FB7013F
S1131040C8010E94C11F66E00E947A1FF30103A534
S113105014A5159507951595079587A590A9080FCB
S1131060191F07A710AB61A572A5072E000C880BEA
S1131070990B0E944D264B015C01B801012E000C16
S1131080880B990B0E944D266D837E838F839887EE
S11310900E949E259B01AC01C501B4010E94472713
S11310A00E9415266B017C01F30161AB72AB6D816B
S11310B07E818F8198850E94B4279B01AC01C50174
S11310C0B4010E9447270E941526F30163AB74AB59
S11310D0D594C794D594C79425A936A9C20ED31E16
S11310E0C5AAD6AAAB01559547955595479587A9A5
S11310F090ADBA01680F791F67AB70AFC092202121
S1131100D092212160931E2170931F2100931C21F2
S113111010931D2183899489878B908F8589968963
S1131120818F928F86859785A089B1890196A11DAB
S1131130B11D86879787A08BB18B45E050E060E0B6
S113114070E0CE0101960E940B1AF3018685978503
S1131150A089B1890196A11DB11D86879787A08BAF
S1131160B18B4AE050E060E070E0CE0101960E944D
S11311700B1A3CCE0F931F93CF93DF93EC010E9485
S1131180A81C8DE890E288839983DF91CF911F9109
S11311900F9108950F93CF93DF931F92CDB7DEB7CE
S11311A02FB72983F8941BBEFC0108ED04BF6083AC
S11311B089818FBF0F90DF91CF910F910895CF93C5
S11311C0DF931F92CDB7DEB78FB78983F894E0E53C
S11311D0F0E08BEC8283808188608083818183FF4F
S11311E0FDCFE0E5F0E082EC85838081806180833F
S11311F0818184FFFDCFE0E4F0E06081687F64607A
S1131200608388ED84BF80E490E00E94CA08E0E532
S1131210F0E080818B7F808389818FBF0F90DF9185
S1131220CF910895CF93DF931F92CDB7DEB79FB7C9
S11312309983F8949981E82FF0E0E059FF4F609585
S11312408081682360839FBF0F90DF91CF910895C1
S11312501F920F920FB60F9211240BB60F922F9379
S11312603F934F935F936F937F938F939F93AF932A
S1131270BF93EF93FF93E0916621F091672130973C
S113128009F01995FF91EF91BF91AF919F918F91C3
S11312907F916F915F914F913F912F910F900BBE72
S11312A00F900FBE0F901F9018951F920F920FB6BC
S11312B00F9211240BB60F922F933F934F935F938A
S11312C06F937F938F939F93AF93BF93EF93FF930A
S11312D0E0916421F0916521309709F01995FF910F
S11312E0EF91BF91AF919F918F917F916F915F919A
S11312F04F913F912F910F900BBE0F900FBE0F9007
S11313001F9018951F920F920FB60F9211240BB6CF
S11313100F922F933F934F935F936F937F938F938A
S11313209F93AF93BF93EF93FF93E0916221F0916A
S11313306321309709F01995FF91EF91BF91AF9117
S11313409F918F917F916F915F914F913F912F91D9
S11313500F900BBE0F900FBE0F901F9018951F9209
S11313600F920FB60F9211240BB60F922F933F9347
S11313704F935F936F937F938F939F93AF93BF9399
S1131380EF93FF93E0916021F0916121309709F090
S11313901995FF91EF91BF91AF919F918F917F919B
S11313A06F915F914F913F912F910F900BBE0F90D2
S11313B00FBE0F901F9018951F920F920FB60F92A9
S11313C011240BB60F922F933F934F935F936F9318
S11313D07F938F939F93AF93BF93EF93FF93E0918A
S11313E05E21F0915F21309709F01995FF91EF91FB
S11313F0BF91AF919F918F917F916F915F914F9129
S11314003F912F910F900BBE0F900FBE0F901F9026
S113141018951F920F920FB60F9211240BB60F92CC
S11314202F933F934F935F936F937F938F939F93E8
S1131430AF93BF93EF93FF93E0915C21F0915D2113
S1131440309709F01995FF91EF91BF91AF919F915A
S11314508F917F916F915F914F913F912F910F9059
S11314600BBE0F900FBE0F901F9018951F920F92F6
S11314700FB60F9211240BB60F922F933F934F93F5
S11314805F936F937F938F939F93AF93BF93EF93E8
S1131490FF93E0915A21F0915B21309709F019955F
S11314A0FF91EF91BF91AF919F918F917F916F9138
S11314B05F914F913F912F910F900BBE0F900FBEF4
S11314C00F901F9018951F920F920FB60F92112430
S11314D00BB60F922F933F934F935F936F937F932A
S11314E08F939F93AF93BF93EF93FF93E091582112
S11314F0F0915921309709F01995FF91EF91BF911F
S1131500AF919F918F917F916F915F914F913F9197
S11315102F910F900BBE0F900FBE0F901F90189538
S11315201F920F920FB60F9211240BB60F922F93A6
S11315303F934F935F936F937F938F939F93AF9357
S1131540BF93EF93FF93E0915621F0915721309789
S113155009F01995FF91EF91BF91AF919F918F91F0
S11315607F916F915F914F913F912F910F900BBE9F
S11315700F900FBE0F901F9018951F920F920FB6E9
S11315800F9211240BB60F922F933F934F935F93B7
S11315906F937F938F939F93AF93BF93EF93FF9337
S11315A0E0915421F0915521309709F01995FF915C
S11315B0EF91BF91AF919F918F917F916F915F91C7
S11315C04F913F912F910F900BBE0F900FBE0F9034
S11315D01F9018951F920F920FB60F9211240BB6FD
S11315E00F922F933F934F935F936F937F938F93B8
S11315F09F93AF93BF93EF93FF93E0915221F091A8
S11316005321309709F01995FF91EF91BF91AF9154
S11316109F918F917F916F915F914F913F912F9106
S11316200F900BBE0F900FBE0F901F9018951F9236
S11316300F920FB60F9211240BB60F922F933F9374
S11316404F935F936F937F938F939F93AF93BF93C6
S1131650EF93FF93E0915021F0915121309709F0DD
S11316601995FF91EF91BF91AF919F918F917F91C8
S11316706F915F914F913F912F910F900BBE0F90FF
S11316800FBE0F901F9018951F920F920FB60F92D6
S113169011240BB60F922F933F934F935F936F9345
S11316A07F938F939F93AF93BF93EF93FF93E091B7
S11316B04E21F0914F21309709F01995FF91EF9148
S11316C0BF91AF919F918F917F916F915F914F9156
S11316D03F912F910F900BBE0F900FBE0F901F9054
S11316E018951F920F920FB60F9211240BB60F92FA
S11316F02F933F934F935F936F937F938F939F9316
S1131700AF93BF93EF93FF93E0914C21F0914D2160
S1131710309709F01995FF91EF91BF91AF919F9187
S11317208F917F916F915F914F913F912F910F9086
S11317300BBE0F900FBE0F901F9018951F920F9223
S11317400FB60F9211240BB60F922F933F934F9322
S11317505F936F937F938F939F93AF93BF93EF9315
S1131760FF93E0914A21F0914B21309709F01995AC
S1131770FF91EF91BF91AF919F918F917F916F9165
S11317805F914F913F912F910F900BBE0F900FBE21
S11317900F901F9018951F920F920FB60F9211245D
S11317A00BB60F922F933F934F935F936F937F9357
S11317B08F939F93AF93BF93EF93FF93E09148214F
S11317C0F0914921309709F01995FF91EF91BF915C
S11317D0AF919F918F917F916F915F914F913F91C5
S11317E02F910F900BBE0F900FBE0F901F90189566
S11317F01F920F920FB60F9211240BB60F922F93D4
S11318003F934F935F936F937F938F939F93AF9384
S1131810BF93EF93FF93E0914621F09147213097D6
S113182009F01995FF91EF91BF91AF919F918F911D
S11318307F916F915F914F913F912F910F900BBECC
S11318400F900FBE0F901F9018951F920F920FB616
S11318500F9211240BB60F922F933F934F935F93E4
S11318606F937F938F939F93AF93BF93EF93FF9364
S1131870E0914421F0914521309709F01995FF91A9
S1131880EF91BF91AF919F918F917F916F915F91F4
S11318904F913F912F910F900BBE0F900FBE0F9061
S11318A01F9018951F920F920FB60F9211240BB62A
S11318B00F922F933F934F935F936F937F938F93E5
S11318C09F93AF93BF93EF93FF93E0914221F091E5
S11318D04321309709F01995FF91EF91BF91AF9192
S11318E09F918F917F916F915F914F913F912F9134
S11318F00F900BBE0F900FBE0F901F9018951F9264
S11319000F920FB60F9211240BB60F922F933F93A1
S11319104F935F936F937F938F939F93AF93BF93F3
S1131920EF93FF93E0914021F0914121309709F02A
S11319301995FF91EF91BF91AF919F918F917F91F5
S11319406F915F914F913F912F910F900BBE0F902C
S11319500FBE0F901F9018951F920F920FB60F9203
S113196011240BB60F922F933F934F935F936F9372
S11319707F938F939F93AF93BF93EF93FF93E091E4
S11319803E21F0913F21309709F01995FF91EF9195
S1131990BF91AF919F918F917F916F915F914F9183
S11319A03F912F910F900BBE0F900FBE0F901F9081
S11319B018951F920F920FB60F9211240BB60F9227
S11319C02F933F934F935F936F937F938F939F9343
S11319D0AF93BF93EF93FF93E0913C21F0913D21AE
S11319E0309709F01995FF91EF91BF91AF919F91B5
S11319F08F917F916F915F914F913F912F910F90B4
S1131A000BBE0F900FBE0F901F9018951F920F9250
S1131A100FB60F9211240BB60F922F933F934F934F
S1131A205F936F937F938F939F93AF93BF93EF9342
S1131A30FF93E0913A21F0913B21309709F01995F9
S1131A40FF91EF91BF91AF919F918F917F916F9192
S1131A505F914F913F912F910F900BBE0F900FBE4E
S1131A600F901F9018951F920F920FB60F9211248A
S1131A700BB60F922F933F934F935F936F937F9384
S1131A808F939F93AF93BF93EF93FF93E09138218C
S1131A90F0913921309709F01995FF91EF91BF9199
S1131AA0AF919F918F917F916F915F914F913F91F2
S1131AB02F910F900BBE0F900FBE0F901F90189593
S1131AC01F920F920FB60F9211240BB60F922F9301
S1131AD03F934F935F936F937F938F939F93AF93B2
S1131AE0BF93EF93FF93E0913621F0913721309724
S1131AF009F01995FF91EF91BF91AF919F918F914B
S1131B007F916F915F914F913F912F910F900BBEF9
S1131B100F900FBE0F901F9018951F920F920FB643
S1131B200F9211240BB60F922F933F934F935F9311
S1131B306F937F938F939F93AF93BF93EF93FF9391
S1131B40E0913421F0913521309709F01995FF91F6
S1131B50EF91BF91AF919F918F917F916F915F9121
S1131B604F913F912F910F900BBE0F900FBE0F908E
S1131B701F9018951F920F920FB60F9211240BB657
S1131B800F922F933F934F935F936F937F938F9312
S1131B909F93AF93BF93EF93FF93E0913221F09122
S1131BA03321309709F01995FF91EF91BF91AF91CF
S1131BB09F918F917F916F915F914F913F912F9161
S1131BC00F900BBE0F900FBE0F901F9018951F9291
S1131BD00F920FB60F9211240BB60F922F933F93CF
S1131BE04F935F936F937F938F939F93AF93BF9321
S1131BF0EF93FF93E0913021F0913121309709F078
S1131C001995FF91EF91BF91AF919F918F917F9122
S1131C106F915F914F913F912F910F900BBE0F9059
S1131C200FBE0F901F9018951F920F920FB60F9230
S1131C3011240BB60F922F933F934F935F936F939F
S1131C407F938F939F93AF93BF93EF93FF93E09111
S1131C502E21F0912F21309709F01995FF91EF91E2
S1131C60BF91AF919F918F917F916F915F914F91B0
S1131C703F912F910F900BBE0F900FBE0F901F90AE
S1131C8018951F920F920FB60F9211240BB60F9254
S1131C902F933F934F935F936F937F938F939F9370
S1131CA0AF93BF93EF93FF93E0912C21F0912D21FB
S1131CB0309709F01995FF91EF91BF91AF919F91E2
S1131CC08F917F916F915F914F913F912F910F90E1
S1131CD00BBE0F900FBE0F901F9018951F920F927E
S1131CE00FB60F9211240BB60F922F933F934F937D
S1131CF05F936F937F938F939F93AF93BF93EF9370
S1131D00FF93E0912A21F0912B21309709F0199546
S1131D10FF91EF91BF91AF919F918F917F916F91BF
S1131D205F914F913F912F910F900BBE0F900FBE7B
S1131D300F901F9018951F920F920FB60F921124B7
S1131D400BB60F922F933F934F935F936F937F93B1
S1131D508F939F93AF93BF93EF93FF93E0912821C9
S1131D60F0912921309709F01995FF91EF91BF91D6
S1131D70AF919F918F917F916F915F914F913F911F
S1131D802F910F900BBE0F900FBE0F901F901895C0
S1131D901F920F920FB60F9211240BB60F922F932E
S1131DA03F934F935F936F937F938F939F93AF93DF
S1131DB0BF93EF93FF93E0912621F0912721309771
S1131DC009F01995FF91EF91BF91AF919F918F9178
S1131DD07F916F915F914F913F912F910F900BBE27
S1131DE00F900FBE0F901F9018951F920F920FB671
S1131DF00F9211240BB60F922F933F934F935F933F
S1131E006F937F938F939F93AF93BF93EF93FF93BE
S1131E10E0912421F0912521309709F01995FF9143
S1131E20EF91BF91AF919F918F917F916F915F914E
S1131E304F913F912F910F900BBE0F900FBE0F90BB
S1131E401F9018951F920F920FB60F9211240BB684
S1131E500F922F933F934F935F936F937F938F933F
S1131E609F93AF93BF93EF93FF93E0912221F0915F
S1131E702321309709F01995FF91EF91BF91AF910C
S1131E809F918F917F916F915F914F913F912F918E
S1131E900F900BBE0F900FBE0F901F9018951F93BD
S1131EA0CF93DF931F921F92CDB7DEB72FB72A834C
S1131EB0F8941A81282F392F211588E0380749F41E
S1131EC061E083E00E94120964E083E00E94120949
S1131ED04FC0203488E0380749F462E083E00E9470
S1131EE0120964E083E00E94120942C0211589E0CE
S1131EF0380749F461E084E00E94120964E084E058
S1131F000E94120935C0203489E0380749F462E0A0
S1131F1084E00E94120964E084E00E94120928C04F
S1131F2021158AE0380749F461E085E00E9412092E
S1131F3064E085E00E9412091BC020348AE038075F
S1131F4049F462E085E00E94120964E085E00E94A1
S1131F5012090EC021153B4049F461E086E00E945D
S1131F60120964E086E00E94120902C01FBF10C07B
S1131F7080910F328F3F09F4FFCF8FB78983F89494
S1131F809981EEE0F2E381818F5F81839FBF1FBF60
S1131F900F900F90DF91CF911F910895CF92DF9210
S1131FA0EF92FF92CF93DF93EC016B01E12CF12CC4
S1131FB060E874E88EE190E0A70196010E9443284E
S1131FC0CA01B9012FEF3FEF40E050E00E944328DF
S1131FD02115310529F481E08C8321E030E02DC006
S1131FE02230310528F482E08C8322E030E025C0E1
S1131FF02430310528F483E08C8324E030E01DC0D4
S11320002830310528F484E08C8328E030E015C0C2
S11320102034310528F485E08C8320E430E00DC0C1
S11320202F3F310509F028F486E08C8320E031E06D
S113203004C087E08C8320E034E040E050E060E8B6
S113204074E88EE190E00E944328CA01B901A70117
S113205096010E9443282D833E832436310518F4CB
S11320601C821D821E82DF91CF91FF90EF90DF9042
S1132070CF9008950F931F93CF93DF93EC018901C1
S1132080862F90E08730910508F08BC0FC018827EB
S1132090E250FF4F8F4F0C94652880E098E08883CE
S11320A09983E0E4F6E0308181E090E02FEF240FA3
S11320B002C0880F991F2A95E2F7832B808371C091
S11320C080E498E088839983E0E4F6E0308181E05D
S11320D090E023E0240F02C0880F991F2A95E2F7AD
S11320E0832B80835EC080E099E088839983E0E657
S11320F0F6E0308181E090E02FEF240F02C0880FDA
S1132100991F2A95E2F7832B80834BC080E499E0E2
S113211088839983E0E6F6E0308181E090E023E073
S1132120240F02C0880F991F2A95E2F7832B80831E
S113213038C080E09AE088839983E0E8F6E0308153
S113214081E090E02FEF240F02C0880F991F2A9599
S1132150E2F7832B808325C080E49AE08883998307
S1132160E0E8F6E0308181E090E023E0240F02C053
S1132170880F991F2A95E2F7832B808312C080E091
S11321809BE088839983E0EAF6E0308181E090E087
S11321902FEF240F02C0880F991F2A95E2F7832B93
S11321A080834A83423061F018F4413031F010C02A
S11321B0433049F0443051F00BC080E18B8308C0B8
S11321C080E28B8305C080E48B8302C080E88B832C
S11321D0888199810E944F0FE881F9818181887FEC
S11321E0836081831D821E821C82E881F981808143
S11321F0807F8083B801CE010E94CE0FDF91CF9102
S11322001F910F910895CF93DF93EC012D813E81AF
S1132210A62FB0E00E946D2824E630E040E050E0B4
S11322200E9443288A81E881F981E6FD17C0823043
S113223061F018F4813031F01BC0833049F08430F0
S113224051F016C020AF31AF13C022AF33AF10C06E
S113225024AF35AF0DC026AF37AF0AC0813019F0B7
S1132260823021F005C020AF31AF02C022AF33AFBE
S11322708D819E81E881F98186A397A38B81E88172
S1132280F981E6FD04C09181892B818304C0918189
S11322908073892B8183E881F9818081807F9C818F
S11322A0892B8083DF91CF9108950F931F93CF9350
S11322B0DF93EC010E946C188091682181111DC08C
S11322C0ADE6B1E2E1E7F1E2ED93FC9311971296EA
S11322D01D921C921397A9E6B1E28FEF9FE012962C
S11322E08D939C9313971D921C92119782839383D1
S11322F0A083B18381E080936821209709F45FC0B3
S11323009E012B5F3F4F2496CE3FDF4008F05AC01A
S1132310E0916D21F0916E21ADE6B1E202C0DF01E2
S1132320FC01828193818217930720F4808191813B
S11323300097A9F7C1E2E936FC0709F446C0CD913C
S1132340DC9111978E010B5F1F4F808191818D93DA
S11323509C9382819381821B930B8B30910510F1A6
S1132360BF01620F731FDB0112968D939C93139729
S11323702283338312964D915C9113978DE691E2FB
S113238001C0CD01EC01A881B98112962D913C9137
S1132390139724173507A8F3EB01A883B983DC014D
S11323A06D937C9380910420909105202281338148
S11323B0821B930B809304209093052008C000E0B7
S11323C010E005C000E010E002C000E010E00E9450
S11323D08919C801DF91CF911F910F9108950F932F
S11323E01F93CF93DF93009741F1EC018C010550CB
S11323F011090E946C18F80142815381ADE6B1E2E3
S113240001C0DF01ED91FC911197228133812417E2
S11324103507B8F32597E883F9830D931C9320912E
S11324200420309105208A819B81820F931F809321
S11324300420909305200E948919DF91CF911F9168
S11324400F910895FC010396818392834FEF5FEF10
S1132450BA01438354836583768387839087818716
S1132460928710820895FC01128613860895CF93F3
S1132470DF93FC01DB0121813281E9018C819D81A3
S113248014968D939C9315978181928116968D93C2
S11324909C9317978C819D81EC016E837F83E90166
S11324A06C837D83618372831A96ED93FC931B97EF
S11324B080818F5F8083DF91CF9108950F931F9365
S11324C0CF93DF93EB01088119812A813B810F3F70
S11324D04FEF14072407340731F4DC011996ED910A
S11324E0FC911A971FC0FC013396DC0117964D919D
S11324F05C911897DA014D915D916D917C9104176F
S113250015072607370770F00480F581E02DA481B4
S1132510B5814D915D916D917C9104171507260746
S1132520370790F7A481B581AC83BD831696CD930C
S1132530DC931797EE83FF83C483D5838A879B87B5
S1132540FC0120812F5F2083DF91CF911F910F9198
S11325500895FC01A481B5818681978116968D9397
S11325609C931797A681B7818481958114968D9346
S11325709C931597A285B38511968D919C91129782
S1132580E817F90731F48681978111968D939C930E
S11325901297128613868C9181508C9308958093A0
S11325A014329093153231E1FC013083319722E2E9
S11325B020833197A3E3A08331976083319770839D
S11325C03197108231971082319760E86083319798
S11325D010823197108231971082319762E06083C4
S11325E0319763E06083319764E06083319765E0FD
S11325F06083319766E06083319767E06083319749
S113260068E06083319769E06083319760E16083BB
S113261031973083319732E13083319733E130831E
S1132620319734E13083319735E13083319736E1A6
S11326303083319737E13083319738E130833197F4
S113264039E13083319730E23083319731E230839E
S113265031972083319723E2208331974083319748
S11326605083319726E22083319727E220833197E4
S113267028E22083319729E22083319720E32083C5
S1132680319721E32083899708958CE78093690A21
S11326908FEF8093680A81E08093400A90E19093E1
S11326A0410A8093470AA091D031B091D131CD91A4
S11326B0CDBFDD91DEBFFF91EF91DF91CF91BF914F
S11326C0AF919F918F917F916F915F914F913F91C6
S11326D02F911F910F91FF90EF90DF90CF90BF90BB
S11326E0AF909F908F907F906F905F904F903F90AE
S11326F02F901F900F900CBE0F900BBE0F900FBE2B
S11327000F90089508950F920FB6F8940F920BB698
S11327100F920CB60F921F9211242F923F924F9258
S11327205F926F927F928F929F92AF92BF92CF925D
S1132730DF92EF92FF920F931F932F933F934F9348
S11327405F936F937F938F939F93AF93BF93CF9335
S1132750DF93EF93FF93A091D031B091D1310DB6B7
S11327600D920EB60D920E94A61AA091D031B0918E
S1132770D131CD91CDBFDD91DEBFFF91EF91DF91DE
S1132780CF91BF91AF919F918F917F916F915F9105
S11327904F913F912F911F910F91FF90EF90DF90F8
S11327A0CF90BF90AF909F908F907F906F905F90ED
S11327B04F903F902F901F900F900CBE0F900BBE28
S11327C00F900FBE0F9008950F920FB6F8940F92CA
S11327D00BB60F920CB60F921F9211242F923F92B8
S11327E04F925F926F927F928F929F92AF92BF921D
S11327F0CF92DF92EF92FF920F931F932F933F9309
S11328004F935F936F937F938F939F93AF93BF93F4
S1132810CF93DF93EF93FF93A091D031B091D13157
S11328200DB60D920EB60D920E9488180E94A61A3B
S1132830A091D031B091D131CD91CDBFDD91DEBF2A
S1132840FF91EF91DF91CF91BF91AF919F918F91C4
S11328507F916F915F914F913F912F911F910F91B4
S1132860FF90EF90DF90CF90BF90AF909F908F90AC
S11328707F906F905F904F903F902F901F900F909C
S11328800CBE0F900BBE0F900FBE0F900895E0E0AA
S1132890F9E080A591A58150934880A791A70E9453
S11328A0E4131895CF93DF93EC0188A181110BC039
S11328B088819981892BE1F58A819B810E94611C21
S11328C01A821B8235C0411117C0482F50E08C81F9
S11328D09D810E94902828A18C819D81820F911D49
S11328E08C839D832A813B818217930708F1888119
S11328F099818C839D831CC0482F50E08E819F81D9
S11329000E94902888A190E09195819591092E814B
S11329103F81280F391F2E833F8348815981241713
S1132920350730F42A813B81820F931F8E839F8366
S11329308E8D8F5F8E8FDF91CF910895FC01808102
S113294091810097A1F040A150E026813781240FA6
S1132950351F26833783A281B3812A173B0710F0E2
S113296086839783CB01668177810E94902808959E
S11329700F931F93CF93DF93EC010FB6F8940F924C
S11329808AA11816B4F48B89811105C012C08B89F1
S1132990811104C00EC08E010D5E1F4FC8010E943C
S11329A02D1B81110E94EA1B8AA181508AA318164B
S11329B074F38FEF8AA30F900FBE0FB6F8940F92A3
S11329C089A11816B4F48885811105C012C08885C0
S11329D0811104C00EC08E01085F1F4FC8010E9400
S11329E02D1B81110E94EA1B89A1815089A318160D
S11329F074F38FEF89A30F900FBEDF91CF911F91D6
S1132A000F9108951F93CF93DF93613059F0FC0128
S1132A102389308531112CC011E0211110E02111DE
S1132A2028C001C011E0EC014881598128A130E09F
S1132A306F8D629FC001639F900D1124BA01680FCE
S1132A40791F6A837B831E8E4C835D83821B930B69
S1132A50840F951F8E839F838FEF89A38AA3CE0152
S1132A6008960E942212CE0143960E94221201C0AF
S1132A7010E0812FDF91CF911F9108950F931F9341
S1132A80CF93DF93882301F1062F182F83E290E080
S1132A900E945511EC01892BC9F0109FC00111242B
S1132AA001960E94551188839983892B39F01F8FD1
S1132AB008A361E0CE010E94021508C0CE010E9465
S1132AC0EF11C0E0D0E002C0C0E0D0E0CE01DF9161
S1132AD0CF911F910F910895AF92BF92CF92DF9241
S1132AE0EF92FF920F931F93CF93DF93CDB7DEB78F
S1132AF02997CDBFDEBF7C015B012E833F834887CE
S1132B00598710E06C0188E0C80ED11C0FB6F89408
S1132B100F92F701968D878D9817A8F4402FB50171
S1132B20C7010E945214F7018389882341F0C70129
S1132B3043960E942D1B813011F40E9483130F9041
S1132B400FBE81E056C08E819F81A885B985892BEF
S1132B508A2B8B2B21F40F900FBE80E04AC01111F9
S1132B6005C0CE0101960E946C1B11E00F900FBEB0
S1132B700E946C180FB6F8940F92F70181A18F3F51
S1132B8009F411A2F70182A18F3F09F412A20F9058
S1132B900FBEBE016A5F7F4FCE0101960E947D1B6E
S1132BA0811121C00FB6F8940F92F701968D0F9002
S1132BB00FBE878D981311C04E815F81688579851A
S1132BC0C6010E94031BC7010E94B8140E94891900
S1132BD081119CCF0E94831399CFC7010E94B8141E
S1132BE00E94891993CFC7010E94B8140E948919C1
S1132BF080E02996CDBFDEBFDF91CF911F910F9169
S1132C00FF90EF90DF90CF90BF90AF900895AF9278
S1132C10BF92CF92DF92EF92FF920F931F93CF93C5
S1132C20DF93CDB7DEB72997CDBFDEBF7C015B0153
S1132C302E833F834887598710E06C0183E1C80ED7
S1132C40D11C0FB6F8940F92F701868D882399F161
S1132C50C680D780B501C7010E949E1401111AC015
S1132C60F701868D8150868F80819181892B29F48B
S1132C700E94071CF70182839383F70180858823D0
S1132C80B1F0C70108960E942D1B813081F40E9487
S1132C9083130DC0F701C682D7828389882339F054
S1132CA0C70143960E942D1B81110E9483130F902C
S1132CB00FBE81E062C08E819F81A885B985892B72
S1132CC08A2B8B2B21F40F900FBE80E056C011117C
S1132CD005C0CE0101960E946C1B11E00F900FBE3F
S1132CE00E946C180FB6F8940F92F70181A18F3FE0
S1132CF009F411A2F70182A18F3F09F412A20F90E7
S1132D000FBEBE016A5F7F4FCE0101960E947D1BFC
S1132D1081112DC00FB6F8940F92F701868D0F9094
S1132D200FBE81111EC080819181892B49F40FB699
S1132D30F8940F92828193810E940C1C0F900FBE15
S1132D404E815F8168857985C6010E94031BC70196
S1132D500E94B8140E948919811173CF0E948313B1
S1132D6070CFC7010E94B8140E9489196ACFC701A5
S1132D700E94B8140E94891980E02996CDBFDEBF55
S1132D80DF91CF911F910F91FF90EF90DF90CF9043
S1132D90BF90AF9008950FB6F8940F92FC01868D02
S1132DA00F900FBE0895C4EAD1E388818230E8F31E
S1132DB00E948313FACFCF92DF92EF92FF926B01BE
S1132DC07C01E091D031F091D131628373838483AB
S1132DD095838091783190917931A0917A31B09135
S1132DE07B31C816D906EA06FB0668F46091D03137
S1132DF07091D13180918A3190918B316E5F7F4F88
S1132E000E945E1221C06091D0317091D1318091C5
S1132E108C3190918D316E5F7F4F0E945E12809154
S1132E20062090910720A0910820B0910920C8168F
S1132E30D906EA06FB0640F4C0920620D092072089
S1132E40E0920820F0920920FF90EF90DF90CF905D
S1132E5008954F925F926F927F928F929F92AF925A
S1132E60BF92CF92DF92EF92FF920F931F93CF9373
S1132E70DF935C014B013A01290188E290E00E9452
S1132E805511EC01892B09F4D4C0C114D10409F003
S1132E90CCC0C3010E9455118B8F9C8F009721F4E5
S1132EA0CE010E94EF11C5C0A30161E170E00E9450
S1132EB099289301215031098B8D9C8D3C01620E20
S1132EC0731E4AE050E0B401CE014D960E94A02842
S1132ED01EA2102F043008F013E01A8F1FA36E01F6
S1132EE022E0C20ED11CC6010E943312CE010E96FE
S1132EF00E943312CA87DB8784E090E0A0E0B0E050
S1132F00811B9109A109B1098E879F87A88BB98B71
S1132F10CE8BDF8BA201B501C3010E94CF1288833F
S1132F209983E114F10419F0F701C083D1830FB63A
S1132F30F8940F9280917C318F5F80937C318091E3
S1132F40D0319091D131892B89F5C093D031D09370
S1132F50D13180917C318130C1F584EA91E30E94C2
S1132F6022128FEA91E30E9422128AEB91E30E94DB
S1132F70221285EC91E30E94221289E991E30E94D6
S1132F8022128EE891E30E9422128FE791E30E94BD
S1132F90221289E991E380938C3190938D318EE8EC
S1132FA091E380938A3190938B310FC08091753176
S1132FB081110BC0E091D031F091D131828D08178D
S1132FC020F0C093D031D093D1318A8D9091773154
S1132FD0981710F480937731909170319F5F90939C
S1132FE0703190917631981710F480937631FBE02C
S1132FF08F9FC0011124B6018C559E4C0E9437123C
S11330000F900FBE80917531882359F0E091D03133
S1133010F091D131828D801730F40E94831381E0C6
S113302009C081E007C081E005C0CB8EDC8EC601FB
S11330303BCF8FEFDF91CF911F910F91FF90EF90D6
S1133040DF90CF90BF90AF909F908F907F906F90C4
S11330505F904F9008950FB6F8940F92009721F463
S11330608091D0319091D1310F900FBEFC01828DAF
S11330700895AF92BF92CF92DF92EF92FF920F9397
S1133080A12CB12CC12CD12C0F2EFDE7EF2EF1E396
S1133090FF2EF02D00E020E030E044E650E061E94E
S11330A070E283ED96E10E942917813069F4F89467
S11330B080937531109278311092793110927A316F
S11330C010927B310E9445130F91FF90EF90DF9097
S11330D0CF90BF90AF900895809174318F5F8093AB
S11330E0743108950FB6F8940F926091783170910D
S11330F0793180917A3190917B310F900FBE089590
S1133100009721F48091D0319091D1314D9608955A
S1133110FF920F931F93CF93DF93809174318111AA
S1133120EDC08091783190917931A0917A31B0914C
S11331307B310196A11DB11D809378319093793133
S1133140A0937A31B0937B31809178319091793129
S1133150A0917A31B0917B31892B8A2B8B2BF1F59D
S113316080918C3190918D3120918A3130918B31C5
S113317020938C3130938D3180938A3190938B31AD
S1133180809171318F5F80937131E0918C31F09136
S11331908D31808181110CC08FEF9FEFDC01809312
S11331A0062090930720A0930820B093092016C00E
S11331B0E0918C31F0918D310780F085E02D008411
S11331C0F185E02D82819381A481B58180930620CD
S11331D090930720A0930820B09309204091783160
S11331E05091793160917A3170917B3180910620D0
S11331F090910720A0910820B09109204817590701
S11332006A077B0708F47FC0E0918C31F0918D311F
S113321080818823F9F0E0918C31F0918D31078021
S1133220F085E02DC085D1858A819B81AC81BD81EB
S1133230409178315091793160917A3170917B313C
S1133240481759076A077B0758F10F2EFBE0FF2E3A
S1133250F02D2FC08FEF9FEFDC0180930620909319
S11332600720A0930820B09309204DC0E0918C3131
S1133270F0918D310780F085E02DC085D1858A815C
S11332809B81AC81BD8140917831509179316091BD
S11332907A3170917B31481759076A077B0748F4E4
S11332A08093062090930720A0930820B0930920D0
S11332B02AC08E010E5F1F4FC8010E94A912888D7B
S11332C0998D892B21F0CE010E960E94A9128A8D28
S11332D090917631981710F480937631F89EC0015E
S11332E01124B8018C559E4C0E943712E0918C3108
S11332F0F0918D3180818111B9CFACCF8091733140
S11333008F5F80937331DF91CF911F910F91FF9065
S11333100895CF92DF92EF92FF920F931F93CF9372
S1133320DF930FB6F8940F9280917431815080939B
S1133330743180917431811160C080917C3181112C
S11333402CC05EC0D7011796ED91FC911897C085EB
S1133350D185CE010E960E94A9128E010E5F1F4FD9
S1133360C8010E94A9128A8D90917631981710F4A1
S113337080937631D89EC0011124B8018C559E4C9F
S11333800E943712E091D031F091D1319A8D828D23
S1133390981770F0CC24C3940BC0C12C0F2EFFE7F8
S11333A0EF2EF1E3FF2EF02D0F2EFBE0DF2EF02D9C
S11333B0F70180818111C6CF80917331882381F018
S11333C080917331882399F00E9488188091733119
S11333D0815080937331809173318111F5CF07C08F
S11333E0F1E0CF1621F080917231813041F41092D6
S11333F072310E94831381E003C080E001C080E049
S11334000F900FBEDF91CF911F910F91FF90EF901E
S1133410DF90CF900895CF92DF92EF92FF92CF93F7
S1133420DF93EC016A017B010E946C188881998109
S1133430AA81BB81C80ED91EEA1EFB1E40917831B9
S11334405091793160917A3170917B3148175907E5
S11334506A077B07B8F4C816D906EA06FB06E0F546
S11334608091783190917931A0917A31B0917B310A
S1133470C882D982EA82FB828C159D05AE05BF0500
S1133480F8F413C0C816D906EA06FB0600F18091C9
S1133490783190917931A0917A31B0917B318C154A
S11334A09D05AE05BF0598F017C08091D03190916D
S11334B0D13102960E94A912C701B6010E94DB16FF
S11334C00E94891981110DC00E9483130AC0C88209
S11334D0D982EA82FB82E9CFC882D982EA82FB825E
S11334E0EFCFDF91CF91FF90EF90DF90CF900895D1
S11334F0CF92DF92EF92FF926B017C01672B682BD6
S1133500692BE9F00E946C1880917831909179319F
S1133510A0917A31B0917B31C80ED91EEA1EFB1EF0
S11335208091D0319091D13102960E94A912C701A5
S1133530B6010E94DB160E948919811102C00E9403
S11335408313FF90EF90DF90CF90089580917431B2
S113355081110CC0E09176314BE0E49FF00111241D
S1133560EC55FE4C8081882329F014C081E08093BF
S1133570723108959BE08091763181508093763149
S1133580E09176319E9FF0011124EC55FE4C808130
S1133590882389F380917631282F30E04BE0849F93
S11335A0C0011124DC01AC55BE4C1196ED91FC9187
S11335B012970480F581E02D1196ED93FC931297F8
S11335C089559E4CE817F90761F4848195814BE095
S11335D0429FF001439FF00D1124EC55FE4C818372
S11335E092838BE0829FF001839FF00D1124EC55B0
S11335F0FE4C0180F281E02D808591858093D0314D
S11336009093D1310895CF92DF92EF92FF926A01A5
S11336107B016091D0317091D131625F7F4F0E9404
S11336205E128091D0319091D13102960E94A912FC
S11336308091783190917931A0917A31B0917B3138
S1133640BC01CD016C0D7D1D8E1D9F1D0E94DB16DE
S1133650FF90EF90DF90CF9008950F931F93CF9337
S1133660DF93DC011796ED91FC911897C085D18505
S11336708E01025F1F4FC8010E94A912809174310C
S1133680811116C00C501109C8010E94A9128A8D1B
S113369090917631981710F480937631BBE08B9F2C
S11336A0C0011124B8018C559E4C0E94371205C0EC
S11336B0B8018FE791E30E943712E091D031F09185
S11336C0D13181E02A8D928D291708F480E0DF91B1
S11336D0CF911F910F91089520917131FC012083A6
S11336E0409178315091793160917A3170917B3188
S11336F0418352836383748308958F929F92AF9220
S1133700BF92CF92DF92EF92FF920F931F93CF93CA
S1133710DF93FC010FB6F8940F9280917131908180
S1133720981789F08091783190917931A0917A310C
S1133730B0917B31018112812381348180179107FB
S1133740A207B307A8F58091783190917931A091BF
S11337507A31B0917B31C180D280E380F480EB0177
S1133760088119812A813B818C199D09AE09BF0901
S113377080179107A207B307E8F4CF01809078314E
S113378090907931A0907A31B0907B31B501A40149
S11337904C195D096E097F09041B150B260B370BA9
S11337A0088319832A833B830E946C1B80E003C037
S11337B081E001C081E00F900FBEDF91CF911F9196
S11337C00F91FF90EF90DF90CF90BF90AF909F90BC
S11337D08F90089581E0809372310895009721F4C9
S11337E08091D0319091D131DC015B96ED91FC91C7
S11337F05C978081813141F4319680E090E00196BC
S113380021912131E1F3089580E090E008958091C1
S1133810D0319091D13108950F931F93CF93DF93BB
S1133820FC01228DA091D031B091D1315A968C9166
S1133830281708F041C0A091D031B091D1315A96E7
S11338403C9184E090E0A0E0B0E0831B9109A109E1
S1133850B10986879787A08BB18B8BE0289F900155
S113386011242C553E4C8485958582179307E9F4E1
S11338708F01EF012296CE010E94A912E091D0316E
S1133880F091D131828DF801828F90917631981721
S113389010F480937631FBE08F9FC0011124BE01A8
S11338A08C559E4C0E94371207C0A091D031B09124
S11338B0D1315A968C91828FDF91CF911F910F91C4
S11338C008950F931F93CF93DF93009749F1FC0161
S11338D0328D27A1321721F1EC018C010E5F1F4FAD
S11338E0C8010E94A9128FA18A8F44E050E060E0D1
S11338F070E0481B5109610971094E875F87688B25
S1133900798B90917631981710F480937631FBE09F
S11339108F9FC0011124B8018C559E4C0E94371210
S1133920DF91CF911F910F910895EC01E881F98106
S11339300190F081E02D19951A821B826FEF7FEFC1
S1133940CB010E94781AFACFFC0164876587089539
S11339504F925F926F927F928F929F92AF92BF929B
S1133960CF92DF92EF92FF920F931F93CF93DF9347
S1133970CDB7DEB72A97CDBFDEBF4C012901380190
S11339808AE990E2F40180839183FB01808188239A
S113399069F0DE011196319690E002C0993039F059
S11339A09F5F8D9381918111F9CF01C090E0E1E097
S11339B0F0E0EC0FFD1FE90FF11D10827401F2E03D
S11339C0EF0EF11CA12CB12CC12CD12C042F94018D
S11339D0A201BE016F5F7F4F8FED91E00E94291716
S11339E0F40166827782408651862091D2313091EB
S11339F0D331248335838092D2319092D33114868B
S1133A0015864090143250901532FFEF4F1A5F0A1A
S1133A104092143250921532F4014286538616862F
S1133A201786108A118A6114710409F444C0813024
S1133A3079F56AE0C3010E947A1F7C0165E473E0B2
S1133A400E94431FBE016F5F7F4FC7010E94431F47
S1133A506AE0C7010E947A1F7C016CE373E00E9454
S1133A60431F6AE0C7010E947A1F7C016EE273E083
S1133A700E94431F63E0C7010E947A1FB2010E94A3
S1133A80EA1F62E00E947A1F66E00E947A1F13C058
S1133A906AE0C3010E947A1F4C0169E173E00E944D
S1133AA0431FBE016F5F7F4FC4010E94431F66E046
S1133AB0C4010E947A1F2A96CDBFDEBFDF91CF9149
S1133AC01F910F91FF90EF90DF90CF90BF90AF9038
S1133AD09F908F907F906F905F904F9008958F92FA
S1133AE09F92AF92BF92CF92DF92EF92FF920F9389
S1133AF01F93CF93DF93EC018B018A819B810E94FA
S1133B008018BC01C8010E94431FD801ED91FC91AB
S1133B100280F381E02D69E0C80119958A819B81B7
S1133B200E948018FC0101900020E9F73197E81BFE
S1133B30F90B389748F4D801ED91FC910280F38198
S1133B40E02D69E0C8011995CE84DF84E888F988FE
S1133B50A884B9848A819B810E94EE1B982E8C8450
S1133B608A819B810E942B18682FC8010E946020C3
S1133B706AE00E947A1FEC016BEB73E00E94431F22
S1133B80682DCE010E9460206AE00E947A1FEC0139
S1133B9069EB73E00E94431F692DCE010E946020EF
S1133BA06AE00E947A1FEC0167EB73E00E94431FF6
S1133BB0B501CE010E94EA1F6AE00E947A1FEC015F
S1133BC065EB73E00E94431F6AE0CE010E947A1FF6
S1133BD0EC0163EB73E00E94431FB701A601CE0121
S1133BE00E941E20DF91CF911F910F91FF90EF90C3
S1133BF0DF90CF90BF90AF909F908F9008950F93D8
S1133C00CF93DF931F92CDB7DEB700E02FEF3FEFE6
S1133C10A901BE016F5F7F4FFC01808591850E94E1
S1133C200716813019F4898190E002C08FEF9FEF6D
S1133C300F90DF91CF910F910895FC0180859185BC
S1133C400E94CB1691E0811101C090E0892F089564
S1133C500F93CF93DF931F92CDB7DEB76983FC0137
S1133C60228533854485558500E0BE016F5F7F4F13
S1133C70808591850E946C1591E0811101C090E0CE
S1133C80892F0F90DF91CF910F9108958F929F927A
S1133C90BF92CF92DF92EF92FF920F931F93CF9335
S1133CA0DF93EC01B62E4A01680179010E94351FA9
S1133CB082EA90E2888399838E869F8640E061E061
S1133CC08B2D0E943E1588879987CA86DB86EC86F1
S1133CD0FD86DF91CF911F910F91FF90EF90DF90C0
S1133CE0CF90BF909F908F9008950E945511089592
S1133CF00E94551108950895CF93DF93FC01DA01D2
S1133D00403A68E0560749F480E496E0828393835E
S1133D1082E0848383E085834CC0403B78E057078E
S1133D2049F480E496E08283938386E0848387E089
S1133D3085833FC0403A89E0580749F480E696E01D
S1133D408283938382E0848383E0858332C0403B13
S1133D5069E0560749F480E696E08283938386E01F
S1133D60848387E0858325C0403A7AE0570749F485
S1133D7080E896E08283938382E0848383E0858372
S1133D8018C0403B8AE0580749F480E896E08283F3
S1133D90938386E0848387E085830BC0403A5B404D
S1133DA041F480EA96E08283938382E0848383E013
S1133DB08583A683B783CD01019680879187039677
S1133DC0828793872581C281D3814C8181E090E0F1
S1133DD0BC0102C0660F771F2A95E2F79B01242BD2
S1133DE02C832581C281D3814881BC0102C0660F26
S1133DF0771F2A95E2F79B01242B28833481C28103
S1133E00D381288102C0880F991F3A95E2F78095E3
S1133E1090958223888380E113968C93139783E093
S1133E2015968C93159780EF17968C93179781E2CC
S1133E3016968C93169788E114968C9380E8858760
S1133E4080E4868780E284870680F781E02D808184
S1133E508081DF91CF91089581E0089580E090E022
S1133E60089580E0089508950895FC0182EB90E29E
S1133E70808391838AE08283138283E08583148222
S1133E801682178208950F931F93CF93DF938C01AB
S1133E90FB01DC0114968C91811104C060816111D5
S1133EA017C023C0D80114961C92EB01219664918B
S1133EB06623D9F0D801ED91FC910280F381E02DC5
S1133EC0C8011995FE01649121966111F3CF0DC0CB
S1133ED0EF012196D801ED91FC910280F381E02D50
S1133EE0C801199569916111F5CFDF91CF911F91A7
S1133EF00F910895CF93DF93EC01862F90E08B30E0
S1133F009105D8F5FC018827EB5FFE4F8F4F0C9489
S1133F10652882E08A8331C088E08A832EC08AE0E3
S1133F208A832BC080E18A8328C081E08B8325C0EB
S1133F301B8223C0E881F9810280F381E02D6DE0CA
S1133F40CE011995E881F9810280F381E02D6AE0C0
S1133F50CE01199512C0E881F9810284F385E02D20
S1133F60CE0119950AC0E881F9810084F185E02D1C
S1133F70CE01199502C081E08C83CE01DF91CF91EF
S1133F8008950F931F93CF93DF93CDB7DEB7619757
S1133F90CDBFDEBF8C019B01FC0192819A3021F0E0
S1133FA0C8010E94EA1F0DC04AE0BE016F5F7F4F47
S1133FB0C9010E94AF28BE016F5F7F4FC8010E94F4
S1133FC0431FC8016196CDBFDEBFDF91CF911F9122
S1133FD00F910895FF920F931F93CF93DF93CDB763
S1133FE0DEB76197CDBFDEBF8C01F62E972FF801A7
S1133FF04281403121F0483011F0423041F4692FC0
S1134000C8010E9460206F2D0E9460200DC050E006
S1134010BE016F5F7F4F8F2D0E94E728BE016F5F47
S11340207F4FC8010E94431FC8016196CDBFDEBF08
S1134030DF91CF911F910F91FF900895DF92EF923E
S1134040FF920F931F93CF93DF93CDB7DEB7A19762
S1134050CDBFDEBF8C01D42EE52EF62E972FF801AE
S11340602281203121F0283011F0223071F4692F9F
S1134070C8010E9460206F2D0E9460206E2D0E9456
S113408060206D2D0E9460200FC030E0AE014F5FB4
S11340905F4F6D2D7E2D8F2D0E94BA28BE016F5F5C
S11340A07F4FC8010E94431FC801A196CDBFDEBF48
S11340B0DF91CF911F910F91FF90EF90DF900895C2
S11340C0CF92DF92EF92FF920F931F93CF93DF93E0
S11340D0CDB7DEB72997CDBFDEBF8C01E62EDC015C
S11340E013968C911397882341F0ED91FC910280F3
S11340F0F381E02DC801199556C0F8014281423080
S113410019F56894CC24C3F8D12C6894FF24F7F8EB
S11341108E2D8F2151F0D801ED91FC910280F38115
S1134120E02D61E3C801199509C0D801ED91FC9116
S11341300280F381E02D60E3C8011995F694B1E0A3
S1134140CB1AD10829F72FC04031F9F462956F706A
S11341500190F081E02D0280F381E02D6A3010F0AF
S1134160695C01C0605DC80119956E2D6F70D8013E
S1134170ED91FC910280F381E02D6A3010F0695CCE
S113418001C0605DC80119950EC050E0BE016F5FAB
S11341907F4F8E2D90E00E94E728BE016F5F7F4F16
S11341A0C8010E94431FC8012996CDBFDEBFDF911D
S11341B0CF911F910F91FF90EF90DF90CF900895D2
S11341C0DC015096ED91FC915197808154964C916D
S11341D05497842329F009C02150310919F412C0DD
S11341E021E23EE490819423B9F3908156968C9118
S11341F05697892B80831E96ED91FC911F976083BF
S113420081E0089580E00895CF93DF93FC01C18D90
S1134210D28D28813981A38DB48D4D915C91241761
S11342203507E9F3A789B08D0D90BC91A02DA20F9D
S1134230B31F8C912F5F3F4F288339832436310578
S113424028F0018CF28DE02D1082118290E0DF9134
S1134250CF910895CF93DF93EC01A98DBA8DEB8DA7
S1134260FC8D81E04D915C9120813181421753078F
S113427009F480E0DF91CF910895DC01ED91FC9188
S11342800280F381E02D6CE019950895EF92FF927E
S11342900F931F93CF93DF93EC017B018A010E945C
S11342A0351FA801B701CE0108960E947C1E82EC3E
S11342B090E288839983003A88E0180769F48CEFC8
S11342C091E38F8B988F8EEE91E3898F9A8F80EE96
S11342D091E38B8F9C8F64C0003BE8E01E0769F478
S11342E08AEF91E38F8B988F8CEE91E3898F9A8F6D
S11342F08EED91E38B8F9C8F53C0003AF9E01F073A
S113430069F488EF91E38F8B988F8AEE91E3898F1C
S11343109A8F8CED91E38B8F9C8F42C0003B89E098
S1134320180769F486EF91E38F8B988F88EE91E3F9
S1134330898F9A8F8AED91E38B8F9C8F31C0003ADD
S1134340EAE01E0769F484EF91E38F8B988F86EE81
S113435091E3898F9A8F88ED91E38B8F9C8F20C096
S1134360003BFAE01F0769F482EF91E38F8B988F8B
S113437084EE91E3898F9A8F86ED91E38B8F9C8FE6
S11343800FC0003A1B4061F480EF91E38F8B988F4C
S113439082EE91E3898F9A8F84ED91E38B8F9C8FCA
S11343A00F89188D84E690E00E94781EF8018083BE
S11343B09183E98DFA8D10821182EB8DFC8D108230
S11343C01182DF91CF911F910F91FF90EF9008958B
S11343D01F920F920FB60F9211240BB60F922F93C8
S11343E03F938F939F93EF93FF932091A008E091C5
S11343F0FC31F091FD318091E0319091E131E80F91
S1134400F91F20838091E0319091E1310196843647
S1134410910560F48093E0319093E1312091EE3185
S11344203091EF3182179307F1F40CC01092E03110
S11344301092E1318091EE319091EF311816190606
S113444091F40EC001968436910528F48093EE31E0
S11344509093EF3108C01092EE311092EF3103C007
S113446081E090E0F3CFFF91EF919F918F913F9185
S11344702F910F900BBE0F900FBE0F901F901895A9
S11344801F920F920FB60F9211240BB60F922F9317
S11344903F938F939F93EF93FF932091B008E09104
S11344A0FA31F091FB318091DE319091DF31E80FE8
S11344B0F91F20838091DE319091DF31019684369B
S11344C0910560F48093DE319093DF312091EC31DB
S11344D03091ED3182179307F1F40CC01092DE3164
S11344E01092DF318091EC319091ED31181619065C
S11344F091F40EC001968436910528F48093EC3132
S11345009093ED3108C01092EC311092ED3103C05C
S113451081E090E0F3CFFF91EF919F918F913F91D4
S11345202F910F900BBE0F900FBE0F901F901895F8
S11345301F920F920FB60F9211240BB60F922F9366
S11345403F938F939F93EF93FF932091A009E09162
S1134550F831F091F9318091DC319091DD31E80F3F
S1134560F91F20838091DC319091DD3101968436EE
S1134570910560F48093DC319093DD312091EA3130
S11345803091EB3182179307F1F40CC01092DC31B7
S11345901092DD318091EA319091EB3118161906B1
S11345A091F40EC001968436910528F48093EA3183
S11345B09093EB3108C01092EA311092EB3103C0B2
S11345C081E090E0F3CFFF91EF919F918F913F9124
S11345D02F910F900BBE0F900FBE0F901F90189548
S11345E01F920F920FB60F9211240BB60F922F93B6
S11345F03F938F939F93EF93FF932091B009E091A2
S1134600F631F091F7318091DA319091DB31E80F96
S1134610F91F20838091DA319091DB310196843641
S1134620910560F48093DA319093DB312091E83185
S11346303091E93182179307F1F40CC01092DA310A
S11346401092DB318091E8319091E9311816190606
S113465091F40EC001968436910528F48093E831D4
S11346609093E93108C01092E8311092E93103C007
S113467081E090E0F3CFFF91EF919F918F913F9173
S11346802F910F900BBE0F900FBE0F901F90189597
S11346901F920F920FB60F9211240BB60F922F9305
S11346A03F938F939F93EF93FF932091A00AE09100
S11346B0F431F091F5318091D8319091D931E80FEE
S11346C0F91F20838091D8319091D9310196843695
S11346D0910560F48093D8319093D9312091E631DB
S11346E03091E73182179307F1F40CC01092D8315E
S11346F01092D9318091E6319091E731181619065C
S113470091F40EC001968436910528F48093E63125
S11347109093E73108C01092E6311092E73103C05C
S113472081E090E0F3CFFF91EF919F918F913F91C2
S11347302F910F900BBE0F900FBE0F901F901895E6
S11347401F920F920FB60F9211240BB60F922F9354
S11347503F938F939F93EF93FF932091B00AE0913F
S1134760F231F091F3318091D6319091D731E80F45
S1134770F91F20838091D6319091D73101968436E8
S1134780910560F48093D6319093D7312091E43130
S11347903091E53182179307F1F40CC01092D631B1
S11347A01092D7318091E4319091E53118161906B1
S11347B091F40EC001968436910528F48093E43177
S11347C09093E53108C01092E4311092E53103C0B2
S11347D081E090E0F3CFFF91EF919F918F913F9112
S11347E02F910F900BBE0F900FBE0F901F90189536
S11347F01F920F920FB60F9211240BB60F922F93A4
S11348003F938F939F93EF93FF932091A00BE0919D
S1134810F031F091F1318091D4319091D531E80F9C
S1134820F91F20838091D4319091D531019684363B
S1134830910560F48093D4319093D5312091E23185
S11348403091E33182179307F1F40CC01092D43104
S11348501092D5318091E2319091E3311816190606
S113486091F40EC001968436910528F48093E231C8
S11348709093E33108C01092E2311092E33103C007
S113488081E090E0F3CFFF91EF919F918F913F9161
S11348902F910F900BBE0F900FBE0F901F90189585
S11348A00F931F93CF93DF93CDB7DEB76D97CDBF33
S11348B0DEBFF8940E94DF08E0E6F6E080E8868335
S11348C0818382E08093B4009DEF88ED08B618BE22
S11348D084BF9093800008BE40EA59E060E070E035
S11348E0CE0101960E94462167E0CE0101960E9406
S11348F07A1F8C016EEC70E20E94431F66E0C801CF
S11349000E947A1F66E00E947A1F82E190E00E9472
S1134910751E8E010F5F1F4F28EE33E041E06DEEF0
S113492070E20E94C70689E390E00E94751E28EE9B
S113493033E043E068EF70E20E94BA0887E08093B6
S1134940A20078940E94391880E090E06D96CDBF63
S1134950DEBFDF91CF911F910F9108950F931F93A5
S11349600AE010E020E030E040E050E060E270E077
S11349708EEF91E30E94461E1F910F9108955058A7
S1134980BB27AA270E94D7240C94F1260E94B8269C
S113499038F00E94BF2620F039F49F3F19F426F422
S11349A00C948E260EF4E095E7FB0C948826E92FF0
S11349B00E94162758F3BA176207730784079507EE
S11349C020F079F4A6F50C9438270EF4E0950B2E1C
S11349D0BA2FA02D0B01B90190010C01CA01A0014D
S11349E01124FF27591B99F0593F50F4503E68F1A8
S11349F01A16F040A22F232F342F4427585FF3CFE9
S1134A00469537952795A795F0405395C9F77EF4B9
S1134A101F16BA0B620B730B840BBAF09150A1F002
S1134A20FF0FBB1F661F771F881FC2F70EC0BA0F88
S1134A30621F731F841F48F4879577956795B79510
S1134A40F7959E3F08F0B0CF9395880F08F099270B
S1134A50EE0F9795879508950E94B82660F080E838
S1134A6091E009F49EEF0E94BF2628F040E851E04F
S1134A7071F45EEF0CC00C948E260C943827E92F49
S1134A80E0780E94162740F3092E052AB1F3261771
S1134A9037074807590738F00E2E07F8E02569F064
S1134AA0E025E0640AC0EF6307F8009407FADB012D
S1134AB0B9019D01DC01CA01AD01EF930E94BA2541
S1134AC00E94F1260E946F255F91552339F02BED4A
S1134AD03FE049E450FD49EC0C94C0240895DF9371
S1134AE0DD27B92FBF7740E85FE31616170648079E
S1134AF05B0718F4D92F0E943F279F938F937F93CE
S1134B006F930E940228E0E2F2E00E9491260E9444
S1134B10F1262F913F914F915F910E945A27DD23F7
S1134B2051F09058A2EA2AED3FE049EC5FE3D078D7
S1134B305D270E94D724DF910C94F1260E94C82699
S1134B40E3950C9402270E94B7250C94F1260E9449
S1134B50BF2658F00E94B82640F029F45F3F29F0A0
S1134B600C94882651110C9439270C948E260E949B
S1134B70162768F39923B1F3552391F3951B550B2D
S1134B80BB27AA2762177307840738F09F5F5F4F1C
S1134B90220F331F441FAA1FA9F335D00E2E3AF05B
S1134BA0E0E832D091505040E695001CCAF72BD073
S1134BB0FE2F29D0660F771F881FBB1F26173707C4
S1134BC04807AB07B0E809F0BB0B802DBF01FF27F6
S1134BD093585F4F3AF09E3F510578F00C94882625
S1134BE00C9439275F3FE4F3983ED4F38695779588
S1134BF06795B795F7959F5FC9F7880F911D9695AF
S1134C00879597F90895E1E0660F771F881FBB1F0A
S1134C10621773078407BA0720F0621B730B840BB7
S1134C20BA0BEE1F88F7E09508950E941C2668943D
S1134C30B1110C94392708950E941E2788F09F57BC
S1134C4098F0B92F9927B751B0F0E1F0660F771FAC
S1134C50881F991F1AF0BA95C9F714C0B13091F0A2
S1134C600E943827B1E008950C943827672F782FD5
S1134C708827B85F39F0B93FCCF386957795679567
S1134C80B395D9F73EF490958095709561957F4FD3
S1134C908F4F9F4F0895E89409C097FB3EF4909579
S1134CA08095709561957F4F8F4F9F4F9923A9F001
S1134CB0F92F96E9BB279395F69587957795679590
S1134CC0B795F111F8CFFAF4BB0F11F460FF1BC0D4
S1134CD06F5F7F4F8F4F9F4F16C0882311F096E967
S1134CE011C0772321F09EE8872F762F05C0662315
S1134CF071F096E8862F70E060E02AF09A95660FCE
S1134D00771F881FDAF7880F9695879597F9089586
S1134D1097F99F6780E870E060E008959FEF80EC6A
S1134D200895DF93CF931F930F93FF92EF92DF9237
S1134D307B018C01689406C0DA2EEF010E945A2789
S1134D40FE01E894A5912591359145915591A6F3DD
S1134D50EF010E94D724FE019701A801DA9469F7B4
S1134D60DF90EF90FF900F911F91CF91DF91089505
S1134D7000240A9416161706180609060895002436
S1134D800A94121613061406050608950C948E262A
S1134D900E941E27D8F3E894E0E0BB279F57F0F069
S1134DA02AED3FE049EC06C0EE0FBB0F661F771FEC
S1134DB0881F28F0B23A62077307840728F0B25AB2
S1134DC0620B730B840BE3959A9572F7803830F479
S1134DD09A95BB0F661F771F881FD2F790480C94D3
S1134DE00828092E0394000C11F4882352F0BB0FF9
S1134DF040F4BF2B11F460FF04C06F5F7F4F8F4FEF
S1134E009F4F0895EF93E0FF07C0A2EA2AED3FE029
S1134E1049EC5FEB0E94D7240E94F1260F90039483
S1134E2001FC9058EDE4F2E00C941B2857FD9058D7
S1134E30440F551F59F05F3F71F04795880F97FB5A
S1134E40991F61F09F3F79F0879508951216130614
S1134E501406551FF2CF4695F1DF08C01616170643
S1134E601806991FF1CF8695710561050894089578
S1134E70E894BB2766277727CB0197F908959B0110
S1134E80AC0160E070E080E89FE30C94A3250E94ED
S1134E905A270C94F1260E94B82638F00E94BF26A7
S1134EA020F0952311F00C9488260C948E2611245E
S1134EB00C9439270E94162770F3959FC1F3950F20
S1134EC050E0551F629FF001729FBB27F00DB11D8A
S1134ED0639FAA27F00DB11DAA1F649F6627B00D1A
S1134EE0A11D661F829F2227B00DA11D621F739F03
S1134EF0B00DA11D621F839FA00D611D221F749F11
S1134F003327A00D611D231F849F600D211D822F57
S1134F10762F6A2F11249F5750409AF0F1F088237E
S1134F204AF0EE0FFF1FBB1F661F771F881F9150AB
S1134F305040A9F79E3F510580F00C9488260C94AC
S1134F4039275F3FE4F3983ED4F3869577956795C8
S1134F50B795F795E7959F5FC1F7FE2B880F911DD5
S1134F609695879597F908959F930E94C8260F9068
S1134F7007FCEE5F0C94022719F416F40C948E26A9
S1134F800C9406280E941E27B8F39923C9F3B6F39C
S1134F909F57550B87FF0E9414280024A0E640EA7F
S1134FA0900180585695979528F4805C660F771F7A
S1134FB0881F20F026173707480730F4621B730B4D
S1134FC0840B202931294A2BA69517940794202570
S1134FD031254A2758F7660F771F881F20F02617B8
S1134FE03707480730F4620B730B840B200D311D17
S1134FF0411DA09581F7B901842F9158880F96958A
S1135000879508959B01AC010C9447279F3F31F08D
S1135010915020F4879577956795B795880F911DE2
S11350209695879597F9089591505040660F771F8C
S1135030881FD2F708959F938F937F936F93FF9365
S1135040EF939B01AC010E944727EF91FF910E94CF
S113505091262F913F914F915F910C94472797FB95
S1135060072E16F4009407D077FD09D00E947C28FF
S113507007FC05D03EF4909581959F4F0895709557
S113508061957F4F0895A1E21A2EAA1BBB1BFD0157
S11350900DC0AA1FBB1FEE1FFF1FA217B307E40713
S11350A0F50720F0A21BB30BE40BF50B661F771F6B
S11350B0881F991F1A9469F760957095809590954B
S11350C09B01AC01BD01CF010895EE0FFF1F881FA6
S11350D08BBF0790F691E02D1994A29FB001B39F66
S11350E0C001A39F700D811D1124911DB29F700DED
S11350F0811D1124911D0895AA1BBB1B51E107C0FA
S1135100AA1FBB1FA617B70710F0A61BB70B881F53
S1135110991F5A95A9F780959095BC01CD010895E2
S1135120FB01DC0102C001900D9241505040D8F7C0
S11351300895DC0101C06D9341505040E0F708959B
S1135140FB01DC014150504048F001900D920020D9
S1135150C9F701C01D9241505040E0F70895BB27A4
S11351604A3031F4992322F4BDE2909581959F4F02
S11351700C94F3282532310520F4223010F00C94DD
S1135180C528FA011082CA010895BB27FA01A62F87
S11351906217710581059105330B30FB66F0AA2770
S11351A0660F771F881F991FAA1FA21710F0A21B52
S11351B063953850A9F7A05DAA3308F0A95DA193BF
S11351C036F7B111B1931082CA010C940C294532FF
S11351D0510520F4423010F00C94F228FB011082A7
S11351E0CB010895BB27FB015527AA27880F991FD8
S11351F0AA1FA41710F0A41B83955051B9F7A05D02
S1135200AA3308F0A95DA193009779F7B111B1937E
S11352101192CB010C940C29DC01FC01672F7191D4
S11352207723E1F7329704C07C916D937083629188
S10F5230AE17BF07C8F30895F894FFCF31
S113523C2C018101FF0FFFFFFFFF7468697320735A
S113524C686F756C64206F6E6C7920617070656129
S113525C72206F6E63650000000000FB046F1D4438
S113526C6966666572656E7469616C20456E636F00
S113527C6465722056616C756573004D2076656C9F
S113528C203100204D3220562000525F565F42617F
S113529C7220002052504F535944454C5441200025
S11352AC20524F4D454741200020525F54484554ED
S11352BC415F44454C5441200000000000D7066F68
S11352CC1D49444C4500000000007B1E6F1D00006E
S11352DC00002C1F281E1D1EFF1D331F341F000031
S11352EC00002C1F7B1E311F2E1F331F341F000088
S11352FC00002C1FE0202A210421331F3D2146727B
S113530C656552544F5320586D656761205465731D
S113531C74696E672050726F6772616D004D4F54E3
S113532C4F52205441534B00526F626F745374614B
S107533C7465000090
S9030000FC
