:100000000C949D020C94CE020C94CE020C94CE0261
:100010000C94CE020C94CE020C94CE020C94CE0220
:100020000C94CE020C94CE020C94CE020C94CE0210
:100030000C94CE020C94CE020C94CE020C94CE0200
:100040000C94CE020C94CE020C94CE020C94CE02F0
:100050000C94CE020C94CE020C94CE020C94CE02E0
:100060000C94CE020C94D8030C94CE020C94CE02C5
:100070000C9430040C94CE020C94CE020C94CE025C
:100080000C94CE020C94CE020C94CE020C94CE02B0
:100090000C94CE020C94CE020C94CE020C94CE02A0
:1000A0000C94CE020C94CE020C94CE020C94CE0290
:1000B0000C94CE020C94CE020C94CE020C94CE0280
:1000C0000C94CE020C94CE020C94CE020C94CE0270
:1000D0000C94CE020C94CE020C94CE020C946F0CB5
:1000E0000C94CE020C94CE020C9438050C94CE02E3
:1000F0000C94CE020C9490050C94CE020C94CE027B
:100100000C94CE020C94CE020C94CE020C94CE022F
:100110000C94CE020C94CE020C94CE020C94CE021F
:100120000C94CE020C94CE020C94CE020C94CE020F
:100130000C94CE020C94CE020C94CE020C94CE02FF
:100140000C94CE020C94CE020C94CE020C94CE02EF
:100150000C94CE020C94CE020C94CE020C94CE02DF
:100160000C9488040C94CE020C94CE020C94E004FF
:100170000C94CE020C94CE020C94CE020C94CE02BF
:100180000C94CE020C94CE020C94CE020C94CE02AF
:100190000C94CE020C94CE020C94CE020C94CE029F
:1001A0000C94CE020C94CE020C94CE020C94CE028F
:1001B0000C94CE020C94CE020C94CE020C94CE027F
:1001C0000C94CE020C94CE020C94CE020C94CE026F
:1001D0000C94CE020C94CE020C94CE020C94E80542
:1001E0000C94CE020C94CE020C94CE020C94CE024F
:1001F0000C94CE020C94CE020C94CE02631A661AB2
:10020000691A6C1A6F1A721A741A851A8D1A971A4B
:10021000951A0C9403080C94631A0C949D170C9473
:1002200074170C946C1A0C94661A0C9440060C9477
:100230002D030C94FB0E0C94741A0C94081A0C9455
:10024000EF1B0C94F4020C940D1A0C94D0020C9435
:10025000851A0C94971A0C9492170C946F1A0C949C
:10026000061A0C948D1A0C94951A0C949A020C94FC
:100270002A160C940B1A0C941A030C94721A0C94F0
:100280000E1A0C9455190C94691A2C2054434330BF
:100290004343413D002F002C204865617020667269
:1002A00065653A200054696D653A20004E6F7620EE
:1002B00032302032303138004D45353037204672EB
:1002C000656552544F5320786D65676120706F7279
:1002D00074200020202020683A20202048414C50E3
:1002E000210020202020653A2020204578697420B4
:1002F000636F6D6D616E64206D6F646500202020FA
:1003000020733A202020537461636B2064756D70F4
:1003100020666F72207461736B730020202020763A
:100320003A20202056657273696F6E20616E6420DA
:10033000736574757020696E666F726D6174696F34
:100340006E00202020206E3A20202053686F7720F6
:100350007468652074696D65207269676874206EC1
:100360006F77002020496E20636F6D6D616E642091
:100370006D6F6465206F6E6C793A00202043746C59
:100380002D413A20456E74657220636F6D6D616E0C
:1003900064206D6F646500202043746C2D433A2007
:1003A0005265736574207468652041565200206858
:1003B000656C70004D453530372046726565525486
:1003C0004F5320786D65676120706F727420001B39
:1003D0005B33306D001B5B34366D00496C6C6567B8
:1003E000616C207374617465212052657365747447
:1003F000696E6720415652003A5754463F0045788F
:10040000697420636F6D6D616E64206D6F6465004B
:10041000526573657474696E67204156520050725C
:10042000657373204374726C2D4120666F72206374
:100430006F6D6D616E64206D6F64650052657365EC
:100440007474696E67004552524F5220696E207471
:1004500061736B20004552524F5220637265617484
:10046000696E67207461736B20002C207374616364
:100470006B2061742030780020637265617465645C
:10048000005461736B20001B5B32326D005461734A
:100490006B3A20001B5B316D001B5B32326D0054E8
:1004A00061736B3A2049444C45001B5B316D000978
:1004B00009002F0049444C45090930092D0900095C
:1004C0002D2D2D2D00092D2D2D2D2D2D2D2D2D2DAD
:1004D000002D2D2D2D09092D2D2D2D092D2D2D2DE5
:1004E0002D000952756E730009467265652F546FB1
:1004F00074616C004E616D6509095072692E095373
:10050000746174650009537461636B005461736BAB
:1005100009092020092000090009002F000900090D
:10052000001B5B32326D001B5B316D001B5B316D5C
:10053000002020000E94C214EF1B11241FBECFEF29
:10054000CDBFDFE3DEBF00E00CBF10E2A0E0B0E211
:10055000ECEEF9E300E00BBF02C007900D92A63865
:10056000B107D9F721E3A6E8B0E201C01D92AE328F
:10057000B207E1F712E0CDE9D2E000E006C0219732
:100580000109802FFE010E94511CCC39D10780E067
:100590000807A9F70E94911B0C94F41C0C9400000E
:1005A000DC015096ED91FC915197808154964C91CD
:1005B0005497842329F009C02150310919F412C03D
:1005C00021E23EE490819423B9F3908156968C9178
:1005D0005697892B80831E96ED91FC911F9760831F
:1005E00081E0089580E00895CF93DF93FC01C18DF1
:1005F000D28D28813981A38DB48D4D915C912417C2
:100600003507E9F3A789B08D0D90BC91A02DA20FFD
:10061000B31F8C912F5F3F4F2883398324363105D8
:1006200028F0018CF28DE02D1082118290E0DF9194
:10063000CF910895CF93DF93EC01A98DBA8DEB8D07
:10064000FC8D81E04D915C912081318142175307EF
:1006500009F480E0DF91CF910895DC01ED91FC91E8
:100660000280F381E02D6CE019950895EF92FF92DE
:100670000F931F93CF93DF93EC017B018A010E94BC
:100680000F1AA801B701CE0108960E9456198AE0F8
:1006900090E288839983003A88E0180769F48EEA2B
:1006A00090E28F8B988F80EA90E2898F9A8F82E90F
:1006B00090E28B8F9C8F64C0003BE8E01E0769F4DA
:1006C0008CEA90E28F8B988F8EE990E2898F9A8FD7
:1006D00080E990E28B8F9C8F53C0003AF9E01F07AE
:1006E00069F48AEA90E28F8B988F8CE990E2898F87
:1006F0009A8F8EE890E28B8F9C8F42C0003B89E0FE
:10070000180769F488EA90E28F8B988F8AE990E263
:10071000898F9A8F8CE890E28B8F9C8F31C0003A42
:10072000EAE01E0769F486EA90E28F8B988F88E9E9
:1007300090E2898F9A8F8AE890E28B8F9C8F20C0FD
:10074000003BFAE01F0769F484EA90E28F8B988FF0
:1007500086E990E2898F9A8F88E890E28B8F9C8F50
:100760000FC0003A1B4061F482EA90E28F8B988FB1
:1007700084E990E2898F9A8F86E890E28B8F9C8F34
:100780000F89188D84E690E00E945219F801808349
:100790009183E98DFA8D10821182EB8DFC8D108290
:1007A0001182DF91CF911F910F91FF90EF900895EB
:1007B0001F920F920FB60F9211240BB60F922F9328
:1007C0003F938F939F93EF93FF932091A008E09125
:1007D000AE20F091AF208091922090919320E80F6D
:1007E000F91F208380919220909193200196843666
:1007F000910560F480939220909393202091A02003
:100800003091A12082179307F1F40CC0109292202E
:10081000109293208091A0209091A1201816190683
:1008200091F40EC001968436910528F48093A0209F
:100830009093A12008C01092A0201092A12003C084
:1008400081E090E0F3CFFF91EF919F918F913F91E5
:100850002F910F900BBE0F900FBE0F901F90189509
:100860001F920F920FB60F9211240BB60F922F9377
:100870003F938F939F93EF93FF932091B008E09164
:10088000AC20F091AD208091902090919120E80FC4
:10089000F91F2083809190209091912001968436B9
:1008A000910560F4809390209093912020919E2058
:1008B00030919F2082179307F1F40CC01092902082
:1008C0001092912080919E2090919F2018161906D9
:1008D00091F40EC001968436910528F480939E20F1
:1008E00090939F2008C010929E2010929F2003C0DA
:1008F00081E090E0F3CFFF91EF919F918F913F9135
:100900002F910F900BBE0F900FBE0F901F90189558
:100910001F920F920FB60F9211240BB60F922F93C6
:100920003F938F939F93EF93FF932091A009E091C2
:10093000AA20F091AB2080918E2090918F20E80F1B
:10094000F91F208380918E2090918F20019684360C
:10095000910560F480938E2090938F2020919C20AD
:1009600030919D2082179307F1F40CC010928E20D5
:1009700010928F2080919C2090919D20181619062E
:1009800091F40EC001968436910528F480939C2042
:1009900090939D2008C010929C2010929D2003C02F
:1009A00081E090E0F3CFFF91EF919F918F913F9184
:1009B0002F910F900BBE0F900FBE0F901F901895A8
:1009C0001F920F920FB60F9211240BB60F922F9316
:1009D0003F938F939F93EF93FF932091B009E09102
:1009E000A820F091A92080918C2090918D20E80F73
:1009F000F91F208380918C2090918D200196843660
:100A0000910560F480938C2090938D2020919A2002
:100A100030919B2082179307F1F40CC010928C2028
:100A200010928D2080919A2090919B201816190683
:100A300091F40EC001968436910528F480939A2093
:100A400090939B2008C010929A2010929B2003C084
:100A500081E090E0F3CFFF91EF919F918F913F91D3
:100A60002F910F900BBE0F900FBE0F901F901895F7
:100A70001F920F920FB60F9211240BB60F922F9365
:100A80003F938F939F93EF93FF932091A00AE09160
:100A9000A620F091A72080918A2090918B20E80FCA
:100AA000F91F208380918A2090918B2001968436B3
:100AB000910560F480938A2090938B202091982058
:100AC0003091992082179307F1F40CC010928A207C
:100AD00010928B20809198209091992018161906D9
:100AE00091F40EC001968436910528F480939820E5
:100AF0009093992008C0109298201092992003C0DA
:100B000081E090E0F3CFFF91EF919F918F913F9122
:100B10002F910F900BBE0F900FBE0F901F90189546
:100B20001F920F920FB60F9211240BB60F922F93B4
:100B30003F938F939F93EF93FF932091B00AE0919F
:100B4000A420F091A5208091882090918920E80F21
:100B5000F91F208380918820909189200196843606
:100B6000910560F4809388209093892020919620AD
:100B70003091972082179307F1F40CC010928820CF
:100B8000109289208091962090919720181619062E
:100B900091F40EC001968436910528F48093962036
:100BA0009093972008C0109296201092972003C02F
:100BB00081E090E0F3CFFF91EF919F918F913F9172
:100BC0002F910F900BBE0F900FBE0F901F90189596
:100BD0001F920F920FB60F9211240BB60F922F9304
:100BE0003F938F939F93EF93FF932091A00BE091FE
:100BF000A220F091A3208091862090918720E80F79
:100C0000F91F208380918620909187200196843659
:100C1000910560F480938620909387202091942002
:100C20003091952082179307F1F40CC01092862022
:100C30001092872080919420909195201816190683
:100C400091F40EC001968436910528F48093942087
:100C50009093952008C0109294201092952003C084
:100C600081E090E0F3CFFF91EF919F918F913F91C1
:100C70002F910F900BBE0F900FBE0F901F901895E5
:100C8000CF93DF9300D01F92CDB7DEB78C010E94C7
:100C90009A1069837A838B839C836AE070E080E09A
:100CA00090E00E94A5120F2EF0EEEF2EF7E0FF2E3F
:100CB000F02DDD24D394F80184858230E1F028F40E
:100CC000882341F0813081F036C0833011F18430C7
:100CD00039F131C0F801128AF701D682D1826D2D27
:100CE000C8010E94D11427C0F701D58262E0C80173
:100CF0000E94D11420C0F701D682F80182898F5F4B
:100D0000828B8A30C1F4128A63E0C8010E94D11438
:100D100012C0F701D58264E0C8010E94D1140BC053
:100D2000F80182898F5F828B8A3529F4128A6D2DB2
:100D3000C8010E94D114F80186859785A089B189E0
:100D40000196A11DB11D86879787A08BB18B4AE0C4
:100D500050E060E070E0CE0101960E943812ABCF07
:100D60000F931F93CF93DF93EC010E94D5148AE178
:100D700090E288839983DF91CF911F910F9108951D
:100D80000F931F93CF93DF93EC010E94D51482E25F
:100D900090E288839983DF91CF911F910F910895FD
:100DA0000F931F93CF93DF93EC016AE08E819F81B5
:100DB0000E94541A8C0165ED73E00E941D1A6AE0CE
:100DC000C8010E94541A8C016FEC73E00E941D1A36
:100DD00067E0C8010E94541A6AE08E819F810E94D8
:100DE000541A8C0164EB73E00E941D1A6AE0C8017A
:100DF0000E94541A8C016EEA73E00E941D1A66E08C
:100E0000C8010E94541A6AE08E819F810E94541A80
:100E10008C0167E973E00E941D1A66E0C8010E9418
:100E2000541A6AE08E819F810E94541A8C016BE7EC
:100E300073E00E941D1A66E0C8010E94541A6AE01D
:100E40008E819F810E94541A8C0163E673E00E9498
:100E50001D1A66E0C8010E94541A6AE08E819F81C3
:100E60000E94541A8C0162E473E00E941D1A66E02D
:100E7000C8010E94541A6AE08E819F810E94541A10
:100E80008C016BE173E00E941D1A66E0C8010E94AC
:100E9000541A6AE08E819F810E94541A8C016DEF72
:100EA00072E00E941D1A66E0C8010E94541A6AE0AE
:100EB0008E819F810E94541A8C0162EE72E00E9422
:100EC0001D1A66E0C8010E94541A6AE08E819F8153
:100ED0000E94541AEC0163ED72E00E941D1A66E054
:100EE000CE010E94541ADF91CF911F910F91089566
:100EF000AF92BF92CF92DF92EF92FF920F931F9328
:100F0000CF93DF9300D000D0CDB7DEB78C0119822C
:100F10001A821B821C821D821E820E94450A6C015D
:100F2000CE0101960E9486185C0166E0F801868178
:100F300097810E94541A6AE00E94541A7C0168EB5F
:100F400072E00E941D1A6AE0C7010E94541A7C01D7
:100F50006CEA72E00E941D1A66E0C7010E94541AF2
:100F60006AE00E94541A7C0165EA72E00E941D1A30
:100F7000B501C7010E942A186AE00E94541A7C0138
:100F800067E972E00E941D1AB601C7010E949B1A10
:100F90006AE00E94541A7C0165E972E00E941D1A01
:100FA0004FEF5FE060E070E0C7010E94CF1AC09091
:100FB0002808D09029086AE0F801868197810E946C
:100FC000541A7C016AE872E00E941D1AB601C7013A
:100FD0000E949B1A66E00E94541A66E00E94541A0E
:100FE000F801868197810E94E3162696CDBFDEBF69
:100FF000DF91CF911F910F91FF90EF90DF90CF90F5
:10100000BF90AF900895CF93DF9300D000D0CDB7BD
:10101000DEB78C0119821A821B821C821D821E82FD
:101020006AE0DC0116968D919C9117970E94541AE4
:101030007C016EE174E00E941D1A66E0C7010E9407
:10104000541AF8018485882321F0813009F45DC0A9
:10105000D8C086819781DC01ED91FC910480F581F7
:10106000E02D19958823A9F1F80186819781DC018B
:10107000ED91FC910680F781E02D1995992781303B
:101080009105F9F0039709F0D8C06AE0F80186816C
:1010900097810E94541A8C0160E174E00E941D1A2D
:1010A00066E0C8010E94541A93E088ED08B618BEA5
:1010B00084BF909380008091820081FDFCCF08BEA8
:1010C000FFCFC8010E94D00661E0C8010E94D11480
:1010D000B4C08CE191E30E949217882309F4ADC05B
:1010E000D8011696ED91FC9117970190F081E02DB3
:1010F000E280F3808CE191E30E947417682FF8017D
:1011000086819781F701199598C086819781DC01C6
:10111000ED91FC910480F581E02D1995882309F467
:101120008CC0F80186819781DC01ED91FC910680ED
:10113000F781E02D19959C0133272836310559F1A7
:101140003CF42B31310559F12536310541F13BC0D5
:1011500023373105C1F02637310589F02E363105A8
:1011600091F5CE0101960E948618BC01F801868196
:1011700097810E942A1866E00E94541A5EC0C80136
:101180000E9478075AC0D80116968D919C911797A6
:101190000E94EA1552C0C8010E94D0064EC06AE003
:1011A000F801868197810E94541A7C016EEF73E0EA
:1011B0000E941D1A66E0C7010E94541A60E0C8012F
:1011C0000E94D1143AC0F801A681B781ED91FC913B
:1011D00011970280F381E02D682FCD0119956AE007
:1011E000D80116968D919C9117970E94541A7C01F4
:1011F00068EF73E00E941D1A66E0C7010E94541A4E
:101200001CC06AE0F801868197810E94541A8C0103
:101210006BED73E00E941D1A66E0C8010E94541A2B
:1012200093E088ED08B618BE84BF9093800080914B
:10123000820081FDFCCF08BEFFCFF801868597852F
:10124000A089B1890196A11DB11D86879787A08BC2
:10125000B18B61E070E080E090E00E94A512F1CED9
:101260000F93CF93DF931F92CDB7DEB72FB72983AC
:10127000F8941BBEFC0108ED04BF608389818FBF19
:101280000F90DF91CF910F910895CF93DF931F922D
:10129000CDB7DEB78FB78983F894E0E5F0E08BEC4B
:1012A0008283808188608083818183FFFDCFE0E538
:1012B000F0E082EC8583808180618083818184FF7E
:1012C000FDCFE0E4F0E06081687F6460608388EDDA
:1012D00084BF80E490E00E943009E0E5F0E0808186
:1012E0008B7F808389818FBF0F90DF91CF9108958D
:1012F0000F931F93CF93DF93EC010E949410809182
:10130000B02081111DC0A5EBB0E2E9EBF0E2ED9356
:10131000FC93119712961D921C921397A1EBB0E2C9
:101320008FEF9FE012968D939C9313971D921C92C2
:10133000119782839383A083B18381E08093B0204F
:10134000209709F45FC09E012B5F3F4F2496CE3F4C
:10135000DF4008F05AC0E091B520F091B620A5EB2F
:10136000B0E202C0DF01FC01828193818217930702
:1013700020F4808191810097A9F7C0E2E13BFC074E
:1013800009F446C0CD91DC9111978E010B5F1F4F80
:10139000808191818D939C9382819381821B930B99
:1013A0008B30910510F1BF01620F731FDB011296A4
:1013B0008D939C9313972283338312964D915C9166
:1013C000139785EB90E201C0CD01EC01A881B981B2
:1013D00012962D913C91139724173507A8F3EB0132
:1013E000A883B983DC016D937C9380910020909158
:1013F000012022813381821B930B809300209093E4
:10140000012008C000E010E005C000E010E002C0CC
:1014100000E010E00E94B611C801DF91CF911F914A
:101420000F9108950F931F93CF93DF93009741F18E
:10143000EC018C01055011090E949410F8014281C1
:101440005381A5EBB0E201C0DF01ED91FC91119752
:101450002281338124173507B8F32597E883F98370
:101460000D931C9320910020309101208A819B8153
:10147000820F931F80930020909301200E94B61149
:10148000DF91CF911F910F9108958091002090914D
:1014900001200895FC010396818392834FEF5FEF53
:1014A000BA014383548365837683878390878187DA
:1014B000928710820895FC01128613860895CF93B7
:1014C000DF93FC01DB0121813281E9018C819D8167
:1014D00014968D939C9315978181928116968D9386
:1014E0009C9317978C819D81EC016E837F83E9012A
:1014F0006C837D83618372831A96ED93FC931B97B3
:1015000080818F5F8083DF91CF9108950F931F9328
:10151000CF93DF93EB01088119812A813B810F3F33
:101520004FEF14072407340731F4DC011996ED91CD
:10153000FC911A971FC0FC013396DC0117964D9160
:101540005C911897DA014D915D916D917C91041732
:1015500015072607370770F00480F581E02DA48178
:10156000B5814D915D916D917C910417150726070A
:10157000370790F7A481B581AC83BD831696CD93D0
:10158000DC931797EE83FF83C483D5838A879B8779
:10159000FC0120812F5F2083DF91CF911F910F915C
:1015A0000895FC01A481B5818681978116968D935B
:1015B0009C931797A681B7818481958114968D930A
:1015C0009C931597A285B38511968D919C91129746
:1015D000E817F90731F48681978111968D939C93D2
:1015E0001297128613868C9181508C930895809364
:1015F0002C3190932D3131E1FC013083319722E27F
:1016000020833197A3E3A083319760833197708360
:101610003197108231971082319760E8608331975B
:1016200010823197108231971082319762E0608387
:10163000319763E06083319764E06083319765E0C0
:101640006083319766E06083319767E0608331970C
:1016500068E06083319769E06083319760E160837F
:1016600031973083319732E13083319733E13083E2
:10167000319734E13083319735E13083319736E16A
:101680003083319737E13083319738E130833197B8
:1016900039E13083319730E23083319731E2308362
:1016A00031972083319723E220833197408331970C
:1016B0005083319726E22083319727E220833197A8
:1016C00028E22083319729E22083319720E3208389
:1016D000319721E32083899708958CE78093690AE5
:1016E0008FEF8093680A81E08093400A90E19093A5
:1016F000410A8093470AA0911831B0911931CD91D8
:10170000CDBFDD91DEBFFF91EF91DF91CF91BF9112
:10171000AF919F918F917F916F915F914F913F9189
:101720002F911F910F91FF90EF90DF90CF90BF907E
:10173000AF909F908F907F906F905F904F903F9071
:101740002F901F900F900CBE0F900BBE0F900FBEEE
:101750000F90089508950F920FB6F8940F920BB65C
:101760000F920CB60F921F9211242F923F924F921C
:101770005F926F927F928F929F92AF92BF92CF9221
:10178000DF92EF92FF920F931F932F933F934F930C
:101790005F936F937F938F939F93AF93BF93CF93F9
:1017A000DF93EF93FF93A0911831B09119310DB6EB
:1017B0000D920EB60D920E94D312A0911831B091E5
:1017C0001931CD91CDBFDD91DEBFFF91EF91DF915A
:1017D000CF91BF91AF919F918F917F916F915F91C9
:1017E0004F913F912F911F910F91FF90EF90DF90BC
:1017F000CF90BF90AF909F908F907F906F905F90B1
:101800004F903F902F901F900F900CBE0F900BBEEB
:101810000F900FBE0F9008950F920FB6F8940F928D
:101820000BB60F920CB60F921F9211242F923F927B
:101830004F925F926F927F928F929F92AF92BF92E0
:10184000CF92DF92EF92FF920F931F932F933F93CC
:101850004F935F936F937F938F939F93AF93BF93B8
:10186000CF93DF93EF93FF93A0911831B09119318B
:101870000DB60D920EB60D920E94B5100E94D312B5
:10188000A0911831B0911931CD91CDBFDD91DEBF5E
:10189000FF91EF91DF91CF91BF91AF919F918F9188
:1018A0007F916F915F914F913F912F911F910F9178
:1018B000FF90EF90DF90CF90BF90AF909F908F9070
:1018C0007F906F905F904F903F902F901F900F9060
:1018D0000CBE0F900BBE0F900FBE0F900895E0E06E
:1018E000F9E080A591A58150934880A791A70E9417
:1018F0000C0C1895CF93DF93EC0188A181110BC0DC
:1019000088819981892BE1F58A819B810E948E14BF
:101910001A821B8235C0411117C0482F50E08C81BC
:101920009D810E94731C28A18C819D81820F911D35
:101930008C839D832A813B818217930708F18881DC
:1019400099818C839D831CC0482F50E08E819F819C
:101950000E94731C88A190E09195819591092E8138
:101960003F81280F391F2E833F83488159812417D7
:10197000350730F42A813B81820F931F8E839F832A
:101980008E8D8F5F8E8FDF91CF910895FC018081C6
:1019900091810097A1F040A150E026813781240F6A
:1019A000351F26833783A281B3812A173B0710F0A6
:1019B00086839783CB01668177810E94731C08958B
:1019C0000F931F93CF93DF93EC010FB6F8940F9210
:1019D0008AA11816B4F48B89811105C012C08B89B5
:1019E000811104C00EC08E010D5E1F4FC8010E9400
:1019F0005A1381110E9417148AA181508AA31816C4
:101A000074F38FEF8AA30F900FBE0FB6F8940F9266
:101A100089A11816B4F48885811105C012C0888583
:101A2000811104C00EC08E01085F1F4FC8010E94C3
:101A30005A1381110E94171489A1815089A3181685
:101A400074F38FEF89A30F900FBEDF91CF911F9199
:101A50000F9108951F93CF93DF93613059F0FC01EC
:101A60002389308531112CC011E0211110E02111A2
:101A700028C001C011E0EC014881598128A130E063
:101A80006F8D629FC001639F900D1124BA01680F92
:101A9000791F6A837B831E8E4C835D83821B930B2D
:101AA000840F951F8E839F838FEF89A38AA3CE0116
:101AB00008960E944A0ACE0143960E944A0A01C033
:101AC00010E0812FDF91CF911F9108950F931F9305
:101AD000CF93DF93882301F1062F182F83E290E044
:101AE0000E947809EC01892BC9F0109FC0011124D4
:101AF00001960E94780988839983892B39F01F8F7A
:101B000008A361E0CE010E942A0D08C0CE010E9408
:101B1000120AC0E0D0E002C0C0E0D0E0CE01DF9108
:101B2000CF911F910F910895AF92BF92CF92DF9204
:101B3000EF92FF920F931F93CF93DF93CDB7DEB752
:101B40002997CDBFDEBF7C015B012E833F83488791
:101B5000598710E06C0188E0C80ED11C0FB6F894CC
:101B60000F92F701968D878D9817A8F4402FB50135
:101B7000C7010E947A0CF7018389882341F0C701CD
:101B800043960E945A13813011F40E94AB0B0F90C0
:101B90000FBE81E056C08E819F81A885B985892BB3
:101BA0008A2B8B2B21F40F900FBE80E04AC01111BD
:101BB00005C0CE0101960E94991311E00F900FBE4F
:101BC0000E9494100FB6F8940F92F70181A18F3FF5
:101BD00009F411A2F70182A18F3F09F412A20F901C
:101BE0000FBEBE016A5F7F4FCE0101960E94AA130D
:101BF000811121C00FB6F8940F92F701968D0F90C6
:101C00000FBE878D981311C04E815F8168857985DD
:101C1000C6010E943013C7010E94E00C0E94B61159
:101C200081119CCF0E94AB0B99CFC7010E94E00CA1
:101C30000E94B61193CFC7010E94E00C0E94B6111A
:101C400080E02996CDBFDEBFDF91CF911F910F912C
:101C5000FF90EF90DF90CF90BF90AF900895AF923C
:101C6000BF92CF92DF92EF92FF920F931F93CF9389
:101C7000DF93CDB7DEB72997CDBFDEBF7C015B0117
:101C80002E833F834887598710E06C0183E1C80E9B
:101C9000D11C0FB6F8940F92F701868D882399F125
:101CA000C680D780B501C7010E94C60C01111AC0B9
:101CB000F701868D8150868F80819181892B29F44F
:101CC0000E943414F70182839383F701808588236F
:101CD000B1F0C70108960E945A13813081F40E9426
:101CE000AB0B0DC0F701C682D7828389882339F0F8
:101CF000C70143960E945A1381110E94AB0B0F90AB
:101D00000FBE81E062C08E819F81A885B985892B35
:101D10008A2B8B2B21F40F900FBE80E056C011113F
:101D200005C0CE0101960E94991311E00F900FBEDD
:101D30000E9494100FB6F8940F92F70181A18F3F83
:101D400009F411A2F70182A18F3F09F412A20F90AA
:101D50000FBEBE016A5F7F4FCE0101960E94AA139B
:101D600081112DC00FB6F8940F92F701868D0F9058
:101D70000FBE81111EC080819181892B49F40FB65D
:101D8000F8940F92828193810E9439140F900FBEB4
:101D90004E815F8168857985C6010E943013C70135
:101DA0000E94E00C0E94B611811173CF0E94AB0B10
:101DB00070CFC7010E94E00C0E94B6116ACFC70124
:101DC0000E94E00C0E94B61180E02996CDBFDEBFD4
:101DD000DF91CF911F910F91FF90EF90DF90CF9007
:101DE000BF90AF9008950FB6F8940F92FC01868DC6
:101DF0000F900FBE0895CCEED0E388818230E8F3D7
:101E00000E94AB0BFACFCF92DF92EF92FF926B0161
:101E10007C01E0911831F0911931628373838483DE
:101E200095838091C0309091C130A091C230B09123
:101E3000C330C816D906EA06FB0668F4609118316B
:101E4000709119318091D2309091D3306E5F7F4F75
:101E50000E94860A21C060911831709119318091D9
:101E6000D4309091D5306E5F7F4F0E94860A80916A
:101E7000022090910320A0910420B0910520C81663
:101E8000D906EA06FB0640F4C0920220D092032055
:101E9000E0920420F0920520FF90EF90DF90CF9029
:101EA00008954F925F926F927F928F929F92AF921E
:101EB000BF92CF92DF92EF92FF920F931F93CF9337
:101EC000DF935C014B013A01290188E290E00E9416
:101ED0007809EC01892B09F4D4C0C114D10409F0AC
:101EE000CCC0C3010E9478098B8F9C8F009721F48E
:101EF000CE010E94120AC5C0A30161E170E00E94F8
:101F00007C1C9301215031098B8D9C8D3C01620E0C
:101F1000731E4AE050E0B401CE014D960E94831C2E
:101F20001EA2102F043008F013E01A8F1FA36E01B9
:101F300022E0C20ED11CC6010E945B0ACE010E96A1
:101F40000E945B0ACA87DB8784E090E0A0E0B0E0F3
:101F5000811B9109A109B1098E879F87A88BB98B35
:101F6000CE8BDF8BA201B501C3010E94F70A8883E3
:101F70009983E114F10419F0F701C083D1830FB6FE
:101F8000F8940F928091C4308F5F8093C430809119
:101F9000183190911931892B89F5C0931831D0935C
:101FA00019318091C4308130C1F58CEE90E30E94EC
:101FB0004A0A87EF90E30E944A0A82E091E30E9476
:101FC0004A0A8DE091E30E944A0A81EE90E30E9462
:101FD0004A0A86ED90E30E944A0A87EC90E30E9449
:101FE0004A0A81EE90E38093D4309093D53086ED09
:101FF00090E38093D2309093D3300FC08091BD3066
:1020000081110BC0E0911831F0911931828D0817C0
:1020100020F0C0931831D09319318A8D9091BF3040
:10202000981710F48093BF309091B8309F5F9093D1
:10203000B8309091BE30981710F48093BE30FBE01A
:102040008F9FC0011124B60184519F4C0E945F0AEA
:102050000F900FBE8091BD30882359F0E091183168
:10206000F0911931828D801730F40E94AB0B81E022
:1020700009C081E007C081E005C0CB8EDC8EC601BF
:102080003BCF8FEFDF91CF911F910F91FF90EF909A
:10209000DF90CF90BF90AF909F908F907F906F9088
:1020A0005F904F9008950FB6F8940F92009721F427
:1020B00080911831909119310F900FBEFC01828DE3
:1020C0000895AF92BF92CF92DF92EF92FF920F935B
:1020D000A12CB12CC12CD12C0F2EF5ECEF2EF0E35E
:1020E000FF2EF02D00E020E030E044E650E066E214
:1020F00070E28BEF9EE00E94510F813069F4F894FA
:102100008093BD301092C0301092C1301092C23016
:102110001092C3300E946D0B0F91FF90EF90DF90F3
:10212000CF90BF90AF9008958091BC308F5F809327
:10213000BC3008950FB6F8940F926091C030709142
:10214000C1308091C2309091C3300F900FBE08957E
:10215000009721F480911831909119314D9608958E
:102160008091C5309091C6300895FF920F931F93D0
:10217000CF93DF938091BC308111EDC08091C0304E
:102180009091C130A091C230B091C3300196A11D91
:10219000B11D8093C0309093C130A093C230B093F2
:1021A000C3308091C0309091C130A091C230B091C5
:1021B000C330892B8A2B8B2BF1F58091D4309091F1
:1021C000D5302091D2303091D3302093D430309319
:1021D000D5308093D2309093D3308091B9308F5FD7
:1021E0008093B930E091D430F091D5308081811165
:1021F0000CC08FEF9FEFDC018093022090930320AF
:10220000A0930420B093052016C0E091D430F09143
:10221000D5300780F085E02D0084F185E02D8281A6
:102220009381A481B5818093022090930320A09391
:102230000420B09305204091C0305091C13060918E
:10224000C2307091C3308091022090910320A09100
:102250000420B0910520481759076A077B0708F446
:102260007FC0E091D430F091D53080818823F9F09F
:10227000E091D430F091D5300780F085E02DC08515
:10228000D1858A819B81AC81BD814091C0305091C4
:10229000C1306091C2307091C330481759076A0746
:1022A0007B0758F10F2EFBE0FF2EF02D2FC08FEF94
:1022B0009FEFDC018093022090930320A0930420E1
:1022C000B09305204DC0E091D430F091D530078017
:1022D000F085E02DC085D1858A819B81AC81BD814F
:1022E0004091C0305091C1306091C2307091C33084
:1022F000481759076A077B0748F480930220909398
:102300000320A0930420B09305202AC08E010E5F05
:102310001F4FC8010E94D10A888D998D892B21F009
:10232000CE010E960E94D10A8A8D9091BE309817E8
:1023300010F48093BE30F89EC0011124B80184517E
:102340009F4C0E945F0AE091D430F091D53080819B
:102350008111B9CFACCF8091BB308F5F8093BB3000
:10236000DF91CF911F910F91FF900895CF92DF924F
:10237000EF92FF920F931F93CF93DF930FB6F894D2
:102380000F928091BC3081508093BC308091BC30E2
:10239000811160C08091C43081112CC05EC0D70112
:1023A0001796ED91FC911897C085D185CE010E96B8
:1023B0000E94D10A8E010E5F1F4FC8010E94D10AF0
:1023C0008A8D9091BE30981710F48093BE30D89EBD
:1023D000C0011124B80184519F4C0E945F0AE09112
:1023E0001831F09119319A8D828D981770F0CC24A4
:1023F000C3940BC0C12C0F2EF7ECEF2EF0E3FF2E91
:10240000F02D0F2EFBE0DF2EF02DF70180818111E2
:10241000C6CF8091BB30882381F08091BB30882368
:1024200099F00E94B5108091BB3081508093BB30F1
:102430008091BB308111F5CF07C0F1E0CF1621F0BC
:102440008091BA30813041F41092BA300E94AB0BC7
:1024500081E003C080E001C080E00F900FBEDF91FB
:10246000CF911F910F91FF90EF90DF90CF90089543
:10247000CF92DF92EF92FF92CF93DF93EC016A014C
:102480007B010E94941088819981AA81BB81C80E2A
:10249000D91EEA1EFB1E4091C0305091C1306091A0
:1024A000C2307091C330481759076A077B07B8F4E8
:1024B000C816D906EA06FB06E0F58091C030909177
:1024C000C130A091C230B091C330C882D982EA82B3
:1024D000FB828C159D05AE05BF05F8F413C0C81628
:1024E000D906EA06FB0600F18091C0309091C13018
:1024F000A091C230B091C3308C159D05AE05BF05CB
:1025000098F017C0809118319091193102960E946D
:10251000D10AC701B6010E94030F0E94B6118111B2
:102520000DC00E94AB0B0AC0C882D982EA82FB822E
:10253000E9CFC882D982EA82FB82EFCFDF91CF91C7
:10254000FF90EF90DF90CF900895CF92DF92EF92BF
:10255000FF926B017C01672B682B692BE9F00E94CD
:1025600094108091C0309091C130A091C230B09150
:10257000C330C80ED91EEA1EFB1E809118319091FF
:10258000193102960E94D10AC701B6010E94030FB9
:102590000E94B611811102C00E94AB0BFF90EF9018
:1025A000DF90CF9008958091BC3081110CC0E091F4
:1025B000BE304BE0E49FF0011124E451FF4C8081D8
:1025C000882329F014C081E08093BA3008959BE0FD
:1025D0008091BE3081508093BE30E091BE309E9F8E
:1025E000F0011124E451FF4C8081882389F380910C
:1025F000BE30282F30E04BE0849FC0011124DC0165
:10260000A451BF4C1196ED91FC9112970480F58175
:10261000E02D1196ED93FC93129781519F4CE81792
:10262000F90761F4848195814BE0429FF001439F5B
:10263000F00D1124E451FF4C818392838BE0829F43
:10264000F001839FF00D1124E451FF4C0180F281D1
:10265000E02D8085918580931831909319310895EC
:10266000CF92DF92EF92FF926A017B016091183165
:1026700070911931625F7F4F0E94860A80911831F4
:102680009091193102960E94D10A8091C0309091A8
:10269000C130A091C230B091C330BC01CD016C0DEE
:1026A0007D1D8E1D9F1D0E94030FFF90EF90DF90F8
:1026B000CF9008950F931F93CF93DF93DC0117966C
:1026C000ED91FC911897C085D1858E01025F1F4F57
:1026D000C8010E94D10A8091BC30811116C00C50F3
:1026E0001109C8010E94D10A8A8D9091BE309817B5
:1026F00010F48093BE30BBE08B9FC0011124B80161
:1027000084519F4C0E945F0A05C0B80187EC90E39A
:102710000E945F0AE0911831F091193181E02A8D11
:10272000928D291708F480E0DF91CF911F910F91CE
:1027300008952091B930FC0120834091C030509120
:10274000C1306091C2307091C33041835283638342
:10275000748308958F929F92AF92BF92CF92DF922F
:10276000EF92FF920F931F93CF93DF93FC010FB66D
:10277000F8940F928091B9309081981789F08091E8
:10278000C0309091C130A091C230B091C33001816E
:1027900012812381348180179107A207B307A8F51E
:1027A0008091C0309091C130A091C230B091C330BF
:1027B000C180D280E380F480EB01088119812A81F5
:1027C0003B818C199D09AE09BF0980179107A207AB
:1027D000B307E8F4CF018090C0309090C130A09052
:1027E000C230B090C330B501A4014C195D096E0927
:1027F0007F09041B150B260B370B088319832A83CB
:102800003B830E94991380E003C081E001C081E016
:102810000F900FBEDF91CF911F910F91FF90EF901E
:10282000DF90CF90BF90AF909F908F90089581E000
:102830008093BA300895009721F4809118319091D7
:102840001931DC015B96ED91FC915C9780818131BF
:1028500041F4319680E090E0019621912131E1F33D
:10286000089580E090E00895809118319091193199
:1028700008950F931F93CF93DF93FC01228DA091B6
:102880001831B09119315A968C91281708F041C02F
:10289000A0911831B09119315A963C9184E090E0A2
:1028A000A0E0B0E0831B9109A109B1098687978751
:1028B000A08BB18B8BE0289F9001112424513F4CB9
:1028C0008485958582179307E9F48F01EF0122969D
:1028D000CE010E94D10AE0911831F0911931828D18
:1028E000F801828F9091BE30981710F48093BE301B
:1028F000FBE08F9FC0011124BE0184519F4C0E94B8
:102900005F0A07C0A0911831B09119315A968C9185
:10291000828FDF91CF911F910F9108950F931F9395
:10292000CF93DF93009749F1FC01328D27A1321735
:1029300021F1EC018C010E5F1F4FC8010E94D10AEA
:102940008FA18A8F44E050E060E070E0481B51099D
:10295000610971094E875F87688B798B9091BE30D2
:10296000981710F48093BE30FBE08F9FC0011124B4
:10297000B80184519F4C0E945F0ADF91CF911F9153
:102980000F910895EC01E881F9810190F081E02D2B
:1029900019951A821B826FEF7FEFCB010E94A5125F
:1029A000FACFFC016487658708954F925F926F921A
:1029B0007F928F929F92AF92BF92CF92DF92EF92CF
:1029C000FF920F931F93CF93DF93CDB7DEB72A9774
:1029D000CDBFDEBF4C01290138018FE290E2F40146
:1029E00080839183FB018081882369F0DE01119649
:1029F000319690E002C0993039F09F5F8D938191BC
:102A00008111F9CF01C090E0E1E0F0E0EC0FFD1F93
:102A1000E90FF11D10827401F2E0EF0EF11CA12C00
:102A2000B12CC12CD12C042F9401A201BE016F5FE7
:102A30007F4F8AE992E00E94510FF401668277820B
:102A40004086518620911A3130911B312483358381
:102A500080921A3190921B311486158640902C3149
:102A600050902D31FFEF4F1A5F0A40922C31509257
:102A70002D31F4014286538616861786108A118AF4
:102A80006114710409F444C0813079F56AE0C3012E
:102A90000E94541A7C0161E874E00E941D1ABE0174
:102AA0006F5F7F4FC7010E941D1A6AE0C7010E9435
:102AB000541A7C0168E774E00E941D1A6AE0C7019D
:102AC0000E94541A7C016AE674E00E941D1A63E0B9
:102AD000C7010E94541AB2010E949B1A62E00E9430
:102AE000541A66E00E94541A13C06AE0C3010E949F
:102AF000541A4C0165E574E00E941D1ABE016F5F17
:102B00007F4FC4010E941D1A66E0C4010E94541A3E
:102B10002A96CDBFDEBFDF91CF911F910F91FF901D
:102B2000EF90DF90CF90BF90AF909F908F907F906D
:102B30006F905F904F900895CF92DF92EF92FF9247
:102B40000F931F93CF93DF93EC017B018A819B81CD
:102B50000E94A8106C016AE0C7010E94541A8C01FF
:102B600064E974E00E941D1A6AE0C8010E94541AC8
:102B70008C016DE874E00E941D1AB601C8010E9424
:102B80001D1A6AE0C8010E94541A8C0167E874E0BB
:102B90000E941D1A66E0C8010E94541A8A859B850E
:102BA000E885F98501E121E0A701BC018E1B9F0B9F
:102BB0000E949E188C819D81009719F0B7010E9498
:102BC0009C15DF91CF911F910F91FF90EF90DF90B7
:102BD000CF9008950F931F93CF93DF93EC018091D3
:102BE0001A3190911B31009719F0BE010E949C157B
:102BF0006AE0CE010E94541A8C016AEA74E00E94D5
:102C00001D1A6AE0C8010E94541A8C016FE974E031
:102C10000E941D1A6AE0C8010E94541A8C0169E9D9
:102C200074E00E941D1A66E0C8010E94541A809147
:102C30002C3190912D31BC016F5F7F4F01E121E07C
:102C4000AE01835691090E949E18DF91CF911F918A
:102C50000F9108958F929F92AF92BF92CF92DF9281
:102C6000EF92FF920F931F93CF93DF93EC018B01B1
:102C70008A819B810E94A810BC01C8010E941D1A74
:102C8000D801ED91FC910280F381E02D69E0C8014B
:102C900019958A819B810E94A810FC010190002057
:102CA000E9F73197E81BF90B389748F4D801ED9113
:102CB000FC910280F381E02D69E0C8011995CE8472
:102CC000DF84E888F988A884B9848A819B810E947E
:102CD0001B14982E8C848A819B810E945310682F2C
:102CE000C8010E94111B6AE00E94541AEC016FE1B6
:102CF00075E00E941D1A682DCE010E94111B6AE02A
:102D00000E94541AEC016DE175E00E941D1A692DB4
:102D1000CE010E94111B6AE00E94541AEC016BE183
:102D200075E00E941D1AB501CE010E949B1A6AE04F
:102D30000E94541AEC0169E175E00E941D1A6AE0D4
:102D4000CE010E94541AEC0167E175E00E941D1A41
:102D5000B701A601CE010E94CF1ADF91CF911F913A
:102D60000F91FF90EF90DF90CF90BF90AF909F902A
:102D70008F900895CF93DF93EC01CB01DB01ED91B0
:102D8000FC910280F381E02DBE011995CE01DF9107
:102D9000CF9108950F931F93CF93DF93EC018B0195
:102DA000BC01C8010E94BA1666E00E94541A8C81C8
:102DB0009D81009719F0B8010E94CA16DF91CF914A
:102DC0001F910F9108950F931F93CF93DF93EC0101
:102DD0006AE00E94541A8C016CE075E00E941D1A92
:102DE0006AE0C8010E94541A8C0165E075E00E94F7
:102DF0001D1A66E0C8010E94541A6AE0CE010E94C2
:102E0000541A8C0164EF74E00E941D1A6AE0C80134
:102E10000E94541A8C0168EE74E00E941D1A6AE048
:102E2000C8010E94541A8C0162EE74E00E941D1ABF
:102E300066E0C8010E94541A6AE0CE010E94541A4A
:102E40008C0161ED74E00E941D1A6AE0C8010E94C5
:102E5000541A8C0165EC74E00E941D1A6AE0C801E6
:102E60000E94541A8C016FEB74E00E941D1A66E0F8
:102E7000C8010E94541A80911A3190911B31009719
:102E800019F0BE010E94CA160E94B0100E941B14C5
:102E9000182F6AE0CE010E94541AEC0164EB74E032
:102EA0000E941D1A612FCE010E94111B6AE00E9430
:102EB000541AEC0162EB74E00E941D1A64E670E0A3
:102EC000CE010E949B1A6AE00E94541AEC016FEA3C
:102ED00074E00E941D1A66E0CE010E94541ADF9130
:102EE000CF911F910F9108950F93CF93DF931F926E
:102EF000CDB7DEB700E02FEF3FEFA901BE016F5F56
:102F00007F4FFC01808591850E942F0E813019F43E
:102F1000898190E002C08FEF9FEF0F90DF91CF91FA
:102F20000F910895FC01808591850E94F30E91E038
:102F3000811101C090E0892F08950F93CF93DF9303
:102F40001F92CDB7DEB76983FC01228533854485A6
:102F5000558500E0BE016F5F7F4F808591850E949F
:102F6000940D91E0811101C090E0892F0F90DF91C5
:102F7000CF910F9108958F929F92BF92CF92DF923F
:102F8000EF92FF920F931F93CF93DF93EC01B62E36
:102F90004A01680179010E940F1A87E390E2888351
:102FA00099838E869F8640E061E08B2D0E94660D9E
:102FB00088879987CA86DB86EC86FD86DF91CF916C
:102FC0001F910F91FF90EF90DF90CF90BF909F9057
:102FD0008F900895CF92DF92EF92FF92CF93DF937D
:102FE000EC01688179818A819B810F2EF8EECF2ECA
:102FF000F3E0DF2EE12CF12CF02DA70196010E94C9
:10300000101C9B01AC0160E472E48FE090E00E9430
:10301000001CA70196010E94101C69017A01AC8175
:10302000BD8120E432E44FE050E00E94591C20E0D2
:1030300038E448EE51E00E94101CC701B601620F4F
:10304000731F841F951FDF91CF91FF90EF90DF904A
:10305000CF900895CF92DF92EF92FF920F931F933C
:10306000CF93DF93CDB7DEB72F97CDBFDEBF6C0117
:103070008B01DB016D917D918D919C9128EE33E068
:1030800040E050E00E94101CBA01A901C6010E9454
:10309000CF1AD601ED91FC910280F381E02D6EE212
:1030A000C6011995C8010E94EA178E01095F1F4FDA
:1030B000FE0131967F012AE030E040E050E00E94BE
:1030C000321CE62F288739874A875B876885798590
:1030D0008A859B8520E32E0FD8012E938D01AE1596
:1030E000BF0549F71F82BE016F5F7F4FC6010E9477
:1030F0001D1AC6012F96CDBFDEBFDF91CF911F9164
:103100000F91FF90EF90DF90CF900895CF93DF93D2
:10311000EC010FB6F8940F9280912008909121084D
:103120008C839D830E949A10688379838A839B8312
:103130000F900FBECE01DF91CF9108955F926F92F5
:103140007F928F929F92AF92BF92CF92DF92EF9237
:10315000FF920F931F93CF93DF935C014B017A0192
:10316000122F702E63E0CA010E94541AA814B904E9
:1031700008F07DC0650184E1C80ED11C00E06A2C16
:103180005B2CB501C7010E949B1A6AE00E94541A89
:1031900061E375E00E941D1A112309F46DC000233C
:1031A00009F46AC06AE0C7010E94541A6CE275E033
:1031B0000E941D1A61C0112371F001110CC0888199
:1031C000871549F06AE0C7010E94541A67E275E06A
:1031D0000E941D1A01E06991C7010E94111BDC01C8
:1031E000ED91FC910280F381E02D60E21995CC16FF
:1031F000DD0609F7112389F06AE0C7010E94541A1D
:10320000EC0161E275E00E941D1AE881F9810280FB
:10321000F381E02D60E2CE011995C62DD52D69917F
:1032200080EE860F8F3548F4D701ED91FC91028036
:10323000F381E02DC701199509C0D701ED91FC91EB
:103240000280F381E02D6EE2C7011995CC16DD06F0
:1032500031F7B4E1AB0EB11C66E0C7010E94541A0D
:1032600084E1C80ED11CA814B90408F488CF62E028
:10327000C7010E94541A03C0C62DD52D9CCFDF91E3
:10328000CF911F910F91FF90EF90DF90CF90BF9063
:10329000AF909F908F907F906F905F9008950E9465
:1032A000780908950E94780908950895CF93DF93CF
:1032B000FC01DA01403A68E0560749F480E496E000
:1032C0008283938382E0848383E085834CC0403B88
:1032D00078E0570749F480E496E08283938386E0A0
:1032E000848387E085833FC0403A89E0580749F4EA
:1032F00080E696E08283938382E0848383E0858303
:1033000032C0403B69E0560749F480E696E082838C
:10331000938386E0848387E0858325C0403A7AE002
:10332000570749F480E896E08283938382E08483A0
:1033300083E0858318C0403B8AE0580749F480E861
:1033400096E08283938386E0848387E085830BC045
:10335000403A5B4041F480EA96E08283938382E0C6
:10336000848383E08583A683B783CD01019680871C
:1033700091870396828793872581C281D3814C816F
:1033800081E090E0BC0102C0660F771F2A95E2F74A
:103390009B01242B2C832581C281D3814881BC01D0
:1033A00002C0660F771F2A95E2F79B01242B288322
:1033B0003481C281D381288102C0880F991F3A9538
:1033C000E2F7809590958223888380E113968C9311
:1033D000139783E015968C93159780EF17968C932F
:1033E000179781E216968C93169788E114968C9322
:1033F00080E8858780E4868780E284870680F7817D
:10340000E02D80818081DF91CF91089581E0089542
:1034100080E090E0089580E0089508950895FC010B
:1034200087E490E2808391838AE08283138283E041
:10343000858314821682178208950F931F93CF936A
:10344000DF938C01FB01DC0114968C91811104C087
:103450006081611117C023C0D80114961C92EB0142
:10346000219664916623D9F0D801ED91FC910280F8
:10347000F381E02DC8011995FE0164912196611137
:10348000F3CF0DC0EF012196D801ED91FC910280A0
:10349000F381E02DC801199569916111F5CFDF9194
:1034A000CF911F910F910895CF93DF93EC01862F59
:1034B00090E08B309105D8F5FC018827E250FF4F52
:1034C0008F4F0C94511C82E08A8331C088E08A833C
:1034D0002EC08AE08A832BC080E18A8328C081E0E5
:1034E0008B8325C01B8223C0E881F9810280F38190
:1034F000E02D6DE0CE011995E881F9810280F3811C
:10350000E02D6AE0CE01199512C0E881F9810284AC
:10351000F385E02DCE0119950AC0E881F981008478
:10352000F185E02DCE01199502C081E08C83CE019A
:10353000DF91CF910895FF920F931F93CF93DF9365
:10354000CDB7DEB76197CDBFDEBF8C01F62E972FCA
:10355000F8014281403121F0483011F0423041F40D
:10356000692FC8010E94111B6F2D0E94111B0DC0F5
:1035700050E0BE016F5F7F4F8F2D0E94BF1CBE01C8
:103580006F5F7F4FC8010E941D1AC8016196CDBFB1
:10359000DEBFDF91CF911F910F91FF900895DF92D1
:1035A000EF92FF920F931F93CF93DF93CDB7DEB7C8
:1035B000A197CDBFDEBF8C01D42EE52EF62E972F1E
:1035C000F8012281203121F0283011F0223071F4ED
:1035D000692FC8010E94111B6F2D0E94111B6E2DB7
:1035E0000E94111B6D2D0E94111B0FC030E0AE0117
:1035F0004F5F5F4F6D2D7E2D8F2D0E94921CBE015F
:103600006F5F7F4FC8010E941D1AC801A196CDBFF0
:10361000DEBFDF91CF911F910F91FF90EF90DF9070
:103620000895CF92DF92EF92FF920F931F93CF9363
:10363000DF93CDB7DEB72997CDBFDEBF8C01E62E75
:10364000DC0113968C911397882341F0ED91FC9146
:103650000280F381E02DC801199556C0F80142811E
:10366000423019F56894CC24C3F8D12C6894FF2417
:10367000F7F88E2D8F2151F0D801ED91FC91028049
:10368000F381E02D61E3C801199509C0D801ED91DE
:10369000FC910280F381E02D60E3C8011995F69456
:1036A000B1E0CB1AD10829F72FC04031F9F4629567
:1036B0006F700190F081E02D0280F381E02D6A307F
:1036C00010F0695C01C0605DC80119956E2D6F70C6
:1036D000D801ED91FC910280F381E02D6A3010F069
:1036E000695C01C0605DC80119950EC050E0BE0163
:1036F0006F5F7F4F8E2D90E00E94BF1CBE016F5FF9
:103700007F4FC8010E941D1AC8012996CDBFDEBF98
:10371000DF91CF911F910F91FF90EF90DF90CF90AD
:1037200008950F931F93CF93DF93CDB7DEB76D97B7
:10373000CDBFDEBFF8940E944509E0E6F6E080E8E0
:103740008683818382E08093B4009DEF88ED08B684
:1037500018BE84BF9093800008BE40EA59E060E044
:1037600070E0CE0101960E94360367E0CE0101961B
:103770000E94541A8C0163E570E20E941D1A66E0F3
:10378000C8010E94541A66E00E94541A82E190E037
:103790000E944F198E010F5F1F4F24E031E040E07F
:1037A00062E770E20E94C00683E190E00E944F1938
:1037B00024E031E041E06AE770E20E94B00687E071
:1037C0008093A20078940E94611080E090E06D9652
:1037D000CDBFDEBFDF91CF911F910F9108950F9361
:1037E0001F930AE010E020E030E040E050E060E2AB
:1037F00070E08CE191E30E94BB171F910F91089537
:10380000DB018F939F930E94591CBF91AF91A29FA0
:10381000800D911DA39F900DB29F900D11240895CE
:10382000A1E21A2EAA1BBB1BFD010DC0AA1FBB1FC4
:10383000EE1FFF1FA217B307E407F50720F0A21B36
:10384000B30BE40BF50B661F771F881F991F1A94A3
:1038500069F760957095809590959B01AC01BD01CD
:10386000CF010895052E97FB1EF400940E94491C79
:1038700057FD07D00E94101C07FC03D04EF40C9497
:10388000491C50954095309521953F4F4F4F5F4FC4
:10389000089590958095709561957F4F8F4F9F4FBC
:1038A0000895EE0FFF1F881F8BBF0790F691E02D44
:1038B00019940E94641CA59F900DB49F900DA49F25
:1038C000800D911D11240895A29FB001B39FC001E6
:1038D000A39F700D811D1124911DB29F700D811D3C
:1038E0001124911D0895FB01DC0102C001900D928D
:1038F00041505040D8F70895DC0101C06D9341500C
:103900005040E0F70895FB01DC014150504048F081
:1039100001900D920020C9F701C01D924150504006
:10392000E0F708952532310520F4223010F00C9490
:103930009D1CFA011082CA010895BB27FA01A62F27
:103940006217710581059105330B30FB66F0AA27DC
:10395000660F771F881F991FAA1FA21710F0A21BBE
:1039600063953850A9F7A05DAA3308F0A95DA1932B
:1039700036F7B111B1931082CA010C94E41C4532A0
:10398000510520F4423010F00C94CA1CFB01108247
:10399000CB010895BB27FB015527AA27880F991F44
:1039A000AA1FA41710F0A41B83955051B9F7A05D6E
:1039B000AA3308F0A95DA193009779F7B111B193EB
:1039C0001192CB010C94E41CDC01FC01672F719176
:1039D0007723E1F7329704C07C916D9370836291F5
:0C39E000AE17BF07C8F30895F894FFCF9E
:1039EC00FF0FFFFFFFFF00000000061AD0021A03B2
:1039FC00F4020D1A2D030000000040062A160000E8
:103A0C00000003082A1649444C45000000000055EC
:103A1C00192A1600000000061A9D17921774170D2C
:103A2C001A0E1A00000000061A55190B1A081A0D66
:103A3C001A0E1A4672656552544F5320586D6567BD
:103A4C00612054657374696E672050726F67726180
:103A5C006D0055736572496E74004C454420424CA0
:063A6C00494E4B455200DB
:00000001FF
