S01600004652454552544F535F5348454C4C2E73726563CD
S11300000C94E2010C9413020C9413020C9413024A
S11300100C9413020C9413020C9413020C94130208
S11300200C9413020C9413020C9413020C941302F8
S11300300C9413020C9413020C9444090C9471094B
S11300400C949E090C94CB090C94F8090C94250A81
S11300500C94520A0C947F0A0C94AC0A0C94D90A9E
S11300600C9413020C941C220C9413020C9413028F
S11300700C9474220C9413020C9413020C94130227
S11300800C9413020C9413020C9413020C94130298
S11300900C9413020C9413020C9413020C94130288
S11300A00C9413020C9413020C9413020C94130278
S11300B00C9413020C9413020C9413020C94C80CA9
S11300C00C94F50C0C94220D0C944F0D0C947C0D97
S11300D00C94A90D0C94D60D0C94030E0C9463147B
S11300E00C94300E0C9413020C947C230C94130285
S11300F00C9413020C94D4230C9413020C94130246
S11301000C9413020C9413020C9413020C94130217
S11301100C9413020C9413020C9413020C94130207
S11301200C9413020C9413020C9413020C941302F7
S11301300C9413020C94060B0C94330B0C94600B6C
S11301400C948D0B0C94BA0B0C94E70B0C94140CBC
S11301500C94410C0C946E0C0C949B0C0C94130298
S11301600C94CC220C9413020C9413020C942423AC
S11301700C9413020C9413020C9413020C941302A7
S11301800C9413020C9413020C9413020C94130297
S11301900C9413020C9413020C9413020C94130287
S11301A00C9413020C9413020C9413020C94130277
S11301B00C945D0E0C948A0E0C94B70E0C94E40E01
S11301C00C94110F0C943E0F0C9413020C94130214
S11301D00C9413020C9413020C9413020C942C240C
S11301E00C9413020C9413020C9413020C94130237
S11301F00C9413020C9413020C94130269107C10D7
S11302008F10A210B510C810DB10A51FA81FAB1FBC
S1130210AE1FB11FB41FB61FC71FCF1FD91FD71FD3
S1130220084AD73B3BCE016E84BCBFFDC12F3D6C59
S113023074319ABD56833DDA3D00C77F11BED9E4BF
S1130240BB4C3E916BAAAABE000000803F05A84C9F
S1130250CDB2D44EB93836A9020C50B9918688086B
S11302603CA6AAAA2ABE000000803F000C94AE1F40
S11302700C94A81F0C94481F0C94D71F0C94441E74
S11302800C94EF160C94FB040C94501F0C94A210C5
S11302900C944D1F0C947C100C94C71F0C944A1F93
S11302A00C941B1E0C9469100C94CF1F0C94DF014A
S11302B00C94C8100C9414210C94B41F0C94E224D4
S11302C00C94B11F0C94DB100C94391E0C94A51FD4
S11302D00C94B5100C9471210C94AB1F0C94D7069C
S11302E00C948B1D0C94B61F0C945E210C944F1F20
S11302F00C9438210C94971E0C94D91F0C948F10D5
S1130300526573657474696E67004552524F52208A
S1130310696E207461736B20004552524F52206302
S113032072656174696E67207461736B20002C20A0
S1130330737461636B20617420307800206372658C
S113034061746564005461736B20000909002F0017
S113035049444C45090930092D0900092D2D2D2D3D
S113036000092D2D2D2D2D2D2D2D2D2D002D2D2D37
S11303702D09092D2D2D2D092D2D2D2D2D00095241
S1130380756E730009467265652F546F74616C0055
S11303904E616D6509095072692E09537461746563
S11303A00009537461636B005461736B0909202065
S11303B0092000090009002F0009000900000E941B
S11303C0B11CE22411241FBECFEFCDBFDFE3DEBF9B
S11303D000E00CBF11E2A0E0B0E2E4EAF2E500E0E4
S11303E00BBF02C007900D92AE32B107D9F722E3DA
S11303F0AEE2B1E201C01D92A034B207E1F711E010
S1130400C2EED1E000E006C021970109802FFE0171
S11304100E949928C13ED10780E00807A9F70E94ED
S113042084240C9450290C940000FC01618B728B81
S1130430438B548B258B368B0895FC01678B708F0F
S1130440418F528F238F348F0895FC01658F768FEF
S113045008956536710534F024E630E0FC0125ABDF
S113046036AB0895FC0165AB76AB0895FC0125A974
S113047036A9261737071CF427AB30AF0895FC01C3
S113048067AB70AF0895CF93DF93EC014E875F871E
S1130490688B613399F424EF31E041E060E00E941D
S11304A0561024EF31E042E060E0CE0107960E944E
S11304B0561081E090E08FA398A714C0623391F4A2
S11304C024EF31E043E060E00E94561024EF31E075
S11304D044E060E0CE0107960E9456108FEF9FEF34
S11304E08FA398A71BA61CA619AA1AAA198A1A8A46
S11304F01B8A1C8A1D8A1E8A1F8A188E198E1A8EC0
S11305001B8E1C8E1DAA1EAA60E070E0CE010E9404
S1130510360219AE1AAE1BAE1CAE1F8E18A21DA257
S11305201EA219A21AA21BA21CA281E090E08D8F28
S11305309E8FDF91CF910895FC0161AF72AF089552
S1130540FC0163AF74AF0895FC01678F70A3089535
S1130550FC0165A376A30895FC0161A372A3089529
S1130560FC0163A374A308955F926F927F928F92AC
S11305709F92AF92BF92CF92DF92EF92FF920F932E
S11305801F93CF93DF938C01EB015E2C6F8D78A1C9
S113059089A19AA1681B790B69A77AA7EDA1FEA18D
S11305A08BA19CA1E81BF90BEFA7F8AB8BA59CA52D
S11305B0860F971F8BA79CA7A9ADBAADA817B9073B
S11305C01CF4ABA7BCA708C0B195A195B1098A17C3
S11305D09B0714F4ABA7BCA789A99AA98E0F9F1FE8
S11305E089AB9AABABADBCADA817B9071CF4A9ABEA
S11305F0BAAB08C0B195A195B1098A179B0714F449
S1130600A9ABBAAB1DA61EA61BAA1CAAC42ED12C2C
S113061030E0AD8CBE8CAB89BC898BA59CA5A89F12
S1130620A001A99F500DB89F500D1124429FC001F5
S1130630439F900D529F900D1124A989BA896A9FF6
S1130640A0016B9F500D7A9F500D11244C9DB00159
S11306504D9D700D5C9D700D1124860F971FB50183
S11306600E946328EFA8F8ACE616F70654F0882732
S113067099278E199F093B01681779071CF43C01DF
S113068001C037018FA098A4698D7A8D49A95AA910
S1130690649FC001659F900D749F900D1124829FEB
S11306A0A001839F500D929F500D11242F89388DE6
S11306B0E29FC001E39F900DF29F900D11248C9D49
S11306C090018D9D300D9C9D300D1124420F531FC0
S11306D0489DC001499D900D589D900D1124B50170
S11306E00E946328CDA8DEA85601AE18BF08A6163E
S11306F0B7063CF0EC18FD085B016E157F050CF4A1
S1130700570193012A0D3B1D289DC001299D900D81
S1130710389D900D1124C816D9064CF02227332792
S11307202C193D096C01821793070CF469015520BB
S113073039F11C141D0494F464E6CE010E941F11C7
S1130740C601DD2024F4882799278C199D0964E6C5
S1130750681BCE0107960E941F1134C0C601DD201C
S113076024F4882799278C199D0964E6681BCE0117
S11307700E941F1164E6CE0107960E941F1122C039
S11307801C141D0484F4B601DD2024F466277727A5
S11307906C197D09CE010E941F1160E0CE010796FD
S11307A00E941F110FC060E0CE010E941F11B6010C
S11307B0DD2024F4662777276C197D09CE0107967E
S11307C00E941F11F801C082D18262827382A482C6
S11307D0B58289A99AA9868397838BA59CA58087CE
S11307E09187C801DF91CF911F910F91FF90EF90F6
S11307F0DF90CF90BF90AF909F908F907F906F903D
S11308005F900895FC014423F9F06630E8F587E031
S113081090E0062E02C0880F991F0A94E2F78283A3
S113082084E090E0062E02C0880F991F0A94E2F734
S11308308093B0008089887F211102C090E001C0BC
S113084090E4892B808B0BC0673000F583E090E047
S1130850062E02C0880F991F0A94E2F7828383E070
S113086090E002C0880F991F6A95E2F78093B00068
S11308709089987F9360211102C080E001C080E4D8
S1130880982B908B81E0089580E0089580E008958E
S11308908230A9F0843021F1811133C0E0E8F1E025
S11308A0608389E08087442371F16E5F618381E016
S11308B0818780858061282B208781E00895E0E886
S11308C0F1E0628389E082874423F9F06E5F6383F9
S11308D081E0838782858061282B228781E00895C7
S11308E0E0E8F1E0648389E08487442381F06E5F6B
S11308F0658381E0858784858061282B248781E056
S1130900089580E0089581E0089581E0089581E0EC
S113091008958F92AF92BF92CF92DF92EF92FF929F
S11309200F931F93CF93DF93CDB7DEB7122FDF84DE
S1130930F888242F4E2D0E940204882381F02C2D48
S11309404E2D602F812F0E944804882341F0982D5A
S11309509066F5019383D6A2F7A291E09083DF918C
S1130960CF911F910F91FF90EF90DF90CF90BF90A8
S1130970AF908F9008958F92AF92BF92CF92DF92F3
S1130980EF92FF920F931F93CF93DF93CDB7DEB710
S1130990122FDF84F888242F4E2D0E94020488230E
S11309A081F02C2D4E2D602F812F0E944804882326
S11309B041F0982D9066F5019383D6A2F7A291E0B9
S11309C09083DF91CF911F910F91FF90EF90DF9073
S11309D0CF90BF90AF908F900895FC0190A121A17A
S11309E0892F90E0922B0895FC0190A121A1892FD9
S11309F090E0922B0895CF93DF93CDB7DEB7C6591D
S1130A00D109CDBFDEBF8C01FC014681578161E372
S1130A10CE0101960E944302F8014681578162E3A8
S1130A20CE01CE960E94430264E670E0CE010196A8
S1130A300E94250264E670E0CE01CE960E94250253
S1130A4020E030E041E050E06EE170E0CE0101963C
S1130A500E94150220E030E041E050E06EE170E0D9
S1130A60CE01CE960E94150220E030E04AE050E02C
S1130A706CE370E0CE0101960E941D0220E030E09C
S1130A804AE050E06CE370E0CE01CE960E941D0275
S1130A9062E370E0CE0101960E94290262E370E0F5
S1130AA0CE01CE960E9429026EE170E0CE0101963D
S1130AB00E9436026EE170E0CE01CE960E943602AC
S1130AC064EF71E0CE0101960E949C0264EF71E034
S1130AD0CE01CE960E949C0260ED77E0CE01019695
S1130AE00E94A00260ED77E0CE01CE960E94A002A3
S1130AF00E948E18C157DF4F688379838A839B8352
S1130B00CF58D040F801068117816AE070E2C8012D
S1130B100E945F1F66E0C8010E94961F609100203A
S1130B20709101208091482190914921681B790B93
S1130B30072E000C880B990B0E9481266B017C0107
S1130B40009102201091032080914A2190914B2121
S1130B50081B190BB801012E000C880B990B0E947D
S1130B6081264B015C01A7019601C701B6010E94D1
S1130B707B272B013C01A5019401C501B4010E940E
S1130B807B27CD56DF4F688379838A839B83C35940
S1130B90D040CD56DF4F288139814A815B81C359CA
S1130BA0D040C301B2010E94F4240E94F6270E949F
S1130BB049262B013C016093302170933121A5011A
S1130BC09401C701B6010E9473250E9449266B0156
S1130BD07C01CB018419950980932E2190932F21B8
S1130BE0101611063CF05194419451084092302162
S1130BF05092312160E070E0CE0101960E94AC0277
S1130C0060E070E0CE01CE960E94AC02609130218B
S1130C1070913121CE0101960E94A402609130218D
S1130C2070913121CE01CE960E94A402809146217A
S1130C3090914721B601681B790BCE0101960E9461
S1130C40B0028091462190914721B601681B790B2F
S1130C50CE01CE960E94B00260912E2170912F2178
S1130C60CE0101960E94A80260912E2170912F213D
S1130C70CE01CE960E94A802EE24E39400E021E087
S1130C8041E0BE016F5F7F4FCE0185589F4F0E94A8
S1130C90B40221E041E0BE01625C7F4FCE018B577C
S1130CA09F4F0E94B402ED968EAD9FADED97809359
S1130CB0442190934521CB57DF4F88819981C558B2
S1130CC0D0408093422190934321EF968EAD9FAD07
S1130CD0EF978093382190933921C957DF4F88814A
S1130CE09981C758D0408093362190933721C158B9
S1130CF0DF4F88819981CF57D040809334219093DE
S1130D003521C757DF4F88819981C958D0408093D6
S1130D10322190933321CD57DF4F88819981C35875
S1130D20D0408093402190934121C357DF4F888165
S1130D309981CD58D04080933E2190933F21CF5745
S1130D40DF4F88819981C158D04080933C21909392
S1130D503D21C557DF4F88819981CB58D04080937E
S1130D603A2190933B210E948E18C157DF4F68832C
S1130D7079838A839B83CF58D0404AE050E060E077
S1130D8070E0CE0181579F4F0E94271AC7CE0F9360
S1130D901F93CF93DF93EC010E94C41C8BE290E27B
S1130DA088839983DF91CF911F910F910895CF93F9
S1130DB0DF93CDB7DEB72897CDBFDEBF3C010E94DD
S1130DC08E1869837A838B839C836AE070E080E069
S1130DD090E00E94941A55245A940F2EF4E12F2E79
S1130DE0312CF02D0F2EF4E14F2EF02DF3018485DC
S1130DF0882321F0813009F462C0C3C15F925F92FD
S1130E006894882483F80F2EF0E4AF2EF9E0BF2E07
S1130E10F02DC12CE12C0CE620E040E064E080E6FB
S1130E2096E00E94BB04F82EF301068117816FE25D
S1130E3070E2C8010E945F1F6F2DC8010E94DD1F70
S1130E4066E00E94961F5F925F920F2EFAE08F2E4B
S1130E50F02D0F2EA12CFBE0BF2EF02D04E722E095
S1130E6040E064E080E896E00E948904F82EF301F3
S1130E700681178164E470E2C8010E945F1F6F2D30
S1130E80C8010E94DD1F66E00E94961F80E499E07D
S1130E900E94F404F301878B908F80E09BE00E9412
S1130EA0ED04F301818F928F13A614A661E0C301B0
S1130EB00E94C01C0F900F900F900F9062C180E4AD
S1130EC099E00E94F404919581959109F301838B33
S1130ED0948B80E09BE00E94ED04F301858B968B5C
S1130EE0E388F4882789308DE21AF30AEE0CFF1C9C
S1130EF0EE0CFF1CE38EF48E218D328D821B930B3E
S1130F008C01000F111F000F111F058F168FC801D0
S1130F108E199F09878F90A3C680D78069E570E2F8
S1130F20C6010E945F1FB701C6010E94F51F7C0124
S1130F3062E470E20E945F1FB801C7010E94F51FBE
S1130F4066E00E94961FF301838D948DB1010E9487
S1130F5063287B0161A372A3858D968DB1010E94E4
S1130F6063288B0163A374A3C680D78065E770E20E
S1130F70C6010E945F1F63E0C6010E94961FB7016D
S1130F800E94F51F6C0162E470E20E945F1FB701CA
S1130F9075956795C6010E94F51F7C016DE770E2A7
S1130FA00E945F1FB801C7010E94F51F7C0162E423
S1130FB070E20E945F1FB80175956795C7010E9492
S1130FC0F51F66E00E94961FF30123A134A181A1BD
S1130FD092A18901080F191F112314F4095F1F4FEF
S1130FE0159507951595079515950795F30105A38F
S1130FF016A3409E5001419EB00C1124A1A6B2A696
S1131000281B390BC9016CE478E00E9463286B014A
S113101067A370A7429EC001439E900D11246CE407
S113102078E00E9463287B0163A774A78680978079
S113103064E870E2C4010E945F1F63E0C4010E947F
S1131040961FB8010E94F51F8C016DE870E20E94A2
S11310505F1FB501C8010E94F51F8C016AE970E2A7
S11310600E945F1FB601C8010E94F51F8C0163EA4C
S113107070E20E945F1FB701C8010E94F51F66E07D
S11310800E94961FF30103A514A5159507951595C0
S1131090079587A590A9080F191F07A710AB61A58D
S11310A072A5072E000C880B990B0E9481264B0118
S11310B05C01B801012E000C880B990B0E9481265B
S11310C06D837E838F8398870E94D2259B01AC0118
S11310D0C501B4010E947B270E9449266B017C0153
S11310E0F30161AB72AB6D817E818F8198850E9423
S11310F0E8279B01AC01C501B4010E947B270E9433
S11311004926F30163AB74ABD594C794D594C794C3
S113111025A936A9C20ED31EC5AAD6AAAB015595D8
S113112047955595479587A990ADBA01680F791FE2
S113113067AB70AFC0924A21D0924B216093482193
S11311407093492100934621109347218389948900
S1131150878B908F85899689818F928F86859785D5
S1131160A089B1890196A11DB11D86879787A08B9F
S1131170B18B45E050E060E070E0CE0101960E9442
S1131180271AF30186859785A089B1890196A11D47
S1131190B11D86879787A08BB18B4AE050E060E051
S11311A070E0CE0101960E94271A20CE0F931F9360
S11311B0CF93DF93EC010E94C41C87EB90E28883F9
S11311C09983DF91CF911F910F9108950F93CF933E
S11311D0DF931F92CDB7DEB72FB72983F8941BBED8
S11311E0FC0108ED04BF608389818FBF0F90DF91FC
S11311F0CF910F910895CF93DF931F92CDB7DEB7B0
S11312008FB78983F894E0E5F0E08BEC82838081EA
S113121088608083818183FFFDCFE0E5F0E082EC8C
S11312208583808180618083818184FFFDCFE0E4B8
S1131230F0E06081687F6460608388ED84BF80E44F
S113124090E00E94E608E0E5F0E080818B7F8083F7
S113125089818FBF0F90DF91CF910895CF93DF9352
S11312601F92CDB7DEB79FB79983F8949981E82F81
S1131270F0E0E059FF4F60958081682360839FBF51
S11312800F90DF91CF9108951F920F920FB60F9296
S113129011240BB60F922F933F934F935F936F9349
S11312A07F938F939F93AF93BF93EF93FF93E091BB
S11312B09021F0919121309709F01995FF91EF91C8
S11312C0BF91AF919F918F917F916F915F914F915A
S11312D03F912F910F900BBE0F900FBE0F901F9058
S11312E018951F920F920FB60F9211240BB60F92FE
S11312F02F933F934F935F936F937F938F939F931A
S1131300AF93BF93EF93FF93E0918E21F0918F21E0
S1131310309709F01995FF91EF91BF91AF919F918B
S11313208F917F916F915F914F913F912F910F908A
S11313300BBE0F900FBE0F901F9018951F920F9227
S11313400FB60F9211240BB60F922F933F934F9326
S11313505F936F937F938F939F93AF93BF93EF9319
S1131360FF93E0918C21F0918D21309709F019952C
S1131370FF91EF91BF91AF919F918F917F916F9169
S11313805F914F913F912F910F900BBE0F900FBE25
S11313900F901F9018951F920F920FB60F92112461
S11313A00BB60F922F933F934F935F936F937F935B
S11313B08F939F93AF93BF93EF93FF93E0918A2111
S11313C0F0918B21309709F01995FF91EF91BF911E
S11313D0AF919F918F917F916F915F914F913F91C9
S11313E02F910F900BBE0F900FBE0F901F9018956A
S11313F01F920F920FB60F9211240BB60F922F93D8
S11314003F934F935F936F937F938F939F93AF9388
S1131410BF93EF93FF93E0918821F0918921309756
S113142009F01995FF91EF91BF91AF919F918F9121
S11314307F916F915F914F913F912F910F900BBED0
S11314400F900FBE0F901F9018951F920F920FB61A
S11314500F9211240BB60F922F933F934F935F93E8
S11314606F937F938F939F93AF93BF93EF93FF9368
S1131470E0918621F0918721309709F01995FF9129
S1131480EF91BF91AF919F918F917F916F915F91F8
S11314904F913F912F910F900BBE0F900FBE0F9065
S11314A01F9018951F920F920FB60F9211240BB62E
S11314B00F922F933F934F935F936F937F938F93E9
S11314C09F93AF93BF93EF93FF93E0918421F091A7
S11314D08521309709F01995FF91EF91BF91AF9154
S11314E09F918F917F916F915F914F913F912F9138
S11314F00F900BBE0F900FBE0F901F9018951F9268
S11315000F920FB60F9211240BB60F922F933F93A5
S11315104F935F936F937F938F939F93AF93BF93F7
S1131520EF93FF93E0918221F0918321309709F0AA
S11315301995FF91EF91BF91AF919F918F917F91F9
S11315406F915F914F913F912F910F900BBE0F9030
S11315500FBE0F901F9018951F920F920FB60F9207
S113156011240BB60F922F933F934F935F936F9376
S11315707F938F939F93AF93BF93EF93FF93E091E8
S11315808021F0918121309709F01995FF91EF9115
S1131590BF91AF919F918F917F916F915F914F9187
S11315A03F912F910F900BBE0F900FBE0F901F9085
S11315B018951F920F920FB60F9211240BB60F922B
S11315C02F933F934F935F936F937F938F939F9347
S11315D0AF93BF93EF93FF93E0917E21F0917F212E
S11315E0309709F01995FF91EF91BF91AF919F91B9
S11315F08F917F916F915F914F913F912F910F90B8
S11316000BBE0F900FBE0F901F9018951F920F9254
S11316100FB60F9211240BB60F922F933F934F9353
S11316205F936F937F938F939F93AF93BF93EF9346
S1131630FF93E0917C21F0917D21309709F0199579
S1131640FF91EF91BF91AF919F918F917F916F9196
S11316505F914F913F912F910F900BBE0F900FBE52
S11316600F901F9018951F920F920FB60F9211248E
S11316700BB60F922F933F934F935F936F937F9388
S11316808F939F93AF93BF93EF93FF93E0917A214E
S1131690F0917B21309709F01995FF91EF91BF915B
S11316A0AF919F918F917F916F915F914F913F91F6
S11316B02F910F900BBE0F900FBE0F901F90189597
S11316C01F920F920FB60F9211240BB60F922F9305
S11316D03F934F935F936F937F938F939F93AF93B6
S11316E0BF93EF93FF93E0917821F09179213097A4
S11316F009F01995FF91EF91BF91AF919F918F914F
S11317007F916F915F914F913F912F910F900BBEFD
S11317100F900FBE0F901F9018951F920F920FB647
S11317200F9211240BB60F922F933F934F935F9315
S11317306F937F938F939F93AF93BF93EF93FF9395
S1131740E0917621F0917721309709F01995FF9176
S1131750EF91BF91AF919F918F917F916F915F9125
S11317604F913F912F910F900BBE0F900FBE0F9092
S11317701F9018951F920F920FB60F9211240BB65B
S11317800F922F933F934F935F936F937F938F9316
S11317909F93AF93BF93EF93FF93E0917421F091E4
S11317A07521309709F01995FF91EF91BF91AF9191
S11317B09F918F917F916F915F914F913F912F9165
S11317C00F900BBE0F900FBE0F901F9018951F9295
S11317D00F920FB60F9211240BB60F922F933F93D3
S11317E04F935F936F937F938F939F93AF93BF9325
S11317F0EF93FF93E0917221F0917321309709F0F8
S11318001995FF91EF91BF91AF919F918F917F9126
S11318106F915F914F913F912F910F900BBE0F905D
S11318200FBE0F901F9018951F920F920FB60F9234
S113183011240BB60F922F933F934F935F936F93A3
S11318407F938F939F93AF93BF93EF93FF93E09115
S11318507021F0917121309709F01995FF91EF9162
S1131860BF91AF919F918F917F916F915F914F91B4
S11318703F912F910F900BBE0F900FBE0F901F90B2
S113188018951F920F920FB60F9211240BB60F9258
S11318902F933F934F935F936F937F938F939F9374
S11318A0AF93BF93EF93FF93E0916E21F0916F217B
S11318B0309709F01995FF91EF91BF91AF919F91E6
S11318C08F917F916F915F914F913F912F910F90E5
S11318D00BBE0F900FBE0F901F9018951F920F9282
S11318E00FB60F9211240BB60F922F933F934F9381
S11318F05F936F937F938F939F93AF93BF93EF9374
S1131900FF93E0916C21F0916D21309709F01995C6
S1131910FF91EF91BF91AF919F918F917F916F91C3
S11319205F914F913F912F910F900BBE0F900FBE7F
S11319300F901F9018951F920F920FB60F921124BB
S11319400BB60F922F933F934F935F936F937F93B5
S11319508F939F93AF93BF93EF93FF93E0916A218B
S1131960F0916B21309709F01995FF91EF91BF9198
S1131970AF919F918F917F916F915F914F913F9123
S11319802F910F900BBE0F900FBE0F901F901895C4
S11319901F920F920FB60F9211240BB60F922F9332
S11319A03F934F935F936F937F938F939F93AF93E3
S11319B0BF93EF93FF93E0916821F09169213097F1
S11319C009F01995FF91EF91BF91AF919F918F917C
S11319D07F916F915F914F913F912F910F900BBE2B
S11319E00F900FBE0F901F9018951F920F920FB675
S11319F00F9211240BB60F922F933F934F935F9343
S1131A006F937F938F939F93AF93BF93EF93FF93C2
S1131A10E0916621F0916721309709F01995FF91C3
S1131A20EF91BF91AF919F918F917F916F915F9152
S1131A304F913F912F910F900BBE0F900FBE0F90BF
S1131A401F9018951F920F920FB60F9211240BB688
S1131A500F922F933F934F935F936F937F938F9343
S1131A609F93AF93BF93EF93FF93E0916421F09121
S1131A706521309709F01995FF91EF91BF91AF91CE
S1131A809F918F917F916F915F914F913F912F9192
S1131A900F900BBE0F900FBE0F901F9018951F92C2
S1131AA00F920FB60F9211240BB60F922F933F9300
S1131AB04F935F936F937F938F939F93AF93BF9352
S1131AC0EF93FF93E0916221F0916321309709F045
S1131AD01995FF91EF91BF91AF919F918F917F9154
S1131AE06F915F914F913F912F910F900BBE0F908B
S1131AF00FBE0F901F9018951F920F920FB60F9262
S1131B0011240BB60F922F933F934F935F936F93D0
S1131B107F938F939F93AF93BF93EF93FF93E09142
S1131B206021F0916121309709F01995FF91EF91AF
S1131B30BF91AF919F918F917F916F915F914F91E1
S1131B403F912F910F900BBE0F900FBE0F901F90DF
S1131B5018951F920F920FB60F9211240BB60F9285
S1131B602F933F934F935F936F937F938F939F93A1
S1131B70AF93BF93EF93FF93E0915E21F0915F21C8
S1131B80309709F01995FF91EF91BF91AF919F9113
S1131B908F917F916F915F914F913F912F910F9012
S1131BA00BBE0F900FBE0F901F9018951F920F92AF
S1131BB00FB60F9211240BB60F922F933F934F93AE
S1131BC05F936F937F938F939F93AF93BF93EF93A1
S1131BD0FF93E0915C21F0915D21309709F0199514
S1131BE0FF91EF91BF91AF919F918F917F916F91F1
S1131BF05F914F913F912F910F900BBE0F900FBEAD
S1131C000F901F9018951F920F920FB60F921124E8
S1131C100BB60F922F933F934F935F936F937F93E2
S1131C208F939F93AF93BF93EF93FF93E0915A21C8
S1131C30F0915B21309709F01995FF91EF91BF91D5
S1131C40AF919F918F917F916F915F914F913F9150
S1131C502F910F900BBE0F900FBE0F901F901895F1
S1131C601F920F920FB60F9211240BB60F922F935F
S1131C703F934F935F936F937F938F939F93AF9310
S1131C80BF93EF93FF93E0915821F091592130973E
S1131C9009F01995FF91EF91BF91AF919F918F91A9
S1131CA07F916F915F914F913F912F910F900BBE58
S1131CB00F900FBE0F901F9018951F920F920FB6A2
S1131CC00F9211240BB60F922F933F934F935F9370
S1131CD06F937F938F939F93AF93BF93EF93FF93F0
S1131CE0E0915621F0915721309709F01995FF9111
S1131CF0EF91BF91AF919F918F917F916F915F9180
S1131D004F913F912F910F900BBE0F900FBE0F90EC
S1131D101F9018951F920F920FB60F9211240BB6B5
S1131D200F922F933F934F935F936F937F938F9370
S1131D309F93AF93BF93EF93FF93E0915421F0915E
S1131D405521309709F01995FF91EF91BF91AF910B
S1131D509F918F917F916F915F914F913F912F91BF
S1131D600F900BBE0F900FBE0F901F9018951F92EF
S1131D700F920FB60F9211240BB60F922F933F932D
S1131D804F935F936F937F938F939F93AF93BF937F
S1131D90EF93FF93E0915221F0915321309709F092
S1131DA01995FF91EF91BF91AF919F918F917F9181
S1131DB06F915F914F913F912F910F900BBE0F90B8
S1131DC00FBE0F901F9018951F920F920FB60F928F
S1131DD011240BB60F922F933F934F935F936F93FE
S1131DE07F938F939F93AF93BF93EF93FF93E09170
S1131DF05021F0915121309709F01995FF91EF91FD
S1131E00BF91AF919F918F917F916F915F914F910E
S1131E103F912F910F900BBE0F900FBE0F901F900C
S1131E2018951F920F920FB60F9211240BB60F92B2
S1131E302F933F934F935F936F937F938F939F93CE
S1131E40AF93BF93EF93FF93E0914E21F0914F2115
S1131E50309709F01995FF91EF91BF91AF919F9140
S1131E608F917F916F915F914F913F912F910F903F
S1131E700BBE0F900FBE0F901F9018951F920F92DC
S1131E800FB60F9211240BB60F922F933F934F93DB
S1131E905F936F937F938F939F93AF93BF93EF93CE
S1131EA0FF93E0914C21F0914D21309709F0199561
S1131EB0FF91EF91BF91AF919F918F917F916F911E
S1131EC05F914F913F912F910F900BBE0F900FBEDA
S1131ED00F901F9018951F93CF93DF931F921F921B
S1131EE0CDB7DEB72FB72A83F8941A81282F392F5C
S1131EF0211588E0380749F461E083E00E942E0947
S1131F0064E083E00E942E094FC0203488E0380743
S1131F1049F462E083E00E942E0964E083E00E94B9
S1131F202E0942C0211589E0380749F461E084E0B4
S1131F300E942E0964E084E00E942E0935C02034FA
S1131F4089E0380749F462E084E00E942E0964E0E5
S1131F5084E00E942E0928C021158AE0380749F43C
S1131F6061E085E00E942E0964E085E00E942E096C
S1131F701BC020348AE0380749F462E085E00E94FF
S1131F802E0964E085E00E942E090EC021153B4015
S1131F9049F461E086E00E942E0964E086E00E9434
S1131FA02E0902C01FBF10C0809139328F3F09F43F
S1131FB0FFCF8FB78983F8949981E8E3F2E38181B5
S1131FC08F5F81839FBF1FBF0F900F90DF91CF91D1
S1131FD01F910895CF92DF92EF92FF92CF93DF93F8
S1131FE0EC016B01E12CF12C60E874E88EE190E0E7
S1131FF0A70196010E947728CA01B9012FEF3FEF8C
S113200040E050E00E9477282115310529F481E051
S11320108C8321E030E02DC02230310528F482E0A9
S11320208C8322E030E025C02430310528F483E09D
S11320308C8324E030E01DC02830310528F484E08E
S11320408C8328E030E015C02034310528F485E085
S11320508C8320E430E00DC02F3F310509F028F4D3
S113206086E08C8320E031E004C087E08C8320E0AC
S113207034E040E050E060E874E88EE190E00E94D3
S11320807728CA01B901A70196010E9477282D83F8
S11320903E832436310518F41C821D821E82DF9192
S11320A0CF91FF90EF90DF90CF9008950F931F93FF
S11320B0CF93DF93EC018901862F90E0873091055F
S11320C008F08BC0FC018827E250FF4F8F4F0C941F
S11320D0992880E098E088839983E0E4F6E03081F1
S11320E081E090E02FEF240F02C0880F991F2A95FA
S11320F0E2F7832B808371C080E498E0888399831E
S1132100E0E4F6E0308181E090E023E0240F02C0B7
S1132110880F991F2A95E2F7832B80835EC080E0A5
S113212099E088839983E0E6F6E0308181E090E0ED
S11321302FEF240F02C0880F991F2A95E2F7832BF3
S113214080834BC080E499E088839983E0E6F6E0DD
S1132150308181E090E023E0240F02C0880F991FB2
S11321602A95E2F7832B808338C080E09AE0888345
S11321709983E0E8F6E0308181E090E02FEF240FCE
S113218002C0880F991F2A95E2F7832B808325C00C
S113219080E49AE088839983E0E8F6E0308181E086
S11321A090E023E0240F02C0880F991F2A95E2F7DC
S11321B0832B808312C080E09BE088839983E0EACC
S11321C0F6E0308181E090E02FEF240F02C0880F09
S11321D0991F2A95E2F7832B80834A83423061F06A
S11321E018F4413031F010C0433049F0443051F01C
S11321F00BC080E18B8308C080E28B8305C080E440
S11322008B8302C080E88B83888199810E946B0F45
S1132210E881F9818181887F836081831D821E82A8
S11322201C82E881F9818081807F8083B801CE019E
S11322300E94EA0FDF91CF911F910F910895CF93E0
S1132240DF93EC012D813E81A62FB0E00E94A128EE
S113225024E630E040E050E00E9477288A81E8815B
S1132260F981E6FD17C0823061F018F4813031F055
S11322701BC0833049F0843051F016C020AF31AF19
S113228013C022AF33AF10C024AF35AF0DC026AF9B
S113229037AF0AC0813019F0823021F005C020AF79
S11322A031AF02C022AF33AF8D819E81E881F981C5
S11322B086A397A38B81E881F981E6FD04C091810F
S11322C0892B818304C091818073892B8183E88168
S11322D0F9818081807F9C81892B8083DF91CF91DC
S11322E008950F931F93CF93DF93EC010E948818F6
S11322F08091922181111DC0A7E9B1E2EBE9F1E2DD
S1132300ED93FC93119712961D921C921397A3E9D7
S1132310B1E28FEF9FE012968D939C9313971D92D9
S11323201C92119782839383A083B18381E080936D
S11323309221209709F45FC09E012B5F3F4F2496A2
S1132340CE3FDF4008F05AC0E0919721F0919821E8
S1132350A7E9B1E202C0DF01FC0182819381821707
S1132360930720F4808191810097A9F7C1E2E339B2
S1132370FC0709F446C0CD91DC9111978E010B5FE7
S11323801F4F808191818D939C9382819381821BC5
S1132390930B8B30910510F1BF01620F731FDB01AA
S11323A012968D939C9313972283338312964D91A7
S11323B05C91139787E991E201C0CD01EC01A881FA
S11323C0B98112962D913C91139724173507A8F3E0
S11323D0EB01A883B983DC016D937C938091042085
S11323E09091052022813381821B930B80930420DA
S11323F09093052008C000E010E005C000E010E064
S113240002C000E010E00E94A519C801DF91CF913D
S11324101F910F9108950F931F93CF93DF9300970C
S113242041F1EC018C01055011090E948818F80152
S113243042815381A7E9B1E201C0DF01ED91FC9132
S113244011972281338124173507B8F32597E88340
S1132450F9830D931C9320910420309105208A81E7
S11324609B81820F931F80930420909305200E94E8
S1132470A519DF91CF911F910F910895FC01039647
S1132480818392834FEF5FEFBA0143835483658363
S11324907683878390878187928710820895FC01D1
S11324A0128613860895CF93DF93FC01DB0121810B
S11324B03281E9018C819D8114968D939C931597AB
S11324C08181928116968D939C9317978C819D811F
S11324D0EC016E837F83E9016C837D836183728366
S11324E01A96ED93FC931B9780818F5F8083DF9115
S11324F0CF9108950F931F93CF93DF93EB0108813E
S113250019812A813B810F3F4FEF140724073407B9
S113251031F4DC011996ED91FC911A971FC0FC016E
S11325203396DC0117964D915C911897DA014D9121
S11325305D916D917C91041715072607370770F09C
S11325400480F581E02DA481B5814D915D916D915B
S11325507C91041715072607370790F7A481B581E6
S1132560AC83BD831696CD93DC931797EE83FF83DC
S1132570C483D5838A879B87FC0120812F5F2083B6
S1132580DF91CF911F910F910895FC01A481B58132
S11325908681978116968D939C931797A681B78110
S11325A08481958114968D939C931597A285B38508
S11325B011968D919C911297E817F90731F4868151
S11325C0978111968D939C931297128613868C9102
S11325D081508C93089580933E3290933F3231E141
S11325E0FC013083319722E220833197A3E3A08357
S11325F031976083319770833197108231971082BD
S1132600319760E860833197108231971082319757
S11326101082319762E06083319763E06083319781
S113262064E06083319765E06083319766E060839E
S1132630319767E06083319768E06083319769E0A0
S11326406083319760E1608331973083319732E161
S11326503083319733E13083319734E130833197DC
S113266035E13083319736E13083319737E1308378
S1132670319738E13083319739E13083319730E253
S11326803083319731E2308331972083319723E2CD
S113269020833197408331975083319726E22083FA
S11326A0319727E22083319728E22083319729E26A
S11326B02083319720E32083319721E32083899776
S11326C008958CE78093690A8FEF8093680A81E00C
S11326D08093400A90E19093410A8093470AA09125
S11326E0FA31B091FB31CD91CDBFDD91DEBFFF91C9
S11326F0EF91DF91CF91BF91AF919F918F917F9196
S11327006F915F914F913F912F911F910F91FF9086
S1132710EF90DF90CF90BF90AF909F908F907F907D
S11327206F905F904F903F902F901F900F900CBE32
S11327300F900BBE0F900FBE0F90089508950F9247
S11327400FB6F8940F920BB60F920CB60F921F921D
S113275011242F923F924F925F926F927F928F92A9
S11327609F92AF92BF92CF92DF92EF92FF920F931C
S11327701F932F933F934F935F936F937F938F9305
S11327809F93AF93BF93CF93DF93EF93FF93A09166
S1132790FA31B091FB310DB60D920EB60D920E9436
S11327A0C21AA091FA31B091FB31CD91CDBFDD9128
S11327B0DEBFFF91EF91DF91CF91BF91AF919F91D8
S11327C08F917F916F915F914F913F912F911F91C5
S11327D00F91FF90EF90DF90CF90BF90AF909F90BC
S11327E08F907F906F905F904F903F902F901F90AD
S11327F00F900CBE0F900BBE0F900FBE0F9008955C
S11328000F920FB6F8940F920BB60F920CB60F926C
S11328101F9211242F923F924F925F926F927F9258
S11328208F929F92AF92BF92CF92DF92EF92FF92DC
S11328300F931F932F933F934F935F936F937F93C4
S11328408F939F93AF93BF93CF93DF93EF93FF93B4
S1132850A091FA31B091FB310DB60D920EB60D92E6
S11328600E94A4180E94C21AA091FA31B091FB31BF
S1132870CD91CDBFDD91DEBFFF91EF91DF91CF917F
S1132880BF91AF919F918F917F916F915F914F9184
S11328903F912F911F910F91FF90EF90DF90CF9078
S11328A0BF90AF909F908F907F906F905F904F906C
S11328B03F902F901F900F900CBE0F900BBE0F9067
S11328C00FBE0F900895E0E0F9E080A591A5815036
S11328D0934880A791A70E9400141895CF93DF9383
S11328E0EC0188A181110BC088819981892BE1F5C4
S11328F08A819B810E947D1C1A821B8235C04111F2
S113290017C0482F50E08C819D810E94C42828A1C3
S11329108C819D81820F911D8C839D832A813B81B3
S11329208217930708F1888199818C839D831CC049
S1132930482F50E08E819F810E94C42888A190E096
S11329409195819591092E813F81280F391F2E83FE
S11329503F83488159812417350730F42A813B810C
S1132960820F931F8E839F838E8D8F5F8E8FDF9157
S1132970CF910895FC01808191810097A1F040A13D
S113298050E026813781240F351F26833783A281A7
S1132990B3812A173B0710F086839783CB016681A6
S11329A077810E94C42808950F931F93CF93DF93D8
S11329B0EC010FB6F8940F928AA11816B4F48B891F
S11329C0811105C012C08B89811104C00EC08E0113
S11329D00D5E1F4FC8010E94491B81110E94061CF5
S11329E08AA181508AA3181674F38FEF8AA30F90DB
S11329F00FBE0FB6F8940F9289A11816B4F4888507
S1132A00811105C012C08885811104C00EC08E01D9
S1132A10085F1F4FC8010E94491B81110E94061CB8
S1132A2089A1815089A3181674F38FEF89A30F909D
S1132A300FBEDF91CF911F910F9108951F93CF93F4
S1132A40DF93613059F0FC012389308531112CC0AA
S1132A5011E0211110E0211128C001C011E0EC01A6
S1132A604881598128A130E06F8D629FC001639F26
S1132A70900D1124BA01680F791F6A837B831E8E1F
S1132A804C835D83821B930B840F951F8E839F83DE
S1132A908FEF89A38AA3CE0108960E943E12CE012D
S1132AA043960E943E1201C010E0812FDF91CF9126
S1132AB01F9108950F931F93CF93DF93882301F100
S1132AC0062F182F83E290E00E947111EC01892BEC
S1132AD0C9F0109FC001112401960E9471118883CE
S1132AE09983892B39F01F8F08A361E0CE010E94DE
S1132AF01E1508C0CE010E940B12C0E0D0E002C037
S1132B00C0E0D0E0CE01DF91CF911F910F910895E5
S1132B10AF92BF92CF92DF92EF92FF920F931F93E7
S1132B20CF93DF93CDB7DEB72997CDBFDEBF7C014E
S1132B305B012E833F834887598710E06C0188E04E
S1132B40C80ED11C0FB6F8940F92F701968D878D9D
S1132B509817A8F4402FB501C7010E946E14F7011D
S1132B608389882341F0C70143960E94491B813021
S1132B7011F40E949F130F900FBE81E056C08E8106
S1132B809F81A885B985892B8A2B8B2B21F40F90E3
S1132B900FBE80E04AC0111105C0CE0101960E940B
S1132BA0881B11E00F900FBE0E9488180FB6F8948E
S1132BB00F92F70181A18F3F09F411A2F70182A1BD
S1132BC08F3F09F412A20F900FBEBE016A5F7F4FC0
S1132BD0CE0101960E94991B811121C00FB6F89471
S1132BE00F92F701968D0F900FBE878D981311C029
S1132BF04E815F8168857985C6010E941F1BC701CC
S1132C000E94D4140E94A51981119CCF0E949F1385
S1132C1099CFC7010E94D4140E94A51993CFC7016C
S1132C200E94D4140E94A51980E02996CDBFDEBF6E
S1132C30DF91CF911F910F91FF90EF90DF90CF9094
S1132C40BF90AF900895AF92BF92CF92DF92EF9270
S1132C50FF920F931F93CF93DF93CDB7DEB72997DE
S1132C60CDBFDEBF7C015B012E833F83488759873C
S1132C7010E06C0183E1C80ED11C0FB6F8940F92DA
S1132C80F701868D882399F1C680D780B501C701E5
S1132C900E94BA1401111AC0F701868D8150868FE3
S1132CA080819181892B29F40E94231CF70182835E
S1132CB09383F70180858823B1F0C70108960E94A9
S1132CC0491B813081F40E949F130DC0F701C68215
S1132CD0D7828389882339F0C70143960E94491B10
S1132CE081110E949F130F900FBE81E062C08E81FC
S1132CF09F81A885B985892B8A2B8B2B21F40F9072
S1132D000FBE80E056C0111105C0CE0101960E948D
S1132D10881B11E00F900FBE0E9488180FB6F8941C
S1132D200F92F70181A18F3F09F411A2F70182A14B
S1132D308F3F09F412A20F900FBEBE016A5F7F4F4E
S1132D40CE0101960E94991B81112DC00FB6F894F3
S1132D500F92F701868D0F900FBE81111EC08081E6
S1132D609181892B49F40FB6F8940F928281938153
S1132D700E94281C0F900FBE4E815F816885798563
S1132D80C6010E941F1BC7010E94D4140E94A519EA
S1132D90811173CF0E949F1370CFC7010E94D41476
S1132DA00E94A5196ACFC7010E94D4140E94A519D4
S1132DB080E02996CDBFDEBFDF91CF911F910F91A7
S1132DC0FF90EF90DF90CF90BF90AF9008950FB633
S1132DD0F8940F92FC01868D0F900FBE0895CEECEF
S1132DE0D1E388818230E8F30E949F13FACFCF9217
S1132DF0DF92EF92FF926B017C01E091FA31F09146
S1132E00FB3162837383848395838091A231909193
S1132E10A331A091A431B091A531C816D906EA0610
S1132E20FB0668F46091FA317091FB318091B43102
S1132E309091B5316E5F7F4F0E947A1221C06091EC
S1132E40FA317091FB318091B6319091B7316E5F58
S1132E507F4F0E947A128091062090910720A091C2
S1132E600820B0910920C816D906EA06FB0640F4EA
S1132E70C0920620D0920720E0920820F092092008
S1132E80FF90EF90DF90CF9008954F925F926F92F2
S1132E907F928F929F92AF92BF92CF92DF92EF92E6
S1132EA0FF920F931F93CF93DF935C014B013A0181
S1132EB0290188E290E00E947111EC01892B09F448
S1132EC0D4C0C114D10409F0CCC0C3010E94711153
S1132ED08B8F9C8F009721F4CE010E940B12C5C0EA
S1132EE0A30161E170E00E94CD28930121503109D2
S1132EF08B8D9C8D3C01620E731E4AE050E0B40140
S1132F00CE014D960E94D4281EA2102F043008F042
S1132F1013E01A8F1FA36E0122E0C20ED11CC6015A
S1132F200E944F12CE010E960E944F12CA87DB8771
S1132F3084E090E0A0E0B0E0811B9109A109B1090F
S1132F408E879F87A88BB98BCE8BDF8BA201B501AF
S1132F50C3010E94EB1288839983E114F10419F0F0
S1132F60F701C083D1830FB6F8940F928091A631F4
S1132F708F5F8093A6318091FA319091FB31892B38
S1132F8089F5C093FA31D093FB318091A631813019
S1132F90C1F58EEC91E30E943E1289ED91E30E940B
S1132FA03E1284EE91E30E943E128FEE91E30E9462
S1132FB03E1283EC91E30E943E1288EB91E30E945F
S1132FC03E1289EA91E30E943E1283EC91E38093DE
S1132FD0B6319093B73188EB91E38093B4319093F9
S1132FE0B5310FC080919F3181110BC0E091FA314E
S1132FF0F091FB31828D081720F0C093FA31D09301
S1133000FB318A8D9091A131981710F48093A131EE
S113301090919A319F5F90939A319091A031981733
S113302010F48093A031FBE08F9FC0011124B601FE
S113303082539E4C0E9453120F900FBE80919F3179
S1133040882359F0E091FA31F091FB31828D801799
S113305030F40E949F1381E009C081E007C081E041
S113306005C0CB8EDC8EC6013BCF8FEFDF91CF91B5
S11330701F910F91FF90EF90DF90CF90BF90AF9092
S11330809F908F907F906F905F904F9008950FB6B0
S1133090F8940F92009721F48091FA319091FB31CA
S11330A00F900FBEFC01828D0895AF92BF92CF9214
S11330B0DF92EF92FF920F93A12CB12CC12CD12C53
S11330C00F2EF7EAEF2EF1E3FF2EF02D00E020E0C3
S11330D030E044E650E06BEB70E28FEE96E10E9444
S11330E04517813069F4F89480939F311092A2318E
S11330F01092A3311092A4311092A5310E94611351
S11331000F91FF90EF90DF90CF90BF90AF90089514
S113311080919E318F5F80939E3108950FB6F8940D
S11331200F926091A2317091A3318091A43190915A
S1133130A5310F900FBE0895009721F48091FA31C4
S11331409091FB314D960895FF920F931F93CF9367
S1133150DF9380919E318111EDC08091A2319091D5
S1133160A331A091A431B091A5310196A11DB11D47
S11331708093A2319093A331A093A431B093A5314D
S11331808091A2319091A331A091A431B091A53145
S1133190892B8A2B8B2BF1F58091B6319091B73125
S11331A02091B4313091B5312093B6313093B73199
S11331B08093B4319093B53180919B318F5F80932C
S11331C09B31E091B631F091B731808181110CC00F
S11331D08FEF9FEFDC018093062090930720A0934C
S11331E00820B093092016C0E091B631F091B731B0
S11331F00780F085E02D0084F185E02D82819381A4
S1133200A481B5818093062090930720A093082081
S1133210B09309204091A2315091A3316091A4311F
S11332207091A5318091062090910720A0910820EB
S1133230B0910920481759076A077B0708F47FC033
S1133240E091B631F091B73180818823F9F0E091B3
S1133250B631F091B7310780F085E02DC085D18576
S11332608A819B81AC81BD814091A2315091A3316F
S11332706091A4317091A531481759076A077B07FB
S113328058F10F2EFBE0FF2EF02D2FC08FEF9FEF94
S1133290DC018093062090930720A0930820B0932C
S11332A009204DC0E091B631F091B7310780F08527
S11332B0E02DC085D1858A819B81AC81BD814091FF
S11332C0A2315091A3316091A4317091A531481776
S11332D059076A077B0748F48093062090930720D8
S11332E0A0930820B09309202AC08E010E5F1F4FBF
S11332F0C8010E94C512888D998D892B21F0CE01B9
S11333000E960E94C5128A8D9091A031981710F4E0
S11333108093A031F89EC0011124B80182539E4CC1
S11333200E945312E091B631F091B731808181113E
S1133330B9CFACCF80919D318F5F80939D31DF9168
S1133340CF911F910F91FF900895CF92DF92EF924A
S1133350FF920F931F93CF93DF930FB6F8940F92BE
S113336080919E31815080939E3180919E31811154
S113337060C08091A63181112CC05EC0D701179620
S1133380ED91FC911897C085D185CE010E960E94CF
S1133390C5128E010E5F1F4FC8010E94C5128A8D8F
S11333A09091A031981710F48093A031D89EC00159
S11333B01124B80182539E4C0E945312E091FA31B9
S11333C0F091FB319A8D828D981770F0CC24C394C0
S11333D00BC0C12C0F2EF9EAEF2EF1E3FF2EF02DD6
S11333E00F2EFBE0DF2EF02DF70180818111C6CF77
S11333F080919D31882381F080919D31882399F0BB
S11334000E94A41880919D31815080939D318091B8
S11334109D318111F5CF07C0F1E0CF1621F08091E5
S11334209C31813041F410929C310E949F1381E0C1
S113343003C080E001C080E00F900FBEDF91CF9108
S11334401F910F91FF90EF90DF90CF900895CF924E
S1133450DF92EF92FF92CF93DF93EC016A017B013D
S11334600E94881888819981AA81BB81C80ED91EBF
S1133470EA1EFB1E4091A2315091A3316091A43108
S11334807091A531481759076A077B07B8F4C81625
S1133490D906EA06FB06E0F58091A2319091A331AA
S11334A0A091A431B091A531C882D982EA82FB826D
S11334B08C159D05AE05BF05F8F413C0C816D906D2
S11334C0EA06FB0600F18091A2319091A331A0910C
S11334D0A431B091A5318C159D05AE05BF0598F0BA
S11334E017C08091FA319091FB3102960E94C51267
S11334F0C701B6010E94F7160E94A51981110DC0DB
S11335000E949F130AC0C882D982EA82FB82E9CF53
S1133510C882D982EA82FB82EFCFDF91CF91FF90FC
S1133520EF90DF90CF900895CF92DF92EF92FF92C9
S11335306B017C01672B682B692BE9F00E948818CA
S11335408091A2319091A331A091A431B091A53181
S1133550C80ED91EEA1EFB1E8091FA319091FB31F0
S113356002960E94C512C701B6010E94F7160E9476
S1133570A519811102C00E949F13FF90EF90DF9064
S1133580CF90089580919E3181110CC0E091A031BB
S11335904BE0E49FF0011124E253FE4C8081882328
S11335A029F014C081E080939C3108959BE08091C0
S11335B0A03181508093A031E091A0319E9FF00111
S11335C01124E253FE4C8081882389F38091A03139
S11335D0282F30E04BE0849FC0011124DC01A2536A
S11335E0BE4C1196ED91FC9112970480F581E02D6B
S11335F01196ED93FC9312978F529E4CE817F9079E
S113360061F4848195814BE0429FF001439FF00D6A
S11336101124E253FE4C818392838BE0829FF0015C
S1133620839FF00D1124E253FE4C0180F281E02DC2
S1133630808591858093FA319093FB310895CF92E0
S1133640DF92EF92FF926A017B016091FA317091EF
S1133650FB31625F7F4F0E947A128091FA31909120
S1133660FB3102960E94C5128091A2319091A33140
S1133670A091A431B091A531BC01CD016C0D7D1D8B
S11336808E1D9F1D0E94F716FF90EF90DF90CF9044
S113369008950F931F93CF93DF93DC011796ED9159
S11336A0FC911897C085D1858E01025F1F4FC80118
S11336B00E94C51280919E31811116C00C501109CF
S11336C0C8010E94C5128A8D9091A031981710F4F8
S11336D08093A031BBE08B9FC0011124B8018253B9
S11336E09E4C0E94531205C0B80189EA91E30E94DE
S11336F05312E091FA31F091FB3181E02A8D928DE1
S1133700291708F480E0DF91CF911F910F9108955C
S113371020919B31FC0120834091A2315091A3312F
S11337206091A4317091A531418352836383748382
S113373008958F929F92AF92BF92CF92DF92EF92B1
S1133740FF920F931F93CF93DF93FC010FB6F8946E
S11337500F9280919B319081981789F08091A231CA
S11337609091A331A091A431B091A531018112812E
S11337702381348180179107A207B307A8F58091AC
S1133780A2319091A331A091A431B091A531C1800F
S1133790D280E380F480EB01088119812A813B8186
S11337A08C199D09AE09BF0980179107A207B307B9
S11337B0E8F4CF018090A2319090A331A090A4317D
S11337C0B090A531B501A4014C195D096E097F09BA
S11337D0041B150B260B370B088319832A833B83A1
S11337E00E94881B80E003C081E001C081E00F904B
S11337F00FBEDF91CF911F910F91FF90EF90DF905B
S1133800CF90BF90AF909F908F90089581E0809368
S11338109C310895009721F48091FA319091FB3105
S1133820DC015B96ED91FC915C978081813141F4E0
S1133830319680E090E0019621912131E1F30895E1
S113384080E090E008958091FA319091FB310895E1
S11338500F931F93CF93DF93FC01228DA091FA3134
S1133860B091FB315A968C91281708F041C0A09171
S1133870FA31B091FB315A963C9184E090E0A0E09B
S1133880B0E0831B9109A109B10986879787A08BB2
S1133890B18B8BE0289F9001112422533E4C8485E8
S11338A0958582179307E9F48F01EF012296CE01E3
S11338B00E94C512E091FA31F091FB31828DF8013A
S11338C0828F9091A031981710F48093A031FBE07F
S11338D08F9FC0011124BE0182539E4C0E9453123B
S11338E007C0A091FA31B091FB315A968C91828F26
S11338F0DF91CF911F910F9108950F931F93CF9351
S1133900DF93009749F1FC01328D27A1321721F191
S1133910EC018C010E5F1F4FC8010E94C5128FA1DC
S11339208A8F44E050E060E070E0481B510961096F
S113393071094E875F87688B798B9091A0319817B6
S113394010F48093A031FBE08F9FC0011124B801D3
S113395082539E4C0E945312DF91CF911F910F917D
S11339600895EC01E881F9810190F081E02D199529
S11339701A821B826FEF7FEFCB010E94941AFACF59
S1133980FC016487658708954F925F926F927F92DE
S11339908F929F92AF92BF92CF92DF92EF92FF925B
S11339A00F931F93CF93DF93CDB7DEB72A97CDBF85
S11339B0DEBF4C012901380184EC90E2F4018083DC
S11339C09183FB018081882369F0DE011196319691
S11339D090E002C0993039F09F5F8D9381918111FD
S11339E0F9CF01C090E0E1E0F0E0EC0FFD1FE90F3A
S11339F0F11D10827401F2E0EF0EF11CA12CB12C28
S1133A00C12CD12C042F9401A201BE016F5F7F4F02
S1133A108FED91E00E944517F4016682778240861B
S1133A2051862091FC313091FD312483358380927D
S1133A30FC319092FD311486158640903E325090B0
S1133A403F32FFEF4F1A5F0A40923E3250923F32AC
S1133A50F4014286538616861786108A118A6114E9
S1133A60710409F444C0813079F56AE0C3010E940D
S1133A70961F7C0165E473E00E945F1FBE016F5FC7
S1133A807F4FC7010E945F1F6AE0C7010E94961F13
S1133A907C016CE373E00E945F1F6AE0C7010E942F
S1133AA0961F7C016EE273E00E945F1F63E0C70112
S1133AB00E94961FB2010E941E2062E00E94961F7F
S1133AC066E00E94961F13C06AE0C3010E94961F1D
S1133AD04C0169E173E00E945F1FBE016F5F7F4F7D
S1133AE0C4010E945F1F66E0C4010E94961F2A96CB
S1133AF0CDBFDEBFDF91CF911F910F91FF90EF906B
S1133B00DF90CF90BF90AF909F908F907F906F90F9
S1133B105F904F9008958F929F92AF92BF92CF92F1
S1133B20DF92EF92FF920F931F93CF93DF93EC01F9
S1133B308B018A819B810E949C18BC01C8010E9450
S1133B405F1FD801ED91FC910280F381E02D69E0C3
S1133B50C80119958A819B810E949C18FC010190DF
S1133B600020E9F73197E81BF90B389748F4D8019E
S1133B70ED91FC910280F381E02D69E0C801199573
S1133B80CE84DF84E888F988A884B9848A819B81FB
S1133B900E940A1C982E8C848A819B810E9447185B
S1133BA0682FC8010E9494206AE00E94961FEC01CD
S1133BB06BEB73E00E945F1F682DCE010E9494207E
S1133BC06AE00E94961FEC0169EB73E00E945F1F9C
S1133BD0692DCE010E9494206AE00E94961FEC0198
S1133BE067EB73E00E945F1FB501CE010E941E20A7
S1133BF06AE00E94961FEC0165EB73E00E945F1F70
S1133C006AE0CE010E94961FEC0163EB73E00E9410
S1133C105F1FB701A601CE010E945220DF91CF9110
S1133C201F910F91FF90EF90DF90CF90BF90AF90D6
S1133C309F908F9008950F93CF93DF931F92CDB7EA
S1133C40DEB700E02FEF3FEFA901BE016F5F7F4FAA
S1133C50FC01808591850E942316813019F48981A5
S1133C6090E002C08FEF9FEF0F90DF91CF910F9103
S1133C700895FC01808591850E94E71691E08111E9
S1133C8001C090E0892F08950F93CF93DF931F9283
S1133C90CDB7DEB76983FC0122853385448555851C
S1133CA000E0BE016F5F7F4F808591850E9488157B
S1133CB091E0811101C090E0892F0F90DF91CF91A5
S1133CC00F9108958F929F92BF92CF92DF92EF92BD
S1133CD0FF920F931F93CF93DF93EC01B62E4A010B
S1133CE0680179010E94511F8CEC90E288839983CA
S1133CF08E869F8640E061E08B2D0E945A1588874E
S1133D009987CA86DB86EC86FD86DF91CF911F9169
S1133D100F91FF90EF90DF90CF90BF909F908F9086
S1133D2008950E94711108950E94711108950895D3
S1133D30CF93DF93FC01DA01403A68E0560749F477
S1133D4080E496E08283938382E0848383E08583A6
S1133D504CC0403B78E0570749F480E496E0828306
S1133D60938386E0848387E085833FC0403A89E07B
S1133D70580749F480E696E08283938382E0848343
S1133D8083E0858332C0403B69E0560749F480E60E
S1133D9096E08283938386E0848387E0858325C0CD
S1133DA0403A7AE0570749F480E896E082839383A7
S1133DB082E0848383E0858318C0403B8AE058070F
S1133DC049F480E896E08283938386E0848387E0E5
S1133DD085830BC0403A5B4041F480EA96E08283DD
S1133DE0938382E0848383E08583A683B783CD01B4
S1133DF00196808791870396828793872581C28164
S1133E00D3814C8181E090E0BC0102C0660F771F32
S1133E102A95E2F79B01242B2C832581C281D3812F
S1133E204881BC0102C0660F771F2A95E2F79B0107
S1133E30242B28833481C281D381288102C0880F36
S1133E40991F3A95E2F7809590958223888380E1C3
S1133E5013968C93139783E015968C93159780EFA4
S1133E6017968C93179781E216968C93169788E190
S1133E7014968C9380E8858780E4868780E2848723
S1133E800680F781E02D80818081DF91CF910895B4
S1133E9081E0089580E090E0089580E00895089519
S1133EA00895FC018CED90E2808391838AE0828303
S1133EB0138283E0858314821682178208950F93F8
S1133EC01F93CF93DF938C01FB01DC0114968C913B
S1133ED0811104C06081611117C023C0D8011496F8
S1133EE01C92EB01219664916623D9F0D801ED91DF
S1133EF0FC910280F381E02DC8011995FE016491C3
S1133F0021966111F3CF0DC0EF012196D801ED91F7
S1133F10FC910280F381E02DC8011995699161112A
S1133F20F5CFDF91CF911F910F910895CF93DF9338
S1133F30EC01862F90E08B309105D8F5FC018827A1
S1133F40EB5FFE4F8F4F0C94992882E08A8331C037
S1133F5088E08A832EC08AE08A832BC080E18A832A
S1133F6028C081E08B8325C01B8223C0E881F981AE
S1133F700280F381E02D6DE0CE011995E881F9818D
S1133F800280F381E02D6AE0CE01199512C0E88128
S1133F90F9810284F385E02DCE0119950AC0E881E8
S1133FA0F9810084F185E02DCE01199502C081E0EC
S1133FB08C83CE01DF91CF910895CF93DF93EC01F1
S1133FC0662341F0E881F9810280F381E02D64E504
S1133FD0199507C0E881F9810280F381E02D66E438
S1133FE01995CE01DF91CF9108950F931F93CF932D
S1133FF0DF93CDB7DEB76197CDBFDEBF8C019B01E8
S1134000FC0192819A3021F0C8010E941E200DC04B
S11340104AE0BE016F5F7F4FC9010E94E328BE01E1
S11340206F5F7F4FC8010E945F1FC8016196CDBFBB
S1134030DEBFDF91CF911F910F910895FF920F93EF
S11340401F93CF93DF93CDB7DEB76197CDBFDEBFAC
S11340508C01F62E972FF8014281403121F048302F
S113406011F0423041F4692FC8010E9494206F2D51
S11340700E9494200DC050E0BE016F5F7F4F8F2DD2
S11340800E941B29BE016F5F7F4FC8010E945F1F02
S1134090C8016196CDBFDEBFDF91CF911F910F9113
S11340A0FF900895DF92EF92FF920F931F93CF93A7
S11340B0DF93CDB7DEB7A197CDBFDEBF8C01D42E81
S11340C0E52EF62E972FF8012281203121F0283099
S11340D011F0223071F4692FC8010E9494206F2DD1
S11340E00E9494206E2D0E9494206D2D0E94942095
S11340F00FC030E0AE014F5F5F4F6D2D7E2D8F2DD1
S11341000E94EE28BE016F5F7F4FC8010E945F1FAF
S1134110C801A196CDBFDEBFDF91CF911F910F9152
S1134120FF90EF90DF900895CF92DF92EF92FF928D
S11341300F931F93CF93DF93CDB7DEB72997CDBFEE
S1134140DEBF8C01E62EDC0113968C911397882335
S113415041F0ED91FC910280F381E02DC8011995A5
S113416056C0F8014281423019F56894CC24C3F852
S1134170D12C6894FF24F7F88E2D8F2151F0D801AB
S1134180ED91FC910280F381E02D61E3C801199562
S113419009C0D801ED91FC910280F381E02D60E328
S11341A0C8011995F694B1E0CB1AD10829F72FC0AC
S11341B04031F9F462956F700190F081E02D028036
S11341C0F381E02D6A3010F0695C01C0605DC801C4
S11341D019956E2D6F70D801ED91FC910280F381D9
S11341E0E02D6A3010F0695C01C0605DC80119956A
S11341F00EC050E0BE016F5F7F4F8E2D90E00E9495
S11342001B29BE016F5F7F4FC8010E945F1FC80159
S11342102996CDBFDEBFDF91CF911F910F91FF9003
S1134220EF90DF90CF900895DC015096ED91FC91D2
S11342305197808154964C915497842329F009C056
S11342402150310919F412C021E23EE490819423F3
S1134250B9F3908156968C915697892B80831E963C
S1134260ED91FC911F97608381E0089580E00895AB
S1134270CF93DF93FC01C18DD28D28813981A38D29
S1134280B48D4D915C9124173507E9F3A789B08D5E
S11342900D90BC91A02DA20FB31F8C912F5F3F4FA7
S11342A0288339832436310528F0018CF28DE02DE2
S11342B01082118290E0DF91CF910895CF93DF9324
S11342C0EC01A98DBA8DEB8DFC8D81E04D915C9153
S11342D0208131814217530709F480E0DF91CF91A7
S11342E00895DC01ED91FC910280F381E02D6CE0F6
S11342F019950895EF92FF920F931F93CF93DF9335
S1134300EC017B018A010E94511FA801B701CE0173
S113431008960E94981E8CEE90E288839983003A56
S113432088E0180769F486E292E38F8B988F88E11E
S113433092E3898F9A8F8AE092E38B8F9C8F64C07B
S1134340003BE8E01E0769F484E292E38F8B988FC8
S113435086E192E3898F9A8F88E092E38B8F9C8F1A
S113436053C0003AF9E01F0769F482E292E38F8BAD
S1134370988F84E192E3898F9A8F86E092E38B8F02
S11343809C8F42C0003B89E0180769F480E292E305
S11343908F8B988F82E192E3898F9A8F84E092E3E6
S11343A08B8F9C8F31C0003AEAE01E0769F48EE1DE
S11343B092E38F8B988F80E192E3898F9A8F82E0CA
S11343C092E38B8F9C8F20C0003BFAE01F0769F4B7
S11343D08CE192E38F8B988F8EE092E3898F9A8F92
S11343E080E092E38B8F9C8F0FC0003A1B4061F4F6
S11343F08AE192E38F8B988F8CE092E3898F9A8F76
S11344008EEF91E38B8F9C8F0F89188D84E690E05B
S11344100E94941EF80180839183E98DFA8D1082A5
S11344201182EB8DFC8D10821182DF91CF911F914F
S11344300F91FF90EF9008951F920F920FB60F9275
S113444011240BB60F922F933F938F939F93EF9367
S1134450FF932091A008E0912632F09127328091B9
S11344600A3290910B32E80FF91F208380910A32AF
S113447090910B3201968436910560F480930A3250
S113448090930B322091183230911932821793078E
S1134490F1F40CC010920A3210920B32809118324F
S11344A0909119321816190691F40EC001968436AB
S11344B0910528F4809318329093193208C0109211
S11344C018321092193203C081E090E0F3CFFF91CB
S11344D0EF919F918F913F912F910F900BBE0F9071
S11344E00FBE0F901F9018951F920F920FB60F9248
S11344F011240BB60F922F933F938F939F93EF93B7
S1134500FF932091B008E0912432F09125328091FC
S1134510083290910932E80FF91F20838091083204
S11345209091093201968436910560F480930832A3
S113453090930932209116323091173282179307E3
S1134540F1F40CC0109208321092093280911632A4
S1134550909117321816190691F40EC001968436FC
S1134560910528F4809316329093173208C0109264
S113457016321092173203C081E090E0F3CFFF911E
S1134580EF919F918F913F912F910F900BBE0F90C0
S11345900FBE0F901F9018951F920F920FB60F9297
S11345A011240BB60F922F933F938F939F93EF9306
S11345B0FF932091A009E0912232F091233280915F
S11345C0063290910732E80FF91F2083809106325A
S11345D09091073201968436910560F480930632F7
S11345E09093073220911432309115328217930739
S11345F0F1F40CC0109206321092073280911432FA
S1134600909115321816190691F40EC0019684364D
S1134610910528F4809314329093153208C01092B7
S113462014321092153203C081E090E0F3CFFF9171
S1134630EF919F918F913F912F910F900BBE0F900F
S11346400FBE0F901F9018951F920F920FB60F92E6
S113465011240BB60F922F933F938F939F93EF9355
S1134660FF932091B009E0912032F09121328091A2
S1134670043290910532E80FF91F208380910432AF
S11346809091053201968436910560F4809304324A
S1134690909305322091123230911332821793078E
S11346A0F1F40CC01092043210920532809112324F
S11346B0909113321816190691F40EC0019684369F
S11346C0910528F4809312329093133208C010920B
S11346D012321092133203C081E090E0F3CFFF91C5
S11346E0EF919F918F913F912F910F900BBE0F905F
S11346F00FBE0F901F9018951F920F920FB60F9236
S113470011240BB60F922F933F938F939F93EF93A4
S1134710FF932091A00AE0911E32F0911F32809104
S1134720023290910332E80FF91F20838091023204
S11347309091033201968436910560F4809302329D
S113474090930332209110323091113282179307E3
S1134750F1F40CC0109202321092033280911032A4
S1134760909111321816190691F40EC001968436F0
S1134770910528F4809310329093113208C010925E
S113478010321092113203C081E090E0F3CFFF9118
S1134790EF919F918F913F912F910F900BBE0F90AE
S11347A00FBE0F901F9018951F920F920FB60F9285
S11347B011240BB60F922F933F938F939F93EF93F4
S11347C0FF932091B00AE0911C32F0911D32809148
S11347D0003290910132E80FF91F2083809100325A
S11347E09091013201968436910560F480930032F1
S11347F09093013220910E3230910F328217930739
S1134800F1F40CC0109200321092013280910E32F9
S113481090910F321816190691F40EC00196843641
S1134820910528F480930E3290930F3208C01092B1
S11348300E3210920F3203C081E090E0F3CFFF916B
S1134840EF919F918F913F912F910F900BBE0F90FD
S11348500FBE0F901F9018951F920F920FB60F92D4
S113486011240BB60F922F933F938F939F93EF9343
S1134870FF932091A00BE0911A32F0911B328091AA
S1134880FE319091FF31E80FF91F20838091FE31B2
S11348909091FF3101968436910560F48093FE3146
S11348A09093FF3120910C3230910D32821793078F
S11348B0F1F40CC01092FE311092FF3180910C3251
S11348C090910D321816190691F40EC00196843693
S11348D0910528F480930C3290930D3208C0109205
S11348E00C3210920D3203C081E090E0F3CFFF91BF
S11348F0EF919F918F913F912F910F900BBE0F904D
S11349000FBE0F901F9018950F931F93CF93DF93B3
S1134910CDB7DEB76D97CDBFDEBFF8940E94FB081C
S1134920E0E6F6E080E88683818382E08093B40049
S11349309DEF88ED08B618BE84BF9093800008BE32
S113494040EA59E060E070E0CE0101960E947A21CD
S113495067E0CE0101960E94961F8C0168EF70E219
S11349600E945F1F66E0C8010E94961F66E00E94D5
S1134970961F82E190E00E94911E8E010F5F1F4FEF
S113498028EE33E041E067E171E20E94C70689E363
S113499090E00E94911E28EE33E043E062E271E26F
S11349A00E94D60887E08093A20078940E9455184C
S11349B080E090E06D96CDBFDEBFDF91CF911F9177
S11349C00F9108950F931F930AE010E020E030E068
S11349D040E050E060E270E088E292E30E94621EF0
S11349E01F910F9108955058BB27AA270E940B25A9
S11349F00C9425270E94EC2638F00E94F32620F020
S1134A0039F49F3F19F426F40C94C2260EF4E09571
S1134A10E7FB0C94BC26E92F0E944A2758F3BA17E7
S1134A20620773078407950720F079F4A6F50C94C0
S1134A306C270EF4E0950B2EBA2FA02D0B01B901B3
S1134A4090010C01CA01A0011124FF27591B99F000
S1134A50593F50F4503E68F11A16F040A22F232F0C
S1134A60342F4427585FF3CF469537952795A7955C
S1134A70F0405395C9F77EF41F16BA0B620B730B03
S1134A80840BBAF09150A1F0FF0FBB1F661F771F74
S1134A90881FC2F70EC0BA0F621F731F841F48F429
S1134AA0879577956795B795F7959E3F08F0B0CFB2
S1134AB09395880F08F09927EE0F97958795089599
S1134AC00E94EC2660F080E891E009F49EEF0E94D9
S1134AD0F32628F040E851E071F45EEF0CC00C942A
S1134AE0C2260C946C27E92FE0780E944A2740F3F1
S1134AF0092E052AB1F3261737074807590738F056
S1134B000E2E07F8E02569F0E025E0640AC0EF63A3
S1134B1007F8009407FADB01B9019D01DC01CA0121
S1134B20AD01EF930E94EE250E9425270E94A32544
S1134B305F91552339F02BED3FE049E450FD49ECFA
S1134B400C94F4240895DF93DD27B92FBF7740E850
S1134B505FE31616170648075B0718F4D92F0E945F
S1134B6073279F938F937F936F930E943628E0E27D
S1134B70F2E00E94C5260E9425272F913F914F9174
S1134B805F910E948E27DD2351F09058A2EA2AED0E
S1134B903FE049EC5FE3D0785D270E940B25DF916D
S1134BA00C9425270E94FC26E3950C9436270E943A
S1134BB0EB250C9425270E94F32658F00E94EC263E
S1134BC040F029F45F3F29F00C94BC2651110C9459
S1134BD06D270C94C2260E944A2768F39923B1F3E7
S1134BE0552391F3951B550BBB27AA27621773070F
S1134BF0840738F09F5F5F4F220F331F441FAA1FA3
S1134C00A9F335D00E2E3AF0E0E832D0915050405E
S1134C10E695001CCAF72BD0FE2F29D0660F771F0C
S1134C20881FBB1F261737074807AB07B0E809F0F2
S1134C30BB0B802DBF01FF2793585F4F3AF09E3F77
S1134C40510578F00C94BC260C946D275F3FE4F377
S1134C50983ED4F3869577956795B795F7959F5FBA
S1134C60C9F7880F911D9695879597F90895E1E006
S1134C70660F771F881FBB1F621773078407BA0765
S1134C8020F0621B730B840BBA0BEE1F88F7E095C0
S1134C9008950E9450266894B1110C946D270895CC
S1134CA00E94522788F09F5798F0B92F9927B7513F
S1134CB0B0F0E1F0660F771F881F991F1AF0BA95BC
S1134CC0C9F714C0B13091F00E946C27B1E0089587
S1134CD00C946C27672F782F8827B85F39F0B93F79
S1134CE0CCF3869577956795B395D9F73EF490956F
S1134CF08095709561957F4F8F4F9F4F0895E894ED
S1134D0009C097FB3EF490958095709561957F4F0F
S1134D108F4F9F4F9923A9F0F92F96E9BB279395BD
S1134D20F695879577956795B795F111F8CFFAF4CD
S1134D30BB0F11F460FF1BC06F5F7F4F8F4F9F4FFE
S1134D4016C0882311F096E911C0772321F09EE85C
S1134D50872F762F05C0662371F096E8862F70E0C2
S1134D6060E02AF09A95660F771F881FDAF7880F9C
S1134D709695879597F9089597F99F6780E870E06D
S1134D8060E008959FEF80EC0895DF93CF931F9325
S1134D900F93FF92EF92DF927B018C01689406C01F
S1134DA0DA2EEF010E948E27FE01E894A591259149
S1134DB0359145915591A6F3EF010E940B25FE0113
S1134DC09701A801DA9469F7DF90EF90FF900F91B3
S1134DD01F91CF91DF91089500240A9416161706A7
S1134DE018060906089500240A94121613061406D8
S1134DF0050608950C94C2260E945227D8F3E8941D
S1134E00E0E0BB279F57F0F02AED3FE049EC06C0F5
S1134E10EE0FBB0F661F771F881F28F0B23A620798
S1134E207307840728F0B25A620B730B840BE39563
S1134E309A9572F7803830F49A95BB0F661F771FE6
S1134E40881FD2F790480C943C28092E0394000C38
S1134E5011F4882352F0BB0F40F4BF2B11F460FF10
S1134E6004C06F5F7F4F8F4F9F4F0895EF93E0FF14
S1134E7007C0A2EA2AED3FE049EC5FEB0E940B2554
S1134E800E9425270F90039401FC9058EDE4F2E072
S1134E900C944F2857FD9058440F551F59F05F3F0D
S1134EA071F04795880F97FB991F61F09F3F79F048
S1134EB087950895121613061406551FF2CF4695CA
S1134EC0F1DF08C0161617061806991FF1CF86954C
S1134ED07105610508940895E894BB276627772730
S1134EE0CB0197F908959B01AC0160E070E080E884
S1134EF09FE30C94D7250E948E270C9425270E94AB
S1134F00EC2638F00E94F32620F0952311F00C943F
S1134F10BC260C94C22611240C946D270E944A27A7
S1134F2070F3959FC1F3950F50E0551F629FF001F8
S1134F30729FBB27F00DB11D639FAA27F00DB11D11
S1134F40AA1F649F6627B00DA11D661F829F22279A
S1134F50B00DA11D621F739FB00DA11D621F839F21
S1134F60A00D611D221F749F3327A00D611D231FF7
S1134F70849F600D211D822F762F6A2F11249F5745
S1134F8050409AF0F1F088234AF0EE0FFF1FBB1F48
S1134F90661F771F881F91505040A9F79E3F510507
S1134FA080F00C94BC260C946D275F3FE4F3983E8C
S1134FB0D4F3869577956795B795F795E7959F5FB1
S1134FC0C1F7FE2B880F911D9695879597F9089543
S1134FD09F930E94FC260F9007FCEE5F0C943627EB
S1134FE019F416F40C94C2260C943A280E94522701
S1134FF0B8F39923C9F3B6F39F57550B87FF0E9463
S113500048280024A0E640EA9001805856959795D8
S113501028F4805C660F771F881F20F02617370757
S1135020480730F4621B730B840B202931294A2B67
S1135030A69517940794202531254A2758F7660F1B
S1135040771F881F20F026173707480730F4620BB4
S1135050730B840B200D311D411DA09581F7B901FF
S1135060842F9158880F9695879508959B01AC01DC
S11350700C947B279F3F31F0915020F487957795CE
S11350806795B795880F911D9695879597F908951B
S113509091505040660F771F881FD2F708959F9351
S11350A08F937F936F93FF93EF939B01AC010E94C7
S11350B07B27EF91FF910E94C5262F913F914F913D
S11350C05F910C947B2797FB072E16F4009407D06E
S11350D077FD09D00E94B02807FC05D03EF49095D6
S11350E081959F4F0895709561957F4F0895A1E232
S11350F01A2EAA1BBB1BFD010DC0AA1FBB1FEE1F4E
S1135100FF1FA217B307E407F50720F0A21BB30B98
S1135110E40BF50B661F771F881F991F1A9469F714
S113512060957095809590959B01AC01BD01CF0170
S11351300895EE0FFF1F881F8BBF0790F691E02D97
S11351401994A29FB001B39FC001A39F700D811D4C
S11351501124911DB29F700D811D1124911D08957C
S1135160AA1BBB1B51E107C0AA1FBB1FA617B70789
S113517010F0A61BB70B881F991F5A95A9F78095A5
S11351809095BC01CD010895FB01DC0102C00190A2
S11351900D9241505040D8F70895DC0101C06D9341
S11351A041505040E0F70895FB01DC01415050406C
S11351B048F001900D920020C9F701C01D924150A2
S11351C05040E0F70895BB274A3031F4992322F484
S11351D0BDE2909581959F4F0C9427292532310586
S11351E020F4223010F00C94F928FA011082CA013C
S11351F00895BB27FA01A62F621771058105910551
S1135200330B30FB66F0AA27660F771F881F991FA0
S1135210AA1FA21710F0A21B63953850A9F7A05D2E
S1135220AA3308F0A95DA19336F7B111B1931082A6
S1135230CA010C9440294532510520F4423010F043
S11352400C942629FB011082CB010895BB27FB0196
S11352505527AA27880F991FAA1FA41710F0A41B6B
S113526083955051B9F7A05DAA3308F0A95DA193C5
S1135270009779F7B111B1931192CB010C944029A5
S1135280DC01FC01672F71917723E1F7329704C0A9
S11352907C916D9370836291AE17BF07C8F3089534
S10752A0F894FFCFAC
S11352A42C018101FF0FFFFFFFFF746869732073F2
S11352B4686F756C64206F6E6C79206170706561C1
S11352C472206F6E63650000000000FB048B1D45B3
S11352D44E4331205365747570205375636365734D
S11352E4733F2000454E4332205365747570205338
S11352F47563636573733F2000446966666572650C
S11353046E7469616C20456E636F646572205661C6
S11353146C756573004D2076656C203100204D3228
S113532420562000525F565F426172200020525082
S11353344F535944454C5441200020524F4D454746
S113534441200020525F54484554415F44454C5425
S113535441200000000000D7068B1D49444C450041
S113536400000000971E8B1D00000000481F441E0F
S1135374391E1B1E4F1F501F00000000481F971E9C
S11353844D1F4A1F4F1F501F00000000481F1421C7
S11353945E2138214F1F71214672656552544F5363
S11353A420586D6567612054657374696E67205075
S11353B4726F6772616D004D4F544F5220544153C4
S11153C44B00526F626F745374617465000085
S9030000FC
